{
  "address": "0x8328a8c35f7D8836B17d1aC53c9dF6cAc0957B8b",
  "abi": [
    {
      "inputs": [
        {
          "internalType": "uint256",
          "name": "_size",
          "type": "uint256"
        },
        {
          "internalType": "uint256",
          "name": "_start",
          "type": "uint256"
        },
        {
          "internalType": "uint256",
          "name": "_end",
          "type": "uint256"
        }
      ],
      "name": "InvalidCodeAtRange",
      "type": "error"
    },
    {
      "inputs": [],
      "name": "ReentrancyGuardReentrantCall",
      "type": "error"
    },
    {
      "anonymous": false,
      "inputs": [
        {
          "indexed": true,
          "internalType": "address",
          "name": "operator",
          "type": "address"
        },
        {
          "indexed": true,
          "internalType": "address",
          "name": "from",
          "type": "address"
        },
        {
          "indexed": true,
          "internalType": "uint256",
          "name": "tokenId",
          "type": "uint256"
        },
        {
          "indexed": false,
          "internalType": "bytes",
          "name": "data",
          "type": "bytes"
        }
      ],
      "name": "NFTReceived",
      "type": "event"
    },
    {
      "anonymous": false,
      "inputs": [
        {
          "indexed": true,
          "internalType": "address",
          "name": "owner",
          "type": "address"
        },
        {
          "indexed": false,
          "internalType": "uint256",
          "name": "amount",
          "type": "uint256"
        }
      ],
      "name": "Withdraw",
      "type": "event"
    },
    {
      "inputs": [
        {
          "internalType": "address",
          "name": "to",
          "type": "address"
        },
        {
          "internalType": "uint256",
          "name": "value",
          "type": "uint256"
        },
        {
          "internalType": "bytes",
          "name": "data",
          "type": "bytes"
        }
      ],
      "name": "executeCall",
      "outputs": [
        {
          "internalType": "bytes",
          "name": "result",
          "type": "bytes"
        }
      ],
      "stateMutability": "payable",
      "type": "function"
    },
    {
      "inputs": [
        {
          "internalType": "bytes32",
          "name": "hash",
          "type": "bytes32"
        },
        {
          "internalType": "bytes",
          "name": "signature",
          "type": "bytes"
        }
      ],
      "name": "isValidSignature",
      "outputs": [
        {
          "internalType": "bytes4",
          "name": "magicValue",
          "type": "bytes4"
        }
      ],
      "stateMutability": "view",
      "type": "function"
    },
    {
      "inputs": [],
      "name": "nonce",
      "outputs": [
        {
          "internalType": "uint256",
          "name": "",
          "type": "uint256"
        }
      ],
      "stateMutability": "view",
      "type": "function"
    },
    {
      "inputs": [
        {
          "internalType": "address",
          "name": "operator",
          "type": "address"
        },
        {
          "internalType": "address",
          "name": "from",
          "type": "address"
        },
        {
          "internalType": "uint256",
          "name": "tokenId",
          "type": "uint256"
        },
        {
          "internalType": "bytes",
          "name": "data",
          "type": "bytes"
        }
      ],
      "name": "onERC721Received",
      "outputs": [
        {
          "internalType": "bytes4",
          "name": "",
          "type": "bytes4"
        }
      ],
      "stateMutability": "nonpayable",
      "type": "function"
    },
    {
      "inputs": [],
      "name": "owner",
      "outputs": [
        {
          "internalType": "address",
          "name": "",
          "type": "address"
        }
      ],
      "stateMutability": "view",
      "type": "function"
    },
    {
      "inputs": [
        {
          "internalType": "bytes4",
          "name": "interfaceId",
          "type": "bytes4"
        }
      ],
      "name": "supportsInterface",
      "outputs": [
        {
          "internalType": "bool",
          "name": "",
          "type": "bool"
        }
      ],
      "stateMutability": "pure",
      "type": "function"
    },
    {
      "inputs": [],
      "name": "token",
      "outputs": [
        {
          "internalType": "uint256",
          "name": "chainId",
          "type": "uint256"
        },
        {
          "internalType": "address",
          "name": "tokenContract",
          "type": "address"
        },
        {
          "internalType": "uint256",
          "name": "tokenId",
          "type": "uint256"
        }
      ],
      "stateMutability": "view",
      "type": "function"
    },
    {
      "inputs": [
        {
          "internalType": "uint256",
          "name": "amount",
          "type": "uint256"
        }
      ],
      "name": "withdraw",
      "outputs": [],
      "stateMutability": "nonpayable",
      "type": "function"
    },
    {
      "stateMutability": "payable",
      "type": "receive"
    }
  ],
  "transactionHash": "0x7d21a301ffce628bc1839ef71c7b7579555e00a4ed9dfb6fab0047926aca671c",
  "args": [],
  "numDeployments": 4,
  "solcInputHash": "71a4177d3c394030068775462831b2af",
  "bytecode": "0x608060405234801561001057600080fd5b506001600055610d7e806100256000396000f3fe60806040526004361061007f5760003560e01c80638da5cb5b1161004e5780638da5cb5b1461013b5780639e5d4c4914610168578063affed0e014610188578063fc0c546a146101a657600080fd5b806301ffc9a71461008b578063150b7a02146100c05780631626ba7e146100f95780632e1a7d4d1461011957600080fd5b3661008657005b600080fd5b34801561009757600080fd5b506100ab6100a6366004610969565b6101de565b60405190151581526020015b60405180910390f35b3480156100cc57600080fd5b506100e06100db3660046109f1565b61024b565b6040516001600160e01b031990911681526020016100b7565b34801561010557600080fd5b506100e0610114366004610a7a565b6102ad565b34801561012557600080fd5b50610139610134366004610b35565b6102e1565b005b34801561014757600080fd5b50610150610472565b6040516001600160a01b0390911681526020016100b7565b61017b610176366004610b4e565b610508565b6040516100b79190610bfa565b34801561019457600080fd5b506001546040519081526020016100b7565b3480156101b257600080fd5b506101bb6105f3565b604080519384526001600160a01b039092166020840152908201526060016100b7565b60006001600160e01b031982166301ffc9a760e01b148061020f57506001600160e01b03198216630b135d3f60e11b145b8061022a57506001600160e01b03198216632b165cf360e11b145b8061024557506001600160e01b03198216630a85bd0160e11b145b92915050565b600083856001600160a01b0316876001600160a01b03167f1d823cdc8f0514a95b53538df2d2f3deaf98d1c534c6e750daa593173c27f8f08686604051610293929190610c0d565b60405180910390a450630a85bd0160e11b95945050505050565b6000806102c26102bb610472565b858561062f565b9050806102d05760006102d9565b630b135d3f60e11b5b949350505050565b6102e9610693565b60006102f3610472565b9050336001600160a01b038216146103445760405162461bcd60e51b815260206004820152600f60248201526e2737ba103a37b5b2b71037bbb732b960891b60448201526064015b60405180910390fd5b8147101561038b5760405162461bcd60e51b8152602060048201526014602482015273496e73756666696369656e742062616c616e636560601b604482015260640161033b565b6000816001600160a01b03168360405160006040518083038185875af1925050503d80600081146103d8576040519150601f19603f3d011682016040523d82523d6000602084013e6103dd565b606091505b50509050806104205760405162461bcd60e51b815260206004820152600f60248201526e15da5d1a191c985dc819985a5b1959608a1b604482015260640161033b565b816001600160a01b03167f884edad9ce6fa2440d8a54cc123490eb96d2768479d49ff9c7366125a94243648460405161045b91815260200190565b60405180910390a2505061046f6001600055565b50565b6000806000806104806105f3565b925092509250468314610497576000935050505090565b6040516331a9108f60e11b8152600481018290526001600160a01b03831690636352211e90602401602060405180830381865afa1580156104dc573d6000803e3d6000fd5b505050506040513d601f19601f820116820180604052508101906105009190610c3c565b935050505090565b6060610512610472565b6001600160a01b0316336001600160a01b0316146105645760405162461bcd60e51b815260206004820152600f60248201526e2737ba103a37b5b2b71037bbb732b960891b604482015260640161033b565b6000856001600160a01b0316858585604051610581929190610c59565b60006040518083038185875af1925050503d80600081146105be576040519150601f19603f3d011682016040523d82523d6000602084013e6105c3565b606091505b5092509050806105d557815160208301fd5b600180549060006105e583610c7f565b919050555050949350505050565b6000808030803b906106109061060a606084610c98565b836106bd565b8060200190518101906106239190610cab565b93509350935050909192565b600080600061063e8585610772565b509092509050600081600381111561065857610658610ce4565b1480156106765750856001600160a01b0316826001600160a01b0316145b8061068757506106878686866107bf565b925050505b9392505050565b6002600054036106b657604051633ee5aeb560e01b815260040160405180910390fd5b6002600055565b6060833b60008190036106e057505060408051602081019091526000815261068c565b808411156106fe57505060408051602081019091526000815261068c565b838310156107305760405163162544fd60e11b815260048101829052602481018590526044810184905260640161033b565b83830384820360008282106107455782610747565b815b60408051603f8301601f19168101909152818152955090508087602087018a3c505050509392505050565b600080600083516041036107ac5760208401516040850151606086015160001a61079e8882858561089a565b9550955095505050506107b8565b50508151600091506002905b9250925092565b6000806000856001600160a01b031685856040516024016107e1929190610cfa565b60408051601f198184030181529181526020820180516001600160e01b0316630b135d3f60e11b179052516108169190610d13565b600060405180830381855afa9150503d8060008114610851576040519150601f19603f3d011682016040523d82523d6000602084013e610856565b606091505b509150915081801561086a57506020815110155b801561068757508051630b135d3f60e11b9061088f9083016020908101908401610d2f565b149695505050505050565b600080807f7fffffffffffffffffffffffffffffff5d576e7357a4501ddfe92f46681b20a08411156108d5575060009150600390508261095f565b604080516000808252602082018084528a905260ff891692820192909252606081018790526080810186905260019060a0016020604051602081039080840390855afa158015610929573d6000803e3d6000fd5b5050604051601f1901519150506001600160a01b0381166109555750600092506001915082905061095f565b9250600091508190505b9450945094915050565b60006020828403121561097b57600080fd5b81356001600160e01b03198116811461068c57600080fd5b6001600160a01b038116811461046f57600080fd5b60008083601f8401126109ba57600080fd5b50813567ffffffffffffffff8111156109d257600080fd5b6020830191508360208285010111156109ea57600080fd5b9250929050565b600080600080600060808688031215610a0957600080fd5b8535610a1481610993565b94506020860135610a2481610993565b935060408601359250606086013567ffffffffffffffff811115610a4757600080fd5b610a53888289016109a8565b969995985093965092949392505050565b634e487b7160e01b600052604160045260246000fd5b60008060408385031215610a8d57600080fd5b82359150602083013567ffffffffffffffff80821115610aac57600080fd5b818501915085601f830112610ac057600080fd5b813581811115610ad257610ad2610a64565b604051601f8201601f19908116603f01168101908382118183101715610afa57610afa610a64565b81604052828152886020848701011115610b1357600080fd5b8260208601602083013760006020848301015280955050505050509250929050565b600060208284031215610b4757600080fd5b5035919050565b60008060008060608587031215610b6457600080fd5b8435610b6f81610993565b935060208501359250604085013567ffffffffffffffff811115610b9257600080fd5b610b9e878288016109a8565b95989497509550505050565b60005b83811015610bc5578181015183820152602001610bad565b50506000910152565b60008151808452610be6816020860160208601610baa565b601f01601f19169290920160200192915050565b60208152600061068c6020830184610bce565b60208152816020820152818360408301376000818301604090810191909152601f909201601f19160101919050565b600060208284031215610c4e57600080fd5b815161068c81610993565b8183823760009101908152919050565b634e487b7160e01b600052601160045260246000fd5b600060018201610c9157610c91610c69565b5060010190565b8181038181111561024557610245610c69565b600080600060608486031215610cc057600080fd5b835192506020840151610cd281610993565b80925050604084015190509250925092565b634e487b7160e01b600052602160045260246000fd5b8281526040602082015260006102d96040830184610bce565b60008251610d25818460208701610baa565b9190910192915050565b600060208284031215610d4157600080fd5b505191905056fea264697066735822122079e983f1786db845202ef83bc50be57825e6fa3f0a17ed5ba839644c7cce09c864736f6c63430008170033",
  "devdoc": {
    "errors": {
      "ReentrancyGuardReentrantCall()": [
        {
          "details": "Unauthorized reentrant call."
        }
      ]
    },
    "kind": "dev",
    "methods": {
      "executeCall(address,uint256,bytes)": {
        "params": {
          "data": "Call data",
          "to": "Target contract address",
          "value": "ETH to send"
        }
      },
      "onERC721Received(address,address,uint256,bytes)": {
        "params": {
          "data": "Additional data with no specified format",
          "from": "The address which previously owned the token",
          "operator": "The address which called `safeTransferFrom`",
          "tokenId": "The NFT identifier which is being transferred"
        },
        "returns": {
          "_0": "bytes4 `bytes4(keccak256(\"onERC721Received(address,address,uint256,bytes)\"))`"
        }
      },
      "withdraw(uint256)": {
        "details": "Only NFT owner can call"
      }
    },
    "title": "ERC-6551 Smart Account (TBA) for NFT-based ownership & Alchemy AA compatible",
    "version": 1
  },
  "userdoc": {
    "kind": "user",
    "methods": {
      "executeCall(address,uint256,bytes)": {
        "notice": "Executes a call on behalf of the account"
      },
      "isValidSignature(bytes32,bytes)": {
        "notice": "EIP-1271 signature validator for contract wallets"
      },
      "nonce()": {
        "notice": "View nonce for replay protection"
      },
      "onERC721Received(address,address,uint256,bytes)": {
        "notice": "Handle the receipt of an NFT"
      },
      "owner()": {
        "notice": "Returns the owner (current holder of NFT)"
      },
      "supportsInterface(bytes4)": {
        "notice": "Support introspection for interfaces"
      },
      "token()": {
        "notice": "Returns the token that owns this account"
      },
      "withdraw(uint256)": {
        "notice": "Withdraw native tokens (e.g. MON/ETH) from this TBA to NFT holder EOA"
      }
    },
    "version": 1
  },
  "storageLayout": {
    "storage": [
      {
        "astId": 2391,
        "contract": "contracts/ERC6551Account.sol:ERC6551Account",
        "label": "_status",
        "offset": 0,
        "slot": "0",
        "type": "t_uint256"
      },
      {
        "astId": 4441,
        "contract": "contracts/ERC6551Account.sol:ERC6551Account",
        "label": "_nonce",
        "offset": 0,
        "slot": "1",
        "type": "t_uint256"
      }
    ],
    "types": {
      "t_uint256": {
        "encoding": "inplace",
        "label": "uint256",
        "numberOfBytes": "32"
      }
    }
  }
}