{
  "address": "0xa121aD4caDB0b47d39Ce77782F5fF9d24bc46bAA",
  "abi": [
    {
      "inputs": [],
      "stateMutability": "nonpayable",
      "type": "constructor"
    },
    {
      "anonymous": false,
      "inputs": [
        {
          "indexed": true,
          "internalType": "address",
          "name": "funder",
          "type": "address"
        },
        {
          "indexed": false,
          "internalType": "uint256",
          "name": "amount",
          "type": "uint256"
        }
      ],
      "name": "BalanceFunded",
      "type": "event"
    },
    {
      "anonymous": false,
      "inputs": [
        {
          "indexed": true,
          "internalType": "address",
          "name": "owner",
          "type": "address"
        },
        {
          "indexed": false,
          "internalType": "uint256",
          "name": "amount",
          "type": "uint256"
        }
      ],
      "name": "BalanceWithdrawn",
      "type": "event"
    },
    {
      "anonymous": false,
      "inputs": [
        {
          "indexed": true,
          "internalType": "address",
          "name": "recipient",
          "type": "address"
        },
        {
          "indexed": false,
          "internalType": "uint256",
          "name": "amount",
          "type": "uint256"
        }
      ],
      "name": "FaucetUsed",
      "type": "event"
    },
    {
      "inputs": [],
      "name": "allowedCaller",
      "outputs": [
        {
          "internalType": "address",
          "name": "",
          "type": "address"
        }
      ],
      "stateMutability": "view",
      "type": "function"
    },
    {
      "inputs": [
        {
          "internalType": "address",
          "name": "to",
          "type": "address"
        },
        {
          "internalType": "uint256",
          "name": "amount",
          "type": "uint256"
        }
      ],
      "name": "faucet",
      "outputs": [],
      "stateMutability": "nonpayable",
      "type": "function"
    },
    {
      "inputs": [],
      "name": "fundFaucet",
      "outputs": [],
      "stateMutability": "payable",
      "type": "function"
    },
    {
      "inputs": [],
      "name": "owner",
      "outputs": [
        {
          "internalType": "address",
          "name": "",
          "type": "address"
        }
      ],
      "stateMutability": "view",
      "type": "function"
    },
    {
      "inputs": [
        {
          "internalType": "address",
          "name": "_caller",
          "type": "address"
        }
      ],
      "name": "setAllowedCaller",
      "outputs": [],
      "stateMutability": "nonpayable",
      "type": "function"
    },
    {
      "inputs": [
        {
          "internalType": "uint256",
          "name": "amount",
          "type": "uint256"
        }
      ],
      "name": "withdrawBalance",
      "outputs": [],
      "stateMutability": "nonpayable",
      "type": "function"
    },
    {
      "stateMutability": "payable",
      "type": "receive"
    }
  ],
  "transactionHash": "0xa6fd87b4ee38e5b0f49ef0ecc607ec49fa42077b69248fe9eec48e8b6ffd2c7b",
  "args": [],
  "numDeployments": 2,
  "solcInputHash": "ca2de141e962cdfc78f88791eb65af21",
  "bytecode": "0x608060405234801561001057600080fd5b50600080546001600160a01b03191633179055610530806100326000396000f3fe6080604052600436106100595760003560e01c80633895d938146100655780636a211d6a146100a15780637b56c2b2146100ab5780638da5cb5b146100cb578063b16d6436146100eb578063da76d5cd1461010b57600080fd5b3661006057005b600080fd5b34801561007157600080fd5b50600154610085906001600160a01b031681565b6040516001600160a01b03909116815260200160405180910390f35b6100a961012b565b005b3480156100b757600080fd5b506100a96100c6366004610495565b6101c9565b3480156100d757600080fd5b50600054610085906001600160a01b031681565b3480156100f757600080fd5b506100a96101063660046104bf565b6102d7565b34801561011757600080fd5b506100a96101263660046104e1565b61034c565b600034116101925760405162461bcd60e51b815260206004820152602960248201527f4d7573742073656e64206e617469766520746f6b656e20746f2066756e6420746044820152681a194819985d58d95d60ba1b60648201526084015b60405180910390fd5b60405134815233907fe7765cbdc1b48b4b15642a6dadba14a2bfff6298f44152508a14f634fead42c49060200160405180910390a2565b6001546001600160a01b031633146102145760405162461bcd60e51b815260206004820152600e60248201526d10d85b1b195c881b9bdd081cd95d60921b6044820152606401610189565b804710156102595760405162461bcd60e51b81526020600482015260126024820152714e6f7420656e6f7567682062616c616e636560701b6044820152606401610189565b6040516001600160a01b0383169082156108fc029083906000818181858888f1935050505015801561028f573d6000803e3d6000fd5b50816001600160a01b03167fc471df7d13ab46c73ec6eb2da0f35f84077f20d50243ba09a714b82cffc54de9826040516102cb91815260200190565b60405180910390a25050565b6000546001600160a01b0316331461032a5760405162461bcd60e51b81526020600482015260166024820152752737ba103a34329031b7b73a3930b1ba1037bbb732b960511b6044820152606401610189565b600180546001600160a01b0319166001600160a01b0392909216919091179055565b6000546001600160a01b0316331461039f5760405162461bcd60e51b81526020600482015260166024820152752737ba103a34329031b7b73a3930b1ba1037bbb732b960511b6044820152606401610189565b804710156103fa5760405162461bcd60e51b815260206004820152602260248201527f496e73756666696369656e742062616c616e636520696e207468652066617563604482015261195d60f21b6064820152608401610189565b600080546040516001600160a01b039091169183156108fc02918491818181858888f19350505050158015610433573d6000803e3d6000fd5b506000546040518281526001600160a01b03909116907fddc398b321237a8d40ac914388309c2f52a08c134e4dc4ce61e32f57cb7d80f19060200160405180910390a250565b80356001600160a01b038116811461049057600080fd5b919050565b600080604083850312156104a857600080fd5b6104b183610479565b946020939093013593505050565b6000602082840312156104d157600080fd5b6104da82610479565b9392505050565b6000602082840312156104f357600080fd5b503591905056fea2646970667358221220181f26f8a1e2f9f250378a189c50cbd73009420c92fcb3ab4feb2ac7ce24dd4e64736f6c63430008170033",
  "devdoc": {
    "kind": "dev",
    "methods": {},
    "version": 1
  },
  "userdoc": {
    "kind": "user",
    "methods": {},
    "version": 1
  },
  "storageLayout": {
    "storage": [
      {
        "astId": 4140,
        "contract": "contracts/FaucetMon.sol:FaucetMon",
        "label": "owner",
        "offset": 0,
        "slot": "0",
        "type": "t_address"
      },
      {
        "astId": 4142,
        "contract": "contracts/FaucetMon.sol:FaucetMon",
        "label": "allowedCaller",
        "offset": 0,
        "slot": "1",
        "type": "t_address"
      }
    ],
    "types": {
      "t_address": {
        "encoding": "inplace",
        "label": "address",
        "numberOfBytes": "20"
      }
    }
  }
}