{
  "address": "0x4D0A40CD80E36e86479B6006828bEf78e12D3e44",
  "abi": [
    {
      "inputs": [
        {
          "internalType": "address",
          "name": "_foodNFT",
          "type": "address"
        },
        {
          "internalType": "address",
          "name": "_foodScramble",
          "type": "address"
        },
        {
          "internalType": "address",
          "name": "_paymentGateway",
          "type": "address"
        }
      ],
      "stateMutability": "nonpayable",
      "type": "constructor"
    },
    {
      "inputs": [
        {
          "internalType": "address",
          "name": "sender",
          "type": "address"
        },
        {
          "internalType": "uint256",
          "name": "tokenId",
          "type": "uint256"
        },
        {
          "internalType": "address",
          "name": "owner",
          "type": "address"
        }
      ],
      "name": "ERC721IncorrectOwner",
      "type": "error"
    },
    {
      "inputs": [
        {
          "internalType": "address",
          "name": "operator",
          "type": "address"
        },
        {
          "internalType": "uint256",
          "name": "tokenId",
          "type": "uint256"
        }
      ],
      "name": "ERC721InsufficientApproval",
      "type": "error"
    },
    {
      "inputs": [
        {
          "internalType": "address",
          "name": "approver",
          "type": "address"
        }
      ],
      "name": "ERC721InvalidApprover",
      "type": "error"
    },
    {
      "inputs": [
        {
          "internalType": "address",
          "name": "operator",
          "type": "address"
        }
      ],
      "name": "ERC721InvalidOperator",
      "type": "error"
    },
    {
      "inputs": [
        {
          "internalType": "address",
          "name": "owner",
          "type": "address"
        }
      ],
      "name": "ERC721InvalidOwner",
      "type": "error"
    },
    {
      "inputs": [
        {
          "internalType": "address",
          "name": "receiver",
          "type": "address"
        }
      ],
      "name": "ERC721InvalidReceiver",
      "type": "error"
    },
    {
      "inputs": [
        {
          "internalType": "address",
          "name": "sender",
          "type": "address"
        }
      ],
      "name": "ERC721InvalidSender",
      "type": "error"
    },
    {
      "inputs": [
        {
          "internalType": "uint256",
          "name": "tokenId",
          "type": "uint256"
        }
      ],
      "name": "ERC721NonexistentToken",
      "type": "error"
    },
    {
      "inputs": [
        {
          "internalType": "address",
          "name": "owner",
          "type": "address"
        }
      ],
      "name": "OwnableInvalidOwner",
      "type": "error"
    },
    {
      "inputs": [
        {
          "internalType": "address",
          "name": "account",
          "type": "address"
        }
      ],
      "name": "OwnableUnauthorizedAccount",
      "type": "error"
    },
    {
      "inputs": [],
      "name": "ReentrancyGuardReentrantCall",
      "type": "error"
    },
    {
      "anonymous": false,
      "inputs": [
        {
          "indexed": true,
          "internalType": "address",
          "name": "owner",
          "type": "address"
        },
        {
          "indexed": true,
          "internalType": "address",
          "name": "approved",
          "type": "address"
        },
        {
          "indexed": true,
          "internalType": "uint256",
          "name": "tokenId",
          "type": "uint256"
        }
      ],
      "name": "Approval",
      "type": "event"
    },
    {
      "anonymous": false,
      "inputs": [
        {
          "indexed": true,
          "internalType": "address",
          "name": "owner",
          "type": "address"
        },
        {
          "indexed": true,
          "internalType": "address",
          "name": "operator",
          "type": "address"
        },
        {
          "indexed": false,
          "internalType": "bool",
          "name": "approved",
          "type": "bool"
        }
      ],
      "name": "ApprovalForAll",
      "type": "event"
    },
    {
      "anonymous": false,
      "inputs": [
        {
          "indexed": false,
          "internalType": "uint256",
          "name": "newPrice",
          "type": "uint256"
        }
      ],
      "name": "BoxPriceUpdated",
      "type": "event"
    },
    {
      "anonymous": false,
      "inputs": [
        {
          "indexed": true,
          "internalType": "address",
          "name": "user",
          "type": "address"
        },
        {
          "indexed": true,
          "internalType": "address",
          "name": "tba",
          "type": "address"
        },
        {
          "indexed": false,
          "internalType": "uint256",
          "name": "tokenId",
          "type": "uint256"
        }
      ],
      "name": "Burn",
      "type": "event"
    },
    {
      "anonymous": false,
      "inputs": [
        {
          "indexed": true,
          "internalType": "address",
          "name": "user",
          "type": "address"
        },
        {
          "indexed": true,
          "internalType": "address",
          "name": "tba",
          "type": "address"
        },
        {
          "indexed": false,
          "internalType": "uint256",
          "name": "tokenId",
          "type": "uint256"
        }
      ],
      "name": "MintBox",
      "type": "event"
    },
    {
      "anonymous": false,
      "inputs": [
        {
          "indexed": true,
          "internalType": "address",
          "name": "previousOwner",
          "type": "address"
        },
        {
          "indexed": true,
          "internalType": "address",
          "name": "newOwner",
          "type": "address"
        }
      ],
      "name": "OwnershipTransferred",
      "type": "event"
    },
    {
      "anonymous": false,
      "inputs": [
        {
          "indexed": false,
          "internalType": "address",
          "name": "newGateway",
          "type": "address"
        }
      ],
      "name": "PaymentGatewayUpdated",
      "type": "event"
    },
    {
      "anonymous": false,
      "inputs": [
        {
          "indexed": true,
          "internalType": "address",
          "name": "from",
          "type": "address"
        },
        {
          "indexed": true,
          "internalType": "address",
          "name": "to",
          "type": "address"
        },
        {
          "indexed": true,
          "internalType": "uint256",
          "name": "tokenId",
          "type": "uint256"
        }
      ],
      "name": "Transfer",
      "type": "event"
    },
    {
      "inputs": [],
      "name": "HAMBURGER_COST",
      "outputs": [
        {
          "internalType": "uint256",
          "name": "",
          "type": "uint256"
        }
      ],
      "stateMutability": "view",
      "type": "function"
    },
    {
      "inputs": [
        {
          "internalType": "address",
          "name": "burner",
          "type": "address"
        }
      ],
      "name": "addBurner",
      "outputs": [],
      "stateMutability": "nonpayable",
      "type": "function"
    },
    {
      "inputs": [
        {
          "internalType": "address",
          "name": "to",
          "type": "address"
        },
        {
          "internalType": "uint256",
          "name": "tokenId",
          "type": "uint256"
        }
      ],
      "name": "approve",
      "outputs": [],
      "stateMutability": "nonpayable",
      "type": "function"
    },
    {
      "inputs": [
        {
          "internalType": "address",
          "name": "owner",
          "type": "address"
        }
      ],
      "name": "balanceOf",
      "outputs": [
        {
          "internalType": "uint256",
          "name": "",
          "type": "uint256"
        }
      ],
      "stateMutability": "view",
      "type": "function"
    },
    {
      "inputs": [
        {
          "internalType": "address",
          "name": "tba",
          "type": "address"
        }
      ],
      "name": "boxBalance",
      "outputs": [
        {
          "internalType": "uint256[]",
          "name": "",
          "type": "uint256[]"
        }
      ],
      "stateMutability": "view",
      "type": "function"
    },
    {
      "inputs": [],
      "name": "boxPrice",
      "outputs": [
        {
          "internalType": "uint256",
          "name": "",
          "type": "uint256"
        }
      ],
      "stateMutability": "view",
      "type": "function"
    },
    {
      "inputs": [
        {
          "internalType": "address",
          "name": "",
          "type": "address"
        },
        {
          "internalType": "uint256",
          "name": "",
          "type": "uint256"
        }
      ],
      "name": "boxes",
      "outputs": [
        {
          "internalType": "uint256",
          "name": "",
          "type": "uint256"
        }
      ],
      "stateMutability": "view",
      "type": "function"
    },
    {
      "inputs": [
        {
          "internalType": "uint256",
          "name": "tokenId",
          "type": "uint256"
        }
      ],
      "name": "burnBox",
      "outputs": [],
      "stateMutability": "nonpayable",
      "type": "function"
    },
    {
      "inputs": [
        {
          "internalType": "address",
          "name": "",
          "type": "address"
        }
      ],
      "name": "burners",
      "outputs": [
        {
          "internalType": "bool",
          "name": "",
          "type": "bool"
        }
      ],
      "stateMutability": "view",
      "type": "function"
    },
    {
      "inputs": [
        {
          "internalType": "address",
          "name": "tba",
          "type": "address"
        }
      ],
      "name": "canMint",
      "outputs": [
        {
          "internalType": "uint256",
          "name": "",
          "type": "uint256"
        }
      ],
      "stateMutability": "view",
      "type": "function"
    },
    {
      "inputs": [],
      "name": "foodNFT",
      "outputs": [
        {
          "internalType": "contract IFoodNFT",
          "name": "",
          "type": "address"
        }
      ],
      "stateMutability": "view",
      "type": "function"
    },
    {
      "inputs": [],
      "name": "foodScramble",
      "outputs": [
        {
          "internalType": "contract IFoodScramble",
          "name": "",
          "type": "address"
        }
      ],
      "stateMutability": "view",
      "type": "function"
    },
    {
      "inputs": [
        {
          "internalType": "uint256",
          "name": "tokenId",
          "type": "uint256"
        }
      ],
      "name": "getApproved",
      "outputs": [
        {
          "internalType": "address",
          "name": "",
          "type": "address"
        }
      ],
      "stateMutability": "view",
      "type": "function"
    },
    {
      "inputs": [],
      "name": "getBoxPrice",
      "outputs": [
        {
          "internalType": "uint256",
          "name": "",
          "type": "uint256"
        }
      ],
      "stateMutability": "view",
      "type": "function"
    },
    {
      "inputs": [],
      "name": "getMintCost",
      "outputs": [
        {
          "internalType": "uint256",
          "name": "ethCost",
          "type": "uint256"
        }
      ],
      "stateMutability": "view",
      "type": "function"
    },
    {
      "inputs": [
        {
          "internalType": "address",
          "name": "user",
          "type": "address"
        }
      ],
      "name": "getTBA",
      "outputs": [
        {
          "internalType": "address",
          "name": "",
          "type": "address"
        }
      ],
      "stateMutability": "view",
      "type": "function"
    },
    {
      "inputs": [
        {
          "internalType": "address",
          "name": "tba",
          "type": "address"
        }
      ],
      "name": "hasEnoughHamburgers",
      "outputs": [
        {
          "internalType": "bool",
          "name": "",
          "type": "bool"
        }
      ],
      "stateMutability": "view",
      "type": "function"
    },
    {
      "inputs": [
        {
          "internalType": "address",
          "name": "owner",
          "type": "address"
        },
        {
          "internalType": "address",
          "name": "operator",
          "type": "address"
        }
      ],
      "name": "isApprovedForAll",
      "outputs": [
        {
          "internalType": "bool",
          "name": "",
          "type": "bool"
        }
      ],
      "stateMutability": "view",
      "type": "function"
    },
    {
      "inputs": [],
      "name": "mintBox",
      "outputs": [
        {
          "internalType": "uint256",
          "name": "",
          "type": "uint256"
        }
      ],
      "stateMutability": "payable",
      "type": "function"
    },
    {
      "inputs": [],
      "name": "name",
      "outputs": [
        {
          "internalType": "string",
          "name": "",
          "type": "string"
        }
      ],
      "stateMutability": "view",
      "type": "function"
    },
    {
      "inputs": [],
      "name": "owner",
      "outputs": [
        {
          "internalType": "address",
          "name": "",
          "type": "address"
        }
      ],
      "stateMutability": "view",
      "type": "function"
    },
    {
      "inputs": [
        {
          "internalType": "uint256",
          "name": "tokenId",
          "type": "uint256"
        }
      ],
      "name": "ownerOf",
      "outputs": [
        {
          "internalType": "address",
          "name": "",
          "type": "address"
        }
      ],
      "stateMutability": "view",
      "type": "function"
    },
    {
      "inputs": [],
      "name": "paymentGateway",
      "outputs": [
        {
          "internalType": "contract IPaymentGateway",
          "name": "",
          "type": "address"
        }
      ],
      "stateMutability": "view",
      "type": "function"
    },
    {
      "inputs": [
        {
          "internalType": "address",
          "name": "burner",
          "type": "address"
        }
      ],
      "name": "removeBurner",
      "outputs": [],
      "stateMutability": "nonpayable",
      "type": "function"
    },
    {
      "inputs": [],
      "name": "renounceOwnership",
      "outputs": [],
      "stateMutability": "nonpayable",
      "type": "function"
    },
    {
      "inputs": [
        {
          "internalType": "address",
          "name": "from",
          "type": "address"
        },
        {
          "internalType": "address",
          "name": "to",
          "type": "address"
        },
        {
          "internalType": "uint256",
          "name": "tokenId",
          "type": "uint256"
        }
      ],
      "name": "safeTransferFrom",
      "outputs": [],
      "stateMutability": "nonpayable",
      "type": "function"
    },
    {
      "inputs": [
        {
          "internalType": "address",
          "name": "from",
          "type": "address"
        },
        {
          "internalType": "address",
          "name": "to",
          "type": "address"
        },
        {
          "internalType": "uint256",
          "name": "tokenId",
          "type": "uint256"
        },
        {
          "internalType": "bytes",
          "name": "data",
          "type": "bytes"
        }
      ],
      "name": "safeTransferFrom",
      "outputs": [],
      "stateMutability": "nonpayable",
      "type": "function"
    },
    {
      "inputs": [
        {
          "internalType": "address",
          "name": "operator",
          "type": "address"
        },
        {
          "internalType": "bool",
          "name": "approved",
          "type": "bool"
        }
      ],
      "name": "setApprovalForAll",
      "outputs": [],
      "stateMutability": "nonpayable",
      "type": "function"
    },
    {
      "inputs": [
        {
          "internalType": "uint256",
          "name": "_boxPrice",
          "type": "uint256"
        }
      ],
      "name": "setBoxPrice",
      "outputs": [],
      "stateMutability": "nonpayable",
      "type": "function"
    },
    {
      "inputs": [
        {
          "internalType": "address",
          "name": "_foodNFT",
          "type": "address"
        }
      ],
      "name": "setFoodNFT",
      "outputs": [],
      "stateMutability": "nonpayable",
      "type": "function"
    },
    {
      "inputs": [
        {
          "internalType": "address",
          "name": "_foodScramble",
          "type": "address"
        }
      ],
      "name": "setFoodScramble",
      "outputs": [],
      "stateMutability": "nonpayable",
      "type": "function"
    },
    {
      "inputs": [
        {
          "internalType": "address",
          "name": "_paymentGateway",
          "type": "address"
        }
      ],
      "name": "setPaymentGateway",
      "outputs": [],
      "stateMutability": "nonpayable",
      "type": "function"
    },
    {
      "inputs": [
        {
          "internalType": "bytes4",
          "name": "interfaceId",
          "type": "bytes4"
        }
      ],
      "name": "supportsInterface",
      "outputs": [
        {
          "internalType": "bool",
          "name": "",
          "type": "bool"
        }
      ],
      "stateMutability": "view",
      "type": "function"
    },
    {
      "inputs": [],
      "name": "symbol",
      "outputs": [
        {
          "internalType": "string",
          "name": "",
          "type": "string"
        }
      ],
      "stateMutability": "view",
      "type": "function"
    },
    {
      "inputs": [
        {
          "internalType": "uint256",
          "name": "tokenId",
          "type": "uint256"
        }
      ],
      "name": "tokenURI",
      "outputs": [
        {
          "internalType": "string",
          "name": "",
          "type": "string"
        }
      ],
      "stateMutability": "view",
      "type": "function"
    },
    {
      "inputs": [],
      "name": "total",
      "outputs": [
        {
          "internalType": "uint256",
          "name": "",
          "type": "uint256"
        }
      ],
      "stateMutability": "view",
      "type": "function"
    },
    {
      "inputs": [
        {
          "internalType": "address",
          "name": "from",
          "type": "address"
        },
        {
          "internalType": "address",
          "name": "to",
          "type": "address"
        },
        {
          "internalType": "uint256",
          "name": "tokenId",
          "type": "uint256"
        }
      ],
      "name": "transferFrom",
      "outputs": [],
      "stateMutability": "nonpayable",
      "type": "function"
    },
    {
      "inputs": [
        {
          "internalType": "address",
          "name": "newOwner",
          "type": "address"
        }
      ],
      "name": "transferOwnership",
      "outputs": [],
      "stateMutability": "nonpayable",
      "type": "function"
    }
  ],
  "transactionHash": "0x133adfec0f0ed79be17fb62923547ce475365184e48976434bc957532b21fc43",
  "args": [
    "0x2FF46E513a2991d1338014c911B1eA8E7710f48E",
    "0x4906A158209765187cc70819eDa36f922114AF77",
    "0x875777Dfd5660e67A19E365AfAFE90144cb11464"
  ],
  "numDeployments": 4,
  "solcInputHash": "d2bfb95f4d103a4e67fb06a6293fdeaa",
  "bytecode": "0x60806040526000600c553480156200001657600080fd5b50604051620024533803806200245383398101604081905262000039916200018f565b336040518060400160405280600b81526020016a0a6e0cac6d2c2d84084def60ab1b815250604051806040016040528060038152602001620849eb60eb1b81525081600090816200008b919062000280565b5060016200009a828262000280565b5050506001600160a01b038116620000cc57604051631e4fbdf760e01b81526000600482015260240160405180910390fd5b620000d78162000120565b506001600755600980546001600160a01b039485166001600160a01b031991821617909155600a805493851693821693909317909255600b80549190931691161790556200034c565b600680546001600160a01b038381166001600160a01b0319831681179093556040519116919082907f8be0079c531659141344cd1fd0a4f28419497f9722a3daafe3b4186f6b6457e090600090a35050565b80516001600160a01b03811681146200018a57600080fd5b919050565b600080600060608486031215620001a557600080fd5b620001b08462000172565b9250620001c06020850162000172565b9150620001d06040850162000172565b90509250925092565b634e487b7160e01b600052604160045260246000fd5b600181811c908216806200020457607f821691505b6020821081036200022557634e487b7160e01b600052602260045260246000fd5b50919050565b601f8211156200027b576000816000526020600020601f850160051c81016020861015620002565750805b601f850160051c820191505b81811015620002775782815560010162000262565b5050505b505050565b81516001600160401b038111156200029c576200029c620001d9565b620002b481620002ad8454620001ef565b846200022b565b602080601f831160018114620002ec5760008415620002d35750858301515b600019600386901b1c1916600185901b17855562000277565b600085815260208120601f198616915b828110156200031d57888601518255948401946001909101908401620002fc565b50858210156200033c5787850151600019600388901b60f8161c191681555b5050505050600190811b01905550565b6120f7806200035c6000396000f3fe6080604052600436106102255760003560e01c80638da5cb5b11610123578063ca2169d4116100ab578063f44637ba1161006f578063f44637ba1461061e578063f453f5311461063e578063f7dbea3e1461065e578063f817b47e1461067e578063fd01a7ee146106ab57600080fd5b8063ca2169d414610596578063df10c5ee146105b6578063e1ae5952146105d6578063e985e9c5146105de578063f2fde38b146105fe57600080fd5b8063a6482858116100f2578063a648285814610500578063a860c13614610516578063b88d4fde14610536578063c2ba474414610556578063c87b56dd1461057657600080fd5b80638da5cb5b1461048d57806395d89b41146104ab578063a22cb465146104c0578063a3df8145146104e057600080fd5b80631fb7cc3a116101b15780635345850d116101755780635345850d1461035957806358d51a87146104235780636352211e1461043857806370a0823114610458578063715018a61461047857600080fd5b80631fb7cc3a1461038e57806323b872dd146103ae5780632ddbd13a146103ce57806342842e0e146103e3578063522d11671461040357600080fd5b8063081812fc116101f8578063081812fc146102d3578063095ea7b31461030b57806313b980a41461032b57806313c738f01461035957806319c84fc41461036e57600080fd5b806301ffc9a71461022a578063028468581461025f57806303d41e0e1461028157806306fdde03146102b1575b600080fd5b34801561023657600080fd5b5061024a610245366004611b92565b6106cb565b60405190151581526020015b60405180910390f35b34801561026b57600080fd5b5061027f61027a366004611bc4565b61071d565b005b34801561028d57600080fd5b5061024a61029c366004611bc4565b600d6020526000908152604090205460ff1681565b3480156102bd57600080fd5b506102c6610746565b6040516102569190611c31565b3480156102df57600080fd5b506102f36102ee366004611c44565b6107d8565b6040516001600160a01b039091168152602001610256565b34801561031757600080fd5b5061027f610326366004611c5d565b610801565b34801561033757600080fd5b5061034b610346366004611c5d565b610810565b604051908152602001610256565b34801561036557600080fd5b50600c5461034b565b34801561037a57600080fd5b506009546102f3906001600160a01b031681565b34801561039a57600080fd5b5061027f6103a9366004611bc4565b610841565b3480156103ba57600080fd5b5061027f6103c9366004611c89565b61086b565b3480156103da57600080fd5b5060085461034b565b3480156103ef57600080fd5b5061027f6103fe366004611c89565b6108fb565b34801561040f57600080fd5b5061027f61041e366004611bc4565b61091b565b34801561042f57600080fd5b5061034b600a81565b34801561044457600080fd5b506102f3610453366004611c44565b610945565b34801561046457600080fd5b5061034b610473366004611bc4565b610950565b34801561048457600080fd5b5061027f610998565b34801561049957600080fd5b506006546001600160a01b03166102f3565b3480156104b757600080fd5b506102c66109ac565b3480156104cc57600080fd5b5061027f6104db366004611cd8565b6109bb565b3480156104ec57600080fd5b5061024a6104fb366004611bc4565b6109c6565b34801561050c57600080fd5b5061034b600c5481565b34801561052257600080fd5b506102f3610531366004611bc4565b610a48565b34801561054257600080fd5b5061027f610551366004611d58565b610a53565b34801561056257600080fd5b5061034b610571366004611bc4565b610a6a565b34801561058257600080fd5b506102c6610591366004611c44565b610af7565b3480156105a257600080fd5b50600b546102f3906001600160a01b031681565b3480156105c257600080fd5b5061027f6105d1366004611c44565b610b6b565b61034b610c9e565b3480156105ea57600080fd5b5061024a6105f9366004611e1c565b610efd565b34801561060a57600080fd5b5061027f610619366004611bc4565b610f2b565b34801561062a57600080fd5b5061027f610639366004611bc4565b610f69565b34801561064a57600080fd5b50600a546102f3906001600160a01b031681565b34801561066a57600080fd5b5061027f610679366004611c44565b610f95565b34801561068a57600080fd5b5061069e610699366004611bc4565b610fd9565b6040516102569190611e4a565b3480156106b757600080fd5b5061027f6106c6366004611bc4565b611045565b60006001600160e01b031982166380ac58cd60e01b14806106fc57506001600160e01b03198216635b5e139f60e01b145b8061071757506301ffc9a760e01b6001600160e01b03198316145b92915050565b61072561109b565b6001600160a01b03166000908152600d60205260409020805460ff19169055565b60606000805461075590611e8e565b80601f016020809104026020016040519081016040528092919081815260200182805461078190611e8e565b80156107ce5780601f106107a3576101008083540402835291602001916107ce565b820191906000526020600020905b8154815290600101906020018083116107b157829003601f168201915b5050505050905090565b60006107e3826110c8565b506000828152600460205260409020546001600160a01b0316610717565b61080c828233611101565b5050565b600e602052816000526040600020818154811061082c57600080fd5b90600052602060002001600091509150505481565b61084961109b565b600980546001600160a01b0319166001600160a01b0392909216919091179055565b6001600160a01b03821661089a57604051633250574960e11b8152600060048201526024015b60405180910390fd5b60006108a783833361110e565b9050836001600160a01b0316816001600160a01b0316146108f5576040516364283d7b60e01b81526001600160a01b0380861660048301526024820184905282166044820152606401610891565b50505050565b61091683838360405180602001604052806000815250610a53565b505050565b61092361109b565b600a80546001600160a01b0319166001600160a01b0392909216919091179055565b6000610717826110c8565b60006001600160a01b03821661097c576040516322718ad960e21b815260006004820152602401610891565b506001600160a01b031660009081526003602052604090205490565b6109a061109b565b6109aa60006111a8565b565b60606001805461075590611e8e565b61080c3383836111fa565b600954604051630312d49360e21b81526001600160a01b0383811660048301526000928392911690630c4b524c90602401600060405180830381865afa158015610a14573d6000803e3d6000fd5b505050506040513d6000823e601f3d908101601f19168201604052610a3c9190810190611ec8565b51600a11159392505050565b600061071782611291565b610a5e84848461086b565b6108f58484848461138e565b600954604051630312d49360e21b81526001600160a01b0383811660048301526000928392911690630c4b524c90602401600060405180830381865afa158015610ab8573d6000803e3d6000fd5b505050506040513d6000823e601f3d908101601f19168201604052610ae09190810190611ec8565b9050600a8151610af09190611f84565b9392505050565b6060610b02826110c8565b506000610b1a60408051602081019091526000815290565b90506000815111610b3a5760405180602001604052806000815250610af0565b80610b44846114b7565b604051602001610b55929190611fa6565b6040516020818303038152906040529392505050565b336000908152600d602052604090205460ff16610bbb5760405162461bcd60e51b815260206004820152600e60248201526d139bdd08185d5d1a1bdc9a5e995960921b6044820152606401610891565b6000818152600260205260409020546001600160a01b0316610c0f5760405162461bcd60e51b815260206004820152600d60248201526c109bde081b9bdd08195e1a5cdd609a1b6044820152606401610891565b6000610c1a82610945565b905080610c296000848161110e565b506001600160a01b0382166000908152600e60205260409020610c4c908461154a565b816001600160a01b0316816001600160a01b03167fbac40739b0d4ca32fa2d82fc91630465ba3eddd1598da6fca393b26fb63b945385604051610c9191815260200190565b60405180910390a3505050565b6000610ca86115f7565b6000610cb333611291565b9050610cbe816109c6565b610cff5760405162461bcd60e51b81526020600482015260126024820152714e6565642031302068616d6275726765727360701b6044820152606401610891565b600c5415610e5a57600b546001600160a01b0316610d5f5760405162461bcd60e51b815260206004820152601760248201527f5061796d656e742067617465776179206e6f74207365740000000000000000006044820152606401610891565b600c54341015610da85760405162461bcd60e51b8152602060048201526014602482015273125b9cdd59999a58da595b9d081c185e5b595b9d60621b6044820152606401610891565b600b60009054906101000a90046001600160a01b03166001600160a01b03166322081c12600c546040518263ffffffff1660e01b81526004016000604051808303818588803b158015610dfa57600080fd5b505af1158015610e0e573d6000803e3d6000fd5b5050505050600c54341115610e5a57600c5433906108fc90610e309034611fd5565b6040518115909202916000818181858888f19350505050158015610e58573d6000803e3d6000fd5b505b610e6381611621565b60088054906000610e7383611fe8565b9091555050600854610e858282611779565b6001600160a01b0382166000818152600e60209081526040808320805460018101825590845291909220018390555133907f430e7863dcaa7ce451d8cf35f2c22b88ff20bdff09da45586b2ff7b592ee30df90610ee59085815260200190565b60405180910390a3915050610efa6001600755565b90565b6001600160a01b03918216600090815260056020908152604080832093909416825291909152205460ff1690565b610f3361109b565b6001600160a01b038116610f5d57604051631e4fbdf760e01b815260006004820152602401610891565b610f66816111a8565b50565b610f7161109b565b6001600160a01b03166000908152600d60205260409020805460ff19166001179055565b610f9d61109b565b600c8190556040518181527fb7067ae98a5e0e5f401384494b84792febeff300d8c2dcd70c8791864b660d31906020015b60405180910390a150565b6001600160a01b0381166000908152600e602090815260409182902080548351818402810184019094528084526060939283018282801561103957602002820191906000526020600020905b815481526020019060010190808311611025575b50505050509050919050565b61104d61109b565b600b80546001600160a01b0319166001600160a01b0383169081179091556040519081527fbab52938cbedceb0eba94b30c339161daf767da26666f71d84df91d884b4fd9f90602001610fce565b6006546001600160a01b031633146109aa5760405163118cdaa760e01b8152336004820152602401610891565b6000818152600260205260408120546001600160a01b03168061071757604051637e27328960e01b815260048101849052602401610891565b61091683838360016117de565b60008061111c8585856118e4565b90506001600160a01b0381161561114f576001600160a01b0381166000908152600e6020526040902061114f908561154a565b6001600160a01b0385161580159061116f57506001600160a01b03811615155b156111a0576001600160a01b0385166000908152600e60209081526040822080546001810182559083529120018490555b949350505050565b600680546001600160a01b038381166001600160a01b0319831681179093556040519116919082907f8be0079c531659141344cd1fd0a4f28419497f9722a3daafe3b4186f6b6457e090600090a35050565b6001600160a01b03821661122c57604051630b61174360e31b81526001600160a01b0383166004820152602401610891565b6001600160a01b03838116600081815260056020908152604080832094871680845294825291829020805460ff191686151590811790915591519182527f17307eab39ab6107e8899845ad3d59bd9653f200f220920489ca2b5937696c319101610c91565b600a546000906001600160a01b0316158015906113175750600a5460405163304fa5e160e01b81526001600160a01b0384811660048301529091169063304fa5e190602401602060405180830381865afa1580156112f3573d6000803e3d6000fd5b505050506040513d601f19601f820116820180604052508101906113179190612001565b1561138a57600a54604051635430609b60e11b81526001600160a01b0384811660048301529091169063a860c13690602401602060405180830381865afa158015611366573d6000803e3d6000fd5b505050506040513d601f19601f82011682018060405250810190610717919061201e565b5090565b6001600160a01b0383163b156108f557604051630a85bd0160e11b81526001600160a01b0384169063150b7a02906113d090339088908790879060040161203b565b6020604051808303816000875af192505050801561140b575060408051601f3d908101601f1916820190925261140891810190612078565b60015b611474573d808015611439576040519150601f19603f3d011682016040523d82523d6000602084013e61143e565b606091505b50805160000361146c57604051633250574960e11b81526001600160a01b0385166004820152602401610891565b805181602001fd5b6001600160e01b03198116630a85bd0160e11b146114b057604051633250574960e11b81526001600160a01b0385166004820152602401610891565b5050505050565b606060006114c4836119dd565b600101905060008167ffffffffffffffff8111156114e4576114e4611d11565b6040519080825280601f01601f19166020018201604052801561150e576020820181803683370190505b5090508181016020015b600019016f181899199a1a9b1b9c1cb0b131b232b360811b600a86061a8153600a850494508461151857509392505050565b60005b8254811015610916578183828154811061156957611569612095565b9060005260206000200154036115ef578254839061158990600190611fd5565b8154811061159957611599612095565b90600052602060002001548382815481106115b6576115b6612095565b9060005260206000200181905550828054806115d4576115d46120ab565b60019003818190600052602060002001600090559055505050565b60010161154d565b60026007540361161a57604051633ee5aeb560e01b815260040160405180910390fd5b6002600755565b600954604051630312d49360e21b81526001600160a01b0383811660048301526000921690630c4b524c90602401600060405180830381865afa15801561166c573d6000803e3d6000fd5b505050506040513d6000823e601f3d908101601f191682016040526116949190810190611ec8565b9050600a815110156116e05760405162461bcd60e51b81526020600482015260156024820152744e6f7420656e6f7567682068616d6275726765727360581b6044820152606401610891565b60005b600a8110156109165760095482516001600160a01b039091169063cf2d2cd69084908490811061171557611715612095565b60200260200101516040518263ffffffff1660e01b815260040161173b91815260200190565b600060405180830381600087803b15801561175557600080fd5b505af1158015611769573d6000803e3d6000fd5b5050600190920191506116e39050565b6001600160a01b0382166117a357604051633250574960e11b815260006004820152602401610891565b60006117b18383600061110e565b90506001600160a01b03811615610916576040516339e3563760e11b815260006004820152602401610891565b80806117f257506001600160a01b03821615155b156118b4576000611802846110c8565b90506001600160a01b0383161580159061182e5750826001600160a01b0316816001600160a01b031614155b8015611841575061183f8184610efd565b155b1561186a5760405163a9fbf51f60e01b81526001600160a01b0384166004820152602401610891565b81156118b25783856001600160a01b0316826001600160a01b03167f8c5be1e5ebec7d5bd14f71427d1e84f3dd0314c0f7b2291e5b200ac8c7c3b92560405160405180910390a45b505b5050600090815260046020526040902080546001600160a01b0319166001600160a01b0392909216919091179055565b6000828152600260205260408120546001600160a01b039081169083161561191157611911818486611ab5565b6001600160a01b0381161561194f5761192e6000856000806117de565b6001600160a01b038116600090815260036020526040902080546000190190555b6001600160a01b0385161561197e576001600160a01b0385166000908152600360205260409020805460010190555b60008481526002602052604080822080546001600160a01b0319166001600160a01b0389811691821790925591518793918516917fddf252ad1be2c89b69c2b068fc378daa952ba7f163c4a11628f55a4df523b3ef91a4949350505050565b60008072184f03e93ff9f4daa797ed6e38ed64bf6a1f0160401b8310611a1c5772184f03e93ff9f4daa797ed6e38ed64bf6a1f0160401b830492506040015b6d04ee2d6d415b85acef81000000008310611a48576d04ee2d6d415b85acef8100000000830492506020015b662386f26fc100008310611a6657662386f26fc10000830492506010015b6305f5e1008310611a7e576305f5e100830492506008015b6127108310611a9257612710830492506004015b60648310611aa4576064830492506002015b600a83106107175760010192915050565b611ac0838383611b19565b610916576001600160a01b038316611aee57604051637e27328960e01b815260048101829052602401610891565b60405163177e802f60e01b81526001600160a01b038316600482015260248101829052604401610891565b60006001600160a01b038316158015906111a05750826001600160a01b0316846001600160a01b03161480611b535750611b538484610efd565b806111a05750506000908152600460205260409020546001600160a01b03908116911614919050565b6001600160e01b031981168114610f6657600080fd5b600060208284031215611ba457600080fd5b8135610af081611b7c565b6001600160a01b0381168114610f6657600080fd5b600060208284031215611bd657600080fd5b8135610af081611baf565b60005b83811015611bfc578181015183820152602001611be4565b50506000910152565b60008151808452611c1d816020860160208601611be1565b601f01601f19169290920160200192915050565b602081526000610af06020830184611c05565b600060208284031215611c5657600080fd5b5035919050565b60008060408385031215611c7057600080fd5b8235611c7b81611baf565b946020939093013593505050565b600080600060608486031215611c9e57600080fd5b8335611ca981611baf565b92506020840135611cb981611baf565b929592945050506040919091013590565b8015158114610f6657600080fd5b60008060408385031215611ceb57600080fd5b8235611cf681611baf565b91506020830135611d0681611cca565b809150509250929050565b634e487b7160e01b600052604160045260246000fd5b604051601f8201601f1916810167ffffffffffffffff81118282101715611d5057611d50611d11565b604052919050565b60008060008060808587031215611d6e57600080fd5b8435611d7981611baf565b9350602085810135611d8a81611baf565b935060408601359250606086013567ffffffffffffffff80821115611dae57600080fd5b818801915088601f830112611dc257600080fd5b813581811115611dd457611dd4611d11565b611de6601f8201601f19168501611d27565b91508082528984828501011115611dfc57600080fd5b808484018584013760008482840101525080935050505092959194509250565b60008060408385031215611e2f57600080fd5b8235611e3a81611baf565b91506020830135611d0681611baf565b6020808252825182820181905260009190848201906040850190845b81811015611e8257835183529284019291840191600101611e66565b50909695505050505050565b600181811c90821680611ea257607f821691505b602082108103611ec257634e487b7160e01b600052602260045260246000fd5b50919050565b60006020808385031215611edb57600080fd5b825167ffffffffffffffff80821115611ef357600080fd5b818501915085601f830112611f0757600080fd5b815181811115611f1957611f19611d11565b8060051b9150611f2a848301611d27565b8181529183018401918481019088841115611f4457600080fd5b938501935b83851015611f6257845182529385019390850190611f49565b98975050505050505050565b634e487b7160e01b600052601160045260246000fd5b600082611fa157634e487b7160e01b600052601260045260246000fd5b500490565b60008351611fb8818460208801611be1565b835190830190611fcc818360208801611be1565b01949350505050565b8181038181111561071757610717611f6e565b600060018201611ffa57611ffa611f6e565b5060010190565b60006020828403121561201357600080fd5b8151610af081611cca565b60006020828403121561203057600080fd5b8151610af081611baf565b6001600160a01b038581168252841660208201526040810183905260806060820181905260009061206e90830184611c05565b9695505050505050565b60006020828403121561208a57600080fd5b8151610af081611b7c565b634e487b7160e01b600052603260045260246000fd5b634e487b7160e01b600052603160045260246000fdfea2646970667358221220021c43a6829591df54273b48ac3d4718f7cef8d31a30252f8f55870767f079fa64736f6c63430008170033",
  "devdoc": {
    "errors": {
      "ERC721IncorrectOwner(address,uint256,address)": [
        {
          "details": "Indicates an error related to the ownership over a particular token. Used in transfers.",
          "params": {
            "owner": "Address of the current owner of a token.",
            "sender": "Address whose tokens are being transferred.",
            "tokenId": "Identifier number of a token."
          }
        }
      ],
      "ERC721InsufficientApproval(address,uint256)": [
        {
          "details": "Indicates a failure with the `operator`s approval. Used in transfers.",
          "params": {
            "operator": "Address that may be allowed to operate on tokens without being their owner.",
            "tokenId": "Identifier number of a token."
          }
        }
      ],
      "ERC721InvalidApprover(address)": [
        {
          "details": "Indicates a failure with the `approver` of a token to be approved. Used in approvals.",
          "params": {
            "approver": "Address initiating an approval operation."
          }
        }
      ],
      "ERC721InvalidOperator(address)": [
        {
          "details": "Indicates a failure with the `operator` to be approved. Used in approvals.",
          "params": {
            "operator": "Address that may be allowed to operate on tokens without being their owner."
          }
        }
      ],
      "ERC721InvalidOwner(address)": [
        {
          "details": "Indicates that an address can't be an owner. For example, `address(0)` is a forbidden owner in EIP-20. Used in balance queries.",
          "params": {
            "owner": "Address of the current owner of a token."
          }
        }
      ],
      "ERC721InvalidReceiver(address)": [
        {
          "details": "Indicates a failure with the token `receiver`. Used in transfers.",
          "params": {
            "receiver": "Address to which tokens are being transferred."
          }
        }
      ],
      "ERC721InvalidSender(address)": [
        {
          "details": "Indicates a failure with the token `sender`. Used in transfers.",
          "params": {
            "sender": "Address whose tokens are being transferred."
          }
        }
      ],
      "ERC721NonexistentToken(uint256)": [
        {
          "details": "Indicates a `tokenId` whose `owner` is the zero address.",
          "params": {
            "tokenId": "Identifier number of a token."
          }
        }
      ],
      "OwnableInvalidOwner(address)": [
        {
          "details": "The owner is not a valid owner account. (eg. `address(0)`)"
        }
      ],
      "OwnableUnauthorizedAccount(address)": [
        {
          "details": "The caller account is not authorized to perform an operation."
        }
      ],
      "ReentrancyGuardReentrantCall()": [
        {
          "details": "Unauthorized reentrant call."
        }
      ]
    },
    "events": {
      "Approval(address,address,uint256)": {
        "details": "Emitted when `owner` enables `approved` to manage the `tokenId` token."
      },
      "ApprovalForAll(address,address,bool)": {
        "details": "Emitted when `owner` enables or disables (`approved`) `operator` to manage all of its assets."
      },
      "Transfer(address,address,uint256)": {
        "details": "Emitted when `tokenId` token is transferred from `from` to `to`."
      }
    },
    "kind": "dev",
    "methods": {
      "approve(address,uint256)": {
        "details": "See {IERC721-approve}."
      },
      "balanceOf(address)": {
        "details": "See {IERC721-balanceOf}."
      },
      "boxBalance(address)": {
        "params": {
          "tba": "TBA address"
        },
        "returns": {
          "_0": "Array of box token IDs"
        }
      },
      "canMint(address)": {
        "params": {
          "tba": "TBA address"
        },
        "returns": {
          "_0": "Jumlah box yang bisa di-mint"
        }
      },
      "getApproved(uint256)": {
        "details": "See {IERC721-getApproved}."
      },
      "getMintCost()": {
        "returns": {
          "ethCost": "ETH cost per box"
        }
      },
      "hasEnoughHamburgers(address)": {
        "params": {
          "tba": "Address TBA yang dicek"
        },
        "returns": {
          "_0": "true jika punya >= 10 hamburger"
        }
      },
      "isApprovedForAll(address,address)": {
        "details": "See {IERC721-isApprovedForAll}."
      },
      "mintBox()": {
        "details": "Cek 10 hamburger di TBA, burn, lalu mint box",
        "returns": {
          "_0": "tokenId yang di-mint"
        }
      },
      "name()": {
        "details": "See {IERC721Metadata-name}."
      },
      "owner()": {
        "details": "Returns the address of the current owner."
      },
      "ownerOf(uint256)": {
        "details": "See {IERC721-ownerOf}."
      },
      "renounceOwnership()": {
        "details": "Leaves the contract without owner. It will not be possible to call `onlyOwner` functions. Can only be called by the current owner. NOTE: Renouncing ownership will leave the contract without an owner, thereby disabling any functionality that is only available to the owner."
      },
      "safeTransferFrom(address,address,uint256)": {
        "details": "See {IERC721-safeTransferFrom}."
      },
      "safeTransferFrom(address,address,uint256,bytes)": {
        "details": "See {IERC721-safeTransferFrom}."
      },
      "setApprovalForAll(address,bool)": {
        "details": "See {IERC721-setApprovalForAll}."
      },
      "supportsInterface(bytes4)": {
        "details": "See {IERC165-supportsInterface}."
      },
      "symbol()": {
        "details": "See {IERC721Metadata-symbol}."
      },
      "tokenURI(uint256)": {
        "details": "See {IERC721Metadata-tokenURI}."
      },
      "transferFrom(address,address,uint256)": {
        "details": "See {IERC721-transferFrom}."
      },
      "transferOwnership(address)": {
        "details": "Transfers ownership of the contract to a new account (`newOwner`). Can only be called by the current owner."
      }
    },
    "version": 1
  },
  "userdoc": {
    "kind": "user",
    "methods": {
      "addBurner(address)": {
        "notice": "Add burner"
      },
      "boxBalance(address)": {
        "notice": "Get TBA's box balance"
      },
      "burnBox(uint256)": {
        "notice": "Burn box by token ID"
      },
      "canMint(address)": {
        "notice": "Check berapa box yang bisa di-mint dari TBA"
      },
      "getBoxPrice()": {
        "notice": "Get current box price"
      },
      "getMintCost()": {
        "notice": "Get total cost untuk mint"
      },
      "getTBA(address)": {
        "notice": "Get user's TBA address"
      },
      "hasEnoughHamburgers(address)": {
        "notice": "Cek apakah TBA punya minimal 10 hamburger"
      },
      "mintBox()": {
        "notice": "Mint satu box dengan memburn 10 hamburger"
      },
      "removeBurner(address)": {
        "notice": "Remove burner"
      },
      "setBoxPrice(uint256)": {
        "notice": "Set box price"
      },
      "setFoodNFT(address)": {
        "notice": "Set food NFT contract"
      },
      "setFoodScramble(address)": {
        "notice": "Set food scramble contract"
      },
      "setPaymentGateway(address)": {
        "notice": "Set payment gateway"
      },
      "total()": {
        "notice": "Get total supply"
      }
    },
    "version": 1
  },
  "storageLayout": {
    "storage": [
      {
        "astId": 3172,
        "contract": "contracts/SpecialBox.sol:SpecialBox",
        "label": "_name",
        "offset": 0,
        "slot": "0",
        "type": "t_string_storage"
      },
      {
        "astId": 3174,
        "contract": "contracts/SpecialBox.sol:SpecialBox",
        "label": "_symbol",
        "offset": 0,
        "slot": "1",
        "type": "t_string_storage"
      },
      {
        "astId": 3178,
        "contract": "contracts/SpecialBox.sol:SpecialBox",
        "label": "_owners",
        "offset": 0,
        "slot": "2",
        "type": "t_mapping(t_uint256,t_address)"
      },
      {
        "astId": 3182,
        "contract": "contracts/SpecialBox.sol:SpecialBox",
        "label": "_balances",
        "offset": 0,
        "slot": "3",
        "type": "t_mapping(t_address,t_uint256)"
      },
      {
        "astId": 3186,
        "contract": "contracts/SpecialBox.sol:SpecialBox",
        "label": "_tokenApprovals",
        "offset": 0,
        "slot": "4",
        "type": "t_mapping(t_uint256,t_address)"
      },
      {
        "astId": 3192,
        "contract": "contracts/SpecialBox.sol:SpecialBox",
        "label": "_operatorApprovals",
        "offset": 0,
        "slot": "5",
        "type": "t_mapping(t_address,t_mapping(t_address,t_bool))"
      },
      {
        "astId": 387,
        "contract": "contracts/SpecialBox.sol:SpecialBox",
        "label": "_owner",
        "offset": 0,
        "slot": "6",
        "type": "t_address"
      },
      {
        "astId": 5134,
        "contract": "contracts/SpecialBox.sol:SpecialBox",
        "label": "_status",
        "offset": 0,
        "slot": "7",
        "type": "t_uint256"
      },
      {
        "astId": 15301,
        "contract": "contracts/SpecialBox.sol:SpecialBox",
        "label": "_tokenIds",
        "offset": 0,
        "slot": "8",
        "type": "t_uint256"
      },
      {
        "astId": 15304,
        "contract": "contracts/SpecialBox.sol:SpecialBox",
        "label": "foodNFT",
        "offset": 0,
        "slot": "9",
        "type": "t_contract(IFoodNFT)15274"
      },
      {
        "astId": 15307,
        "contract": "contracts/SpecialBox.sol:SpecialBox",
        "label": "foodScramble",
        "offset": 0,
        "slot": "10",
        "type": "t_contract(IFoodScramble)15289"
      },
      {
        "astId": 15310,
        "contract": "contracts/SpecialBox.sol:SpecialBox",
        "label": "paymentGateway",
        "offset": 0,
        "slot": "11",
        "type": "t_contract(IPaymentGateway)15293"
      },
      {
        "astId": 15316,
        "contract": "contracts/SpecialBox.sol:SpecialBox",
        "label": "boxPrice",
        "offset": 0,
        "slot": "12",
        "type": "t_uint256"
      },
      {
        "astId": 15320,
        "contract": "contracts/SpecialBox.sol:SpecialBox",
        "label": "burners",
        "offset": 0,
        "slot": "13",
        "type": "t_mapping(t_address,t_bool)"
      },
      {
        "astId": 15325,
        "contract": "contracts/SpecialBox.sol:SpecialBox",
        "label": "boxes",
        "offset": 0,
        "slot": "14",
        "type": "t_mapping(t_address,t_array(t_uint256)dyn_storage)"
      }
    ],
    "types": {
      "t_address": {
        "encoding": "inplace",
        "label": "address",
        "numberOfBytes": "20"
      },
      "t_array(t_uint256)dyn_storage": {
        "base": "t_uint256",
        "encoding": "dynamic_array",
        "label": "uint256[]",
        "numberOfBytes": "32"
      },
      "t_bool": {
        "encoding": "inplace",
        "label": "bool",
        "numberOfBytes": "1"
      },
      "t_contract(IFoodNFT)15274": {
        "encoding": "inplace",
        "label": "contract IFoodNFT",
        "numberOfBytes": "20"
      },
      "t_contract(IFoodScramble)15289": {
        "encoding": "inplace",
        "label": "contract IFoodScramble",
        "numberOfBytes": "20"
      },
      "t_contract(IPaymentGateway)15293": {
        "encoding": "inplace",
        "label": "contract IPaymentGateway",
        "numberOfBytes": "20"
      },
      "t_mapping(t_address,t_array(t_uint256)dyn_storage)": {
        "encoding": "mapping",
        "key": "t_address",
        "label": "mapping(address => uint256[])",
        "numberOfBytes": "32",
        "value": "t_array(t_uint256)dyn_storage"
      },
      "t_mapping(t_address,t_bool)": {
        "encoding": "mapping",
        "key": "t_address",
        "label": "mapping(address => bool)",
        "numberOfBytes": "32",
        "value": "t_bool"
      },
      "t_mapping(t_address,t_mapping(t_address,t_bool))": {
        "encoding": "mapping",
        "key": "t_address",
        "label": "mapping(address => mapping(address => bool))",
        "numberOfBytes": "32",
        "value": "t_mapping(t_address,t_bool)"
      },
      "t_mapping(t_address,t_uint256)": {
        "encoding": "mapping",
        "key": "t_address",
        "label": "mapping(address => uint256)",
        "numberOfBytes": "32",
        "value": "t_uint256"
      },
      "t_mapping(t_uint256,t_address)": {
        "encoding": "mapping",
        "key": "t_uint256",
        "label": "mapping(uint256 => address)",
        "numberOfBytes": "32",
        "value": "t_address"
      },
      "t_string_storage": {
        "encoding": "bytes",
        "label": "string",
        "numberOfBytes": "32"
      },
      "t_uint256": {
        "encoding": "inplace",
        "label": "uint256",
        "numberOfBytes": "32"
      }
    }
  }
}