{
  "address": "0xbd813486C96b3E75720dAD05B683041dc6c86Fa9",
  "abi": [
    {
      "inputs": [
        {
          "internalType": "address",
          "name": "initialOwner",
          "type": "address"
        }
      ],
      "stateMutability": "nonpayable",
      "type": "constructor"
    },
    {
      "inputs": [
        {
          "internalType": "address",
          "name": "owner",
          "type": "address"
        }
      ],
      "name": "OwnableInvalidOwner",
      "type": "error"
    },
    {
      "inputs": [
        {
          "internalType": "address",
          "name": "account",
          "type": "address"
        }
      ],
      "name": "OwnableUnauthorizedAccount",
      "type": "error"
    },
    {
      "anonymous": false,
      "inputs": [
        {
          "indexed": true,
          "internalType": "address",
          "name": "previousOwner",
          "type": "address"
        },
        {
          "indexed": true,
          "internalType": "address",
          "name": "newOwner",
          "type": "address"
        }
      ],
      "name": "OwnershipTransferred",
      "type": "event"
    },
    {
      "anonymous": false,
      "inputs": [
        {
          "indexed": true,
          "internalType": "bytes32",
          "name": "delegationHash",
          "type": "bytes32"
        },
        {
          "indexed": false,
          "internalType": "address",
          "name": "token",
          "type": "address"
        },
        {
          "indexed": false,
          "internalType": "uint256",
          "name": "maxAmount",
          "type": "uint256"
        },
        {
          "indexed": false,
          "internalType": "uint256",
          "name": "validUntil",
          "type": "uint256"
        }
      ],
      "name": "SpendingLimitSet",
      "type": "event"
    },
    {
      "anonymous": false,
      "inputs": [
        {
          "indexed": true,
          "internalType": "bytes32",
          "name": "delegationHash",
          "type": "bytes32"
        },
        {
          "indexed": false,
          "internalType": "address",
          "name": "target",
          "type": "address"
        }
      ],
      "name": "TargetAllowed",
      "type": "event"
    },
    {
      "anonymous": false,
      "inputs": [
        {
          "indexed": true,
          "internalType": "bytes32",
          "name": "delegationHash",
          "type": "bytes32"
        },
        {
          "indexed": false,
          "internalType": "uint256",
          "name": "validUntil",
          "type": "uint256"
        }
      ],
      "name": "TimeLimitSet",
      "type": "event"
    },
    {
      "inputs": [
        {
          "internalType": "bytes",
          "name": "terms",
          "type": "bytes"
        },
        {
          "internalType": "bytes",
          "name": "",
          "type": "bytes"
        },
        {
          "internalType": "uint256",
          "name": "",
          "type": "uint256"
        },
        {
          "internalType": "bytes",
          "name": "executionCalldata",
          "type": "bytes"
        },
        {
          "internalType": "bytes32",
          "name": "delegationHash",
          "type": "bytes32"
        }
      ],
      "name": "afterHook",
      "outputs": [],
      "stateMutability": "nonpayable",
      "type": "function"
    },
    {
      "inputs": [
        {
          "internalType": "bytes32",
          "name": "",
          "type": "bytes32"
        }
      ],
      "name": "allowedTargets",
      "outputs": [
        {
          "internalType": "bool",
          "name": "",
          "type": "bool"
        }
      ],
      "stateMutability": "view",
      "type": "function"
    },
    {
      "inputs": [
        {
          "internalType": "bytes",
          "name": "terms",
          "type": "bytes"
        },
        {
          "internalType": "bytes",
          "name": "",
          "type": "bytes"
        },
        {
          "internalType": "uint256",
          "name": "",
          "type": "uint256"
        },
        {
          "internalType": "bytes",
          "name": "executionCalldata",
          "type": "bytes"
        },
        {
          "internalType": "bytes32",
          "name": "delegationHash",
          "type": "bytes32"
        }
      ],
      "name": "beforeHook",
      "outputs": [],
      "stateMutability": "view",
      "type": "function"
    },
    {
      "inputs": [],
      "name": "owner",
      "outputs": [
        {
          "internalType": "address",
          "name": "",
          "type": "address"
        }
      ],
      "stateMutability": "view",
      "type": "function"
    },
    {
      "inputs": [],
      "name": "renounceOwnership",
      "outputs": [],
      "stateMutability": "nonpayable",
      "type": "function"
    },
    {
      "inputs": [
        {
          "internalType": "bytes32",
          "name": "delegationHash",
          "type": "bytes32"
        },
        {
          "internalType": "address",
          "name": "target",
          "type": "address"
        }
      ],
      "name": "setAllowedTarget",
      "outputs": [],
      "stateMutability": "nonpayable",
      "type": "function"
    },
    {
      "inputs": [
        {
          "internalType": "bytes32",
          "name": "delegationHash",
          "type": "bytes32"
        },
        {
          "internalType": "address",
          "name": "token",
          "type": "address"
        },
        {
          "internalType": "uint256",
          "name": "maxAmount",
          "type": "uint256"
        },
        {
          "internalType": "uint256",
          "name": "validUntilTime",
          "type": "uint256"
        }
      ],
      "name": "setSpendingLimit",
      "outputs": [],
      "stateMutability": "nonpayable",
      "type": "function"
    },
    {
      "inputs": [
        {
          "internalType": "bytes32",
          "name": "delegationHash",
          "type": "bytes32"
        },
        {
          "internalType": "uint256",
          "name": "validUntilTime",
          "type": "uint256"
        }
      ],
      "name": "setTimeLimit",
      "outputs": [],
      "stateMutability": "nonpayable",
      "type": "function"
    },
    {
      "inputs": [
        {
          "internalType": "bytes32",
          "name": "",
          "type": "bytes32"
        }
      ],
      "name": "spendingLimits",
      "outputs": [
        {
          "internalType": "address",
          "name": "token",
          "type": "address"
        },
        {
          "internalType": "uint256",
          "name": "maxAmount",
          "type": "uint256"
        },
        {
          "internalType": "uint256",
          "name": "spentAmount",
          "type": "uint256"
        },
        {
          "internalType": "uint256",
          "name": "validUntil",
          "type": "uint256"
        }
      ],
      "stateMutability": "view",
      "type": "function"
    },
    {
      "inputs": [
        {
          "internalType": "address",
          "name": "newOwner",
          "type": "address"
        }
      ],
      "name": "transferOwnership",
      "outputs": [],
      "stateMutability": "nonpayable",
      "type": "function"
    },
    {
      "inputs": [
        {
          "internalType": "bytes32",
          "name": "",
          "type": "bytes32"
        }
      ],
      "name": "validUntil",
      "outputs": [
        {
          "internalType": "uint256",
          "name": "",
          "type": "uint256"
        }
      ],
      "stateMutability": "view",
      "type": "function"
    }
  ],
  "transactionHash": "0xfc7395131e364ad3589b3d73f68e7d2b29cf6ac57ced0ad1ed9127390d814f14",
  "args": [
    "0x9bF68A0f0be9A9B6dCeb4D5675745c2f7cFb9483"
  ],
  "numDeployments": 1,
  "solcInputHash": "d2bfb95f4d103a4e67fb06a6293fdeaa",
  "bytecode": "0x608060405234801561001057600080fd5b50604051610ecb380380610ecb83398101604081905261002f916100be565b806001600160a01b03811661005e57604051631e4fbdf760e01b81526000600482015260240160405180910390fd5b6100678161006e565b50506100ee565b600080546001600160a01b038381166001600160a01b0319831681178455604051919092169283917f8be0079c531659141344cd1fd0a4f28419497f9722a3daafe3b4186f6b6457e09190a35050565b6000602082840312156100d057600080fd5b81516001600160a01b03811681146100e757600080fd5b9392505050565b610dce806100fd6000396000f3fe608060405234801561001057600080fd5b50600436106100a95760003560e01c80639e8b9525116100715780639e8b952514610131578063a2a2d30814610144578063a304543f146101b0578063cd666297146101c3578063d53fcbec146101d6578063f2fde38b1461020457600080fd5b80632a0aabfc146100ae57806339796955146100e65780636b594ccd146100fb578063715018a61461010e5780638da5cb5b14610116575b600080fd5b6100d16100bc36600461095f565b60026020526000908152604090205460ff1681565b60405190151581526020015b60405180910390f35b6100f96100f43660046109c1565b610217565b005b6100f9610109366004610a81565b61034c565b6100f96103fe565b6000546040516001600160a01b0390911681526020016100dd565b6100f961013f3660046109c1565b610412565b61018661015236600461095f565b600160208190526000918252604090912080549181015460028201546003909201546001600160a01b039093169290919084565b604080516001600160a01b03909516855260208501939093529183015260608201526080016100dd565b6100f96101be366004610ab1565b610483565b6100f96101d1366004610ad3565b6104d0565b6101f66101e436600461095f565b60036020526000908152604090205481565b6040519081526020016100dd565b6100f9610212366004610b10565b610588565b600080610226898b018b610bd3565b60408051808201909152600d81526c1cdc195b991a5b99d31a5b5a5d609a1b60209182015282519083012091935091507f1ebb2c3c329772f0bf9016cb7b6e0fc6cd884fa3d60a986ea3f882434596af2b0161028b5761028681846105cb565b610340565b60408051808201909152600e81526d616c6c6f7765645461726765747360901b6020918201528251908301207f14d1cc92269128a7f462c427b6c4761966d55eb0441ee724daf313672e8ab53c016102e95761028681848787610729565b6040805180820190915260098152681d1a5b59531a5b5a5d60ba1b6020918201528251908301207f1cd78c64331fe88a151d2a352952c7b81c81885722ee6bdce6e217ff32be5bdb01610340576103408184610833565b50505050505050505050565b610354610895565b600160026000848460405160200161038892919091825260601b6bffffffffffffffffffffffff1916602082015260340190565b60408051808303601f190181529181528151602092830120835282820193909352908201600020805460ff191693151593909317909255516001600160a01b038316815283917f9841b8f666499655a4c2056ccf86dc0ec2e948a7b6a69fd380a50113bc2aedac91015b60405180910390a25050565b610406610895565b61041060006108c2565b565b600080610421898b018b610bd3565b60408051808201909152600d81526c1cdc195b991a5b99d31a5b5a5d609a1b60209182015282519083012091935091507f1ebb2c3c329772f0bf9016cb7b6e0fc6cd884fa3d60a986ea3f882434596af2b016103405761034081848787610912565b61048b610895565b600082815260036020526040908190208290555182907f59ab0ada8e461df8a5b8cf1ae5ee6c0a0a122358a516ee7408a9797089d6a157906103f29084815260200190565b6104d8610895565b604080516080810182526001600160a01b038581168083526020808401878152600085870181815260608088018a81528d84526001808752938a9020985189546001600160a01b03191698169790971788559251918701919091555160028601559251600390940193909355835190815291820185905291810183905285917f771eee540acff3c18d8bcd58b1fef44dcacf641804ec85270ee99711028b51a5910160405180910390a250505050565b610590610895565b6001600160a01b0381166105bf57604051631e4fbdf760e01b8152600060048201526024015b60405180910390fd5b6105c8816108c2565b50565b600080838060200190518101906105e29190610c62565b600085815260016020818152604092839020835160808101855281546001600160a01b039081168083529483015493820193909352600282015494810194909452600301546060840152939550919350918416146106735760405162461bcd60e51b815260206004820152600e60248201526d0a8ded6cadc40dad2e6dac2e8c6d60931b60448201526064016105b6565b428160600151116106bf5760405162461bcd60e51b815260206004820152601660248201527514dc195b991a5b99c81b1a5b5a5d08195e1c1a5c995960521b60448201526064016105b6565b80602001518282604001516106d49190610c90565b11156107225760405162461bcd60e51b815260206004820152601760248201527f5370656e64696e67206c696d697420657863656564656400000000000000000060448201526064016105b6565b5050505050565b60008480602001905181019061073f9190610cb7565b905060148210156107925760405162461bcd60e51b815260206004820152601760248201527f496e76616c69642063616c6c64617461206c656e67746800000000000000000060448201526064016105b6565b823560601c6000805b83518110156107e757826001600160a01b03168482815181106107c0576107c0610d69565b60200260200101516001600160a01b0316036107df57600191506107e7565b60010161079b565b508061082a5760405162461bcd60e51b815260206004820152601260248201527115185c99d95d081b9bdd08185b1b1bddd95960721b60448201526064016105b6565b50505050505050565b6000828060200190518101906108499190610d7f565b9050804211156108905760405162461bcd60e51b815260206004820152601260248201527111195b1959d85d1a5bdb88195e1c1a5c995960721b60448201526064016105b6565b505050565b6000546001600160a01b031633146104105760405163118cdaa760e01b81523360048201526024016105b6565b600080546001600160a01b038381166001600160a01b0319831681178455604051919092169283917f8be0079c531659141344cd1fd0a4f28419497f9722a3daafe3b4186f6b6457e09190a35050565b6000848060200190518101906109289190610c62565b60008681526001602052604081206002810180549395509093508492909190610952908490610c90565b9091555050505050505050565b60006020828403121561097157600080fd5b5035919050565b60008083601f84011261098a57600080fd5b50813567ffffffffffffffff8111156109a257600080fd5b6020830191508360208285010111156109ba57600080fd5b9250929050565b60008060008060008060008060a0898b0312156109dd57600080fd5b883567ffffffffffffffff808211156109f557600080fd5b610a018c838d01610978565b909a50985060208b0135915080821115610a1a57600080fd5b610a268c838d01610978565b909850965060408b0135955060608b0135915080821115610a4657600080fd5b50610a538b828c01610978565b999c989b50969995989497949560800135949350505050565b6001600160a01b03811681146105c857600080fd5b60008060408385031215610a9457600080fd5b823591506020830135610aa681610a6c565b809150509250929050565b60008060408385031215610ac457600080fd5b50508035926020909101359150565b60008060008060808587031215610ae957600080fd5b843593506020850135610afb81610a6c565b93969395505050506040820135916060013590565b600060208284031215610b2257600080fd5b8135610b2d81610a6c565b9392505050565b634e487b7160e01b600052604160045260246000fd5b604051601f8201601f1916810167ffffffffffffffff81118282101715610b7357610b73610b34565b604052919050565b600067ffffffffffffffff831115610b9557610b95610b34565b610ba8601f8401601f1916602001610b4a565b9050828152838383011115610bbc57600080fd5b828260208301376000602084830101529392505050565b60008060408385031215610be657600080fd5b823567ffffffffffffffff80821115610bfe57600080fd5b818501915085601f830112610c1257600080fd5b610c2186833560208501610b7b565b93506020850135915080821115610c3757600080fd5b508301601f81018513610c4957600080fd5b610c5885823560208401610b7b565b9150509250929050565b60008060408385031215610c7557600080fd5b8251610c8081610a6c565b6020939093015192949293505050565b80820180821115610cb157634e487b7160e01b600052601160045260246000fd5b92915050565b60006020808385031215610cca57600080fd5b825167ffffffffffffffff80821115610ce257600080fd5b818501915085601f830112610cf657600080fd5b815181811115610d0857610d08610b34565b8060051b9150610d19848301610b4a565b8181529183018401918481019088841115610d3357600080fd5b938501935b83851015610d5d5784519250610d4d83610a6c565b8282529385019390850190610d38565b98975050505050505050565b634e487b7160e01b600052603260045260246000fd5b600060208284031215610d9157600080fd5b505191905056fea264697066735822122047e8cab5dd36f9d2d5694fa9e5bd0385813683568defabfed3e4ebf1e09d074c64736f6c63430008170033",
  "devdoc": {
    "details": "Basic implementation of ICaveatEnforcer for delegation restrictions This is a simplified version - in production you'd use the official MetaMask caveat enforcers",
    "errors": {
      "OwnableInvalidOwner(address)": [
        {
          "details": "The owner is not a valid owner account. (eg. `address(0)`)"
        }
      ],
      "OwnableUnauthorizedAccount(address)": [
        {
          "details": "The caller account is not authorized to perform an operation."
        }
      ]
    },
    "kind": "dev",
    "methods": {
      "afterHook(bytes,bytes,uint256,bytes,bytes32)": {
        "details": "Enforces conditions after execution"
      },
      "beforeHook(bytes,bytes,uint256,bytes,bytes32)": {
        "details": "Enforces conditions before execution"
      },
      "owner()": {
        "details": "Returns the address of the current owner."
      },
      "renounceOwnership()": {
        "details": "Leaves the contract without owner. It will not be possible to call `onlyOwner` functions. Can only be called by the current owner. NOTE: Renouncing ownership will leave the contract without an owner, thereby disabling any functionality that is only available to the owner."
      },
      "setAllowedTarget(bytes32,address)": {
        "details": "Sets allowed target for a delegation"
      },
      "setSpendingLimit(bytes32,address,uint256,uint256)": {
        "details": "Sets spending limit for a delegation"
      },
      "setTimeLimit(bytes32,uint256)": {
        "details": "Sets time limit for a delegation"
      },
      "transferOwnership(address)": {
        "details": "Transfers ownership of the contract to a new account (`newOwner`). Can only be called by the current owner."
      }
    },
    "title": "BasicCaveatEnforcer",
    "version": 1
  },
  "userdoc": {
    "kind": "user",
    "methods": {},
    "version": 1
  },
  "storageLayout": {
    "storage": [
      {
        "astId": 387,
        "contract": "contracts/CaveatEnforcer.sol:BasicCaveatEnforcer",
        "label": "_owner",
        "offset": 0,
        "slot": "0",
        "type": "t_address"
      },
      {
        "astId": 9533,
        "contract": "contracts/CaveatEnforcer.sol:BasicCaveatEnforcer",
        "label": "spendingLimits",
        "offset": 0,
        "slot": "1",
        "type": "t_mapping(t_bytes32,t_struct(SpendingLimit)9528_storage)"
      },
      {
        "astId": 9537,
        "contract": "contracts/CaveatEnforcer.sol:BasicCaveatEnforcer",
        "label": "allowedTargets",
        "offset": 0,
        "slot": "2",
        "type": "t_mapping(t_bytes32,t_bool)"
      },
      {
        "astId": 9541,
        "contract": "contracts/CaveatEnforcer.sol:BasicCaveatEnforcer",
        "label": "validUntil",
        "offset": 0,
        "slot": "3",
        "type": "t_mapping(t_bytes32,t_uint256)"
      }
    ],
    "types": {
      "t_address": {
        "encoding": "inplace",
        "label": "address",
        "numberOfBytes": "20"
      },
      "t_bool": {
        "encoding": "inplace",
        "label": "bool",
        "numberOfBytes": "1"
      },
      "t_bytes32": {
        "encoding": "inplace",
        "label": "bytes32",
        "numberOfBytes": "32"
      },
      "t_mapping(t_bytes32,t_bool)": {
        "encoding": "mapping",
        "key": "t_bytes32",
        "label": "mapping(bytes32 => bool)",
        "numberOfBytes": "32",
        "value": "t_bool"
      },
      "t_mapping(t_bytes32,t_struct(SpendingLimit)9528_storage)": {
        "encoding": "mapping",
        "key": "t_bytes32",
        "label": "mapping(bytes32 => struct BasicCaveatEnforcer.SpendingLimit)",
        "numberOfBytes": "32",
        "value": "t_struct(SpendingLimit)9528_storage"
      },
      "t_mapping(t_bytes32,t_uint256)": {
        "encoding": "mapping",
        "key": "t_bytes32",
        "label": "mapping(bytes32 => uint256)",
        "numberOfBytes": "32",
        "value": "t_uint256"
      },
      "t_struct(SpendingLimit)9528_storage": {
        "encoding": "inplace",
        "label": "struct BasicCaveatEnforcer.SpendingLimit",
        "members": [
          {
            "astId": 9521,
            "contract": "contracts/CaveatEnforcer.sol:BasicCaveatEnforcer",
            "label": "token",
            "offset": 0,
            "slot": "0",
            "type": "t_address"
          },
          {
            "astId": 9523,
            "contract": "contracts/CaveatEnforcer.sol:BasicCaveatEnforcer",
            "label": "maxAmount",
            "offset": 0,
            "slot": "1",
            "type": "t_uint256"
          },
          {
            "astId": 9525,
            "contract": "contracts/CaveatEnforcer.sol:BasicCaveatEnforcer",
            "label": "spentAmount",
            "offset": 0,
            "slot": "2",
            "type": "t_uint256"
          },
          {
            "astId": 9527,
            "contract": "contracts/CaveatEnforcer.sol:BasicCaveatEnforcer",
            "label": "validUntil",
            "offset": 0,
            "slot": "3",
            "type": "t_uint256"
          }
        ],
        "numberOfBytes": "128"
      },
      "t_uint256": {
        "encoding": "inplace",
        "label": "uint256",
        "numberOfBytes": "32"
      }
    }
  }
}