{
  "address": "0xAf9A5760AD420D8aA658bc3EF1B40B1a7eb57060",
  "abi": [
    {
      "inputs": [
        {
          "internalType": "address",
          "name": "_paymentGateway",
          "type": "address"
        }
      ],
      "stateMutability": "nonpayable",
      "type": "constructor"
    },
    {
      "inputs": [
        {
          "internalType": "address",
          "name": "sender",
          "type": "address"
        },
        {
          "internalType": "uint256",
          "name": "tokenId",
          "type": "uint256"
        },
        {
          "internalType": "address",
          "name": "owner",
          "type": "address"
        }
      ],
      "name": "ERC721IncorrectOwner",
      "type": "error"
    },
    {
      "inputs": [
        {
          "internalType": "address",
          "name": "operator",
          "type": "address"
        },
        {
          "internalType": "uint256",
          "name": "tokenId",
          "type": "uint256"
        }
      ],
      "name": "ERC721InsufficientApproval",
      "type": "error"
    },
    {
      "inputs": [
        {
          "internalType": "address",
          "name": "approver",
          "type": "address"
        }
      ],
      "name": "ERC721InvalidApprover",
      "type": "error"
    },
    {
      "inputs": [
        {
          "internalType": "address",
          "name": "operator",
          "type": "address"
        }
      ],
      "name": "ERC721InvalidOperator",
      "type": "error"
    },
    {
      "inputs": [
        {
          "internalType": "address",
          "name": "owner",
          "type": "address"
        }
      ],
      "name": "ERC721InvalidOwner",
      "type": "error"
    },
    {
      "inputs": [
        {
          "internalType": "address",
          "name": "receiver",
          "type": "address"
        }
      ],
      "name": "ERC721InvalidReceiver",
      "type": "error"
    },
    {
      "inputs": [
        {
          "internalType": "address",
          "name": "sender",
          "type": "address"
        }
      ],
      "name": "ERC721InvalidSender",
      "type": "error"
    },
    {
      "inputs": [
        {
          "internalType": "uint256",
          "name": "tokenId",
          "type": "uint256"
        }
      ],
      "name": "ERC721NonexistentToken",
      "type": "error"
    },
    {
      "inputs": [
        {
          "internalType": "address",
          "name": "owner",
          "type": "address"
        }
      ],
      "name": "OwnableInvalidOwner",
      "type": "error"
    },
    {
      "inputs": [
        {
          "internalType": "address",
          "name": "account",
          "type": "address"
        }
      ],
      "name": "OwnableUnauthorizedAccount",
      "type": "error"
    },
    {
      "anonymous": false,
      "inputs": [
        {
          "indexed": true,
          "internalType": "address",
          "name": "owner",
          "type": "address"
        },
        {
          "indexed": true,
          "internalType": "address",
          "name": "approved",
          "type": "address"
        },
        {
          "indexed": true,
          "internalType": "uint256",
          "name": "tokenId",
          "type": "uint256"
        }
      ],
      "name": "Approval",
      "type": "event"
    },
    {
      "anonymous": false,
      "inputs": [
        {
          "indexed": true,
          "internalType": "address",
          "name": "owner",
          "type": "address"
        },
        {
          "indexed": true,
          "internalType": "address",
          "name": "operator",
          "type": "address"
        },
        {
          "indexed": false,
          "internalType": "bool",
          "name": "approved",
          "type": "bool"
        }
      ],
      "name": "ApprovalForAll",
      "type": "event"
    },
    {
      "anonymous": false,
      "inputs": [
        {
          "indexed": false,
          "internalType": "uint256",
          "name": "_fromTokenId",
          "type": "uint256"
        },
        {
          "indexed": false,
          "internalType": "uint256",
          "name": "_toTokenId",
          "type": "uint256"
        }
      ],
      "name": "BatchMetadataUpdate",
      "type": "event"
    },
    {
      "anonymous": false,
      "inputs": [
        {
          "indexed": true,
          "internalType": "uint256",
          "name": "tokenId",
          "type": "uint256"
        },
        {
          "indexed": true,
          "internalType": "address",
          "name": "owner",
          "type": "address"
        },
        {
          "indexed": true,
          "internalType": "address",
          "name": "burner",
          "type": "address"
        },
        {
          "indexed": false,
          "internalType": "uint256",
          "name": "timestamp",
          "type": "uint256"
        }
      ],
      "name": "FoodBurned",
      "type": "event"
    },
    {
      "anonymous": false,
      "inputs": [
        {
          "indexed": false,
          "internalType": "uint256",
          "name": "_tokenId",
          "type": "uint256"
        }
      ],
      "name": "MetadataUpdate",
      "type": "event"
    },
    {
      "anonymous": false,
      "inputs": [
        {
          "indexed": false,
          "internalType": "uint256",
          "name": "oldPrice",
          "type": "uint256"
        },
        {
          "indexed": false,
          "internalType": "uint256",
          "name": "newPrice",
          "type": "uint256"
        }
      ],
      "name": "MintPriceUpdated",
      "type": "event"
    },
    {
      "anonymous": false,
      "inputs": [
        {
          "indexed": true,
          "internalType": "address",
          "name": "previousOwner",
          "type": "address"
        },
        {
          "indexed": true,
          "internalType": "address",
          "name": "newOwner",
          "type": "address"
        }
      ],
      "name": "OwnershipTransferred",
      "type": "event"
    },
    {
      "anonymous": false,
      "inputs": [
        {
          "indexed": true,
          "internalType": "address",
          "name": "from",
          "type": "address"
        },
        {
          "indexed": true,
          "internalType": "address",
          "name": "to",
          "type": "address"
        },
        {
          "indexed": true,
          "internalType": "uint256",
          "name": "tokenId",
          "type": "uint256"
        }
      ],
      "name": "Transfer",
      "type": "event"
    },
    {
      "inputs": [
        {
          "internalType": "address",
          "name": "to",
          "type": "address"
        },
        {
          "internalType": "uint256",
          "name": "tokenId",
          "type": "uint256"
        }
      ],
      "name": "approve",
      "outputs": [],
      "stateMutability": "nonpayable",
      "type": "function"
    },
    {
      "inputs": [
        {
          "internalType": "address",
          "name": "owner",
          "type": "address"
        }
      ],
      "name": "balanceOf",
      "outputs": [
        {
          "internalType": "uint256",
          "name": "",
          "type": "uint256"
        }
      ],
      "stateMutability": "view",
      "type": "function"
    },
    {
      "inputs": [
        {
          "internalType": "uint256",
          "name": "tokenId",
          "type": "uint256"
        }
      ],
      "name": "burnFood",
      "outputs": [],
      "stateMutability": "nonpayable",
      "type": "function"
    },
    {
      "inputs": [
        {
          "internalType": "address",
          "name": "_owner",
          "type": "address"
        },
        {
          "internalType": "uint256[]",
          "name": "tokenIds",
          "type": "uint256[]"
        }
      ],
      "name": "burnFoodBatch",
      "outputs": [],
      "stateMutability": "nonpayable",
      "type": "function"
    },
    {
      "inputs": [
        {
          "internalType": "address",
          "name": "user",
          "type": "address"
        }
      ],
      "name": "chefMinted",
      "outputs": [
        {
          "internalType": "bool",
          "name": "",
          "type": "bool"
        }
      ],
      "stateMutability": "view",
      "type": "function"
    },
    {
      "inputs": [],
      "name": "gameContract",
      "outputs": [
        {
          "internalType": "address",
          "name": "",
          "type": "address"
        }
      ],
      "stateMutability": "view",
      "type": "function"
    },
    {
      "inputs": [
        {
          "internalType": "uint256",
          "name": "tokenId",
          "type": "uint256"
        }
      ],
      "name": "getApproved",
      "outputs": [
        {
          "internalType": "address",
          "name": "",
          "type": "address"
        }
      ],
      "stateMutability": "view",
      "type": "function"
    },
    {
      "inputs": [
        {
          "internalType": "address",
          "name": "_owner",
          "type": "address"
        }
      ],
      "name": "getMyFoods",
      "outputs": [
        {
          "internalType": "uint256[]",
          "name": "",
          "type": "uint256[]"
        }
      ],
      "stateMutability": "view",
      "type": "function"
    },
    {
      "inputs": [
        {
          "internalType": "address",
          "name": "_owner",
          "type": "address"
        }
      ],
      "name": "getMyNFTs",
      "outputs": [
        {
          "internalType": "uint256[]",
          "name": "",
          "type": "uint256[]"
        }
      ],
      "stateMutability": "view",
      "type": "function"
    },
    {
      "inputs": [
        {
          "internalType": "address",
          "name": "owner",
          "type": "address"
        },
        {
          "internalType": "address",
          "name": "operator",
          "type": "address"
        }
      ],
      "name": "isApprovedForAll",
      "outputs": [
        {
          "internalType": "bool",
          "name": "",
          "type": "bool"
        }
      ],
      "stateMutability": "view",
      "type": "function"
    },
    {
      "inputs": [
        {
          "internalType": "address",
          "name": "_to",
          "type": "address"
        },
        {
          "internalType": "string",
          "name": "_tokenURI_",
          "type": "string"
        }
      ],
      "name": "mintChef",
      "outputs": [
        {
          "internalType": "uint256",
          "name": "",
          "type": "uint256"
        }
      ],
      "stateMutability": "payable",
      "type": "function"
    },
    {
      "inputs": [
        {
          "internalType": "address",
          "name": "_to",
          "type": "address"
        },
        {
          "internalType": "string",
          "name": "_tokenURI_",
          "type": "string"
        }
      ],
      "name": "mintFood",
      "outputs": [
        {
          "internalType": "uint256",
          "name": "",
          "type": "uint256"
        }
      ],
      "stateMutability": "nonpayable",
      "type": "function"
    },
    {
      "inputs": [],
      "name": "mintPrice",
      "outputs": [
        {
          "internalType": "uint256",
          "name": "",
          "type": "uint256"
        }
      ],
      "stateMutability": "view",
      "type": "function"
    },
    {
      "inputs": [
        {
          "internalType": "address",
          "name": "",
          "type": "address"
        }
      ],
      "name": "minted",
      "outputs": [
        {
          "internalType": "bool",
          "name": "",
          "type": "bool"
        }
      ],
      "stateMutability": "view",
      "type": "function"
    },
    {
      "inputs": [
        {
          "internalType": "address",
          "name": "",
          "type": "address"
        },
        {
          "internalType": "uint256",
          "name": "",
          "type": "uint256"
        }
      ],
      "name": "myFoods",
      "outputs": [
        {
          "internalType": "uint256",
          "name": "",
          "type": "uint256"
        }
      ],
      "stateMutability": "view",
      "type": "function"
    },
    {
      "inputs": [
        {
          "internalType": "address",
          "name": "",
          "type": "address"
        },
        {
          "internalType": "uint256",
          "name": "",
          "type": "uint256"
        }
      ],
      "name": "mynfts",
      "outputs": [
        {
          "internalType": "uint256",
          "name": "",
          "type": "uint256"
        }
      ],
      "stateMutability": "view",
      "type": "function"
    },
    {
      "inputs": [],
      "name": "name",
      "outputs": [
        {
          "internalType": "string",
          "name": "",
          "type": "string"
        }
      ],
      "stateMutability": "view",
      "type": "function"
    },
    {
      "inputs": [],
      "name": "owner",
      "outputs": [
        {
          "internalType": "address",
          "name": "",
          "type": "address"
        }
      ],
      "stateMutability": "view",
      "type": "function"
    },
    {
      "inputs": [
        {
          "internalType": "uint256",
          "name": "tokenId",
          "type": "uint256"
        }
      ],
      "name": "ownerOf",
      "outputs": [
        {
          "internalType": "address",
          "name": "",
          "type": "address"
        }
      ],
      "stateMutability": "view",
      "type": "function"
    },
    {
      "inputs": [],
      "name": "paymentGateway",
      "outputs": [
        {
          "internalType": "address",
          "name": "",
          "type": "address"
        }
      ],
      "stateMutability": "view",
      "type": "function"
    },
    {
      "inputs": [],
      "name": "renounceOwnership",
      "outputs": [],
      "stateMutability": "nonpayable",
      "type": "function"
    },
    {
      "inputs": [
        {
          "internalType": "address",
          "name": "from",
          "type": "address"
        },
        {
          "internalType": "address",
          "name": "to",
          "type": "address"
        },
        {
          "internalType": "uint256",
          "name": "tokenId",
          "type": "uint256"
        }
      ],
      "name": "safeTransferFrom",
      "outputs": [],
      "stateMutability": "nonpayable",
      "type": "function"
    },
    {
      "inputs": [
        {
          "internalType": "address",
          "name": "from",
          "type": "address"
        },
        {
          "internalType": "address",
          "name": "to",
          "type": "address"
        },
        {
          "internalType": "uint256",
          "name": "tokenId",
          "type": "uint256"
        },
        {
          "internalType": "bytes",
          "name": "data",
          "type": "bytes"
        }
      ],
      "name": "safeTransferFrom",
      "outputs": [],
      "stateMutability": "nonpayable",
      "type": "function"
    },
    {
      "inputs": [
        {
          "internalType": "address",
          "name": "operator",
          "type": "address"
        },
        {
          "internalType": "bool",
          "name": "approved",
          "type": "bool"
        }
      ],
      "name": "setApprovalForAll",
      "outputs": [],
      "stateMutability": "nonpayable",
      "type": "function"
    },
    {
      "inputs": [
        {
          "internalType": "address",
          "name": "_gameContract",
          "type": "address"
        }
      ],
      "name": "setGameContract",
      "outputs": [],
      "stateMutability": "nonpayable",
      "type": "function"
    },
    {
      "inputs": [
        {
          "internalType": "uint256",
          "name": "_newPrice",
          "type": "uint256"
        }
      ],
      "name": "setMintPrice",
      "outputs": [],
      "stateMutability": "nonpayable",
      "type": "function"
    },
    {
      "inputs": [
        {
          "internalType": "bytes4",
          "name": "interfaceId",
          "type": "bytes4"
        }
      ],
      "name": "supportsInterface",
      "outputs": [
        {
          "internalType": "bool",
          "name": "",
          "type": "bool"
        }
      ],
      "stateMutability": "view",
      "type": "function"
    },
    {
      "inputs": [],
      "name": "symbol",
      "outputs": [
        {
          "internalType": "string",
          "name": "",
          "type": "string"
        }
      ],
      "stateMutability": "view",
      "type": "function"
    },
    {
      "inputs": [
        {
          "internalType": "uint256",
          "name": "tokenId",
          "type": "uint256"
        }
      ],
      "name": "tokenURI",
      "outputs": [
        {
          "internalType": "string",
          "name": "",
          "type": "string"
        }
      ],
      "stateMutability": "view",
      "type": "function"
    },
    {
      "inputs": [
        {
          "internalType": "address",
          "name": "from",
          "type": "address"
        },
        {
          "internalType": "address",
          "name": "to",
          "type": "address"
        },
        {
          "internalType": "uint256",
          "name": "tokenId",
          "type": "uint256"
        }
      ],
      "name": "transferFrom",
      "outputs": [],
      "stateMutability": "nonpayable",
      "type": "function"
    },
    {
      "inputs": [
        {
          "internalType": "address",
          "name": "newOwner",
          "type": "address"
        }
      ],
      "name": "transferOwnership",
      "outputs": [],
      "stateMutability": "nonpayable",
      "type": "function"
    }
  ],
  "transactionHash": "0x69d9694cf2f9608874e60e7bcfe365c2300602f47ff1a050ebbae2fad7a412bc",
  "args": [
    "0x1dCb189FF485223274987723f9c8E23B37f07DE7"
  ],
  "numDeployments": 1,
  "solcInputHash": "d2bfb95f4d103a4e67fb06a6293fdeaa",
  "bytecode": "0x6080604052670de0b6b3a7640000600e553480156200001d57600080fd5b50604051620023dd380380620023dd83398101604081905262000040916200015d565b3360405180604001604052806011815260200170119bdbd90814d8dc985b589b1948139195607a1b815250604051806040016040528060038152602001622329a760e91b815250816000908162000098919062000236565b506001620000a7828262000236565b5050506001600160a01b038116620000d957604051631e4fbdf760e01b81526000600482015260240160405180910390fd5b620000e4816200010b565b50600c80546001600160a01b0319166001600160a01b039290921691909117905562000302565b600780546001600160a01b038381166001600160a01b0319831681179093556040519116919082907f8be0079c531659141344cd1fd0a4f28419497f9722a3daafe3b4186f6b6457e090600090a35050565b6000602082840312156200017057600080fd5b81516001600160a01b03811681146200018857600080fd5b9392505050565b634e487b7160e01b600052604160045260246000fd5b600181811c90821680620001ba57607f821691505b602082108103620001db57634e487b7160e01b600052602260045260246000fd5b50919050565b601f82111562000231576000816000526020600020601f850160051c810160208610156200020c5750805b601f850160051c820191505b818110156200022d5782815560010162000218565b5050505b505050565b81516001600160401b038111156200025257620002526200018f565b6200026a81620002638454620001a5565b84620001e1565b602080601f831160018114620002a25760008415620002895750858301515b600019600386901b1c1916600185901b1785556200022d565b600085815260208120601f198616915b82811015620002d357888601518255948401946001909101908401620002b2565b5085821015620002f25787850151600019600388901b60f8161c191681555b5050505050600190811b01905550565b6120cb80620003126000396000f3fe6080604052600436106101d85760003560e01c8063715018a611610102578063cf2d2cd611610095578063e921ee6e11610064578063e921ee6e14610583578063e985e9c5146105a3578063f2fde38b146105c3578063f4a0a528146105e357600080fd5b8063cf2d2cd614610503578063d12f724314610523578063d3f3300914610543578063e8d91d0b1461056357600080fd5b8063a22cb465116100d1578063a22cb46514610483578063b88d4fde146104a3578063c87b56dd146104c3578063ca2169d4146104e357600080fd5b8063715018a61461042857806387418d6d1461043d5780638da5cb5b1461045057806395d89b411461046e57600080fd5b8063345cf9f21161017a5780636817c76c116101495780636817c76c146103995780636a436e89146103af5780636c31e216146103cf57806370a082311461040857600080fd5b8063345cf9f21461030b578063405ebd4d1461033957806342842e0e146103595780636352211e1461037957600080fd5b8063095ea7b3116101b6578063095ea7b31461026c5780630c4b524c1461028e5780631e7269c5146102bb57806323b872dd146102eb57600080fd5b806301ffc9a7146101dd57806306fdde0314610212578063081812fc14610234575b600080fd5b3480156101e957600080fd5b506101fd6101f8366004611a5f565b610603565b60405190151581526020015b60405180910390f35b34801561021e57600080fd5b5061022761062e565b6040516102099190611acc565b34801561024057600080fd5b5061025461024f366004611adf565b6106c0565b6040516001600160a01b039091168152602001610209565b34801561027857600080fd5b5061028c610287366004611b14565b6106e9565b005b34801561029a57600080fd5b506102ae6102a9366004611b3e565b6106f8565b6040516102099190611b59565b3480156102c757600080fd5b506101fd6102d6366004611b3e565b600b6020526000908152604090205460ff1681565b3480156102f757600080fd5b5061028c610306366004611b9d565b610764565b34801561031757600080fd5b5061032b610326366004611b14565b6107f4565b604051908152602001610209565b34801561034557600080fd5b5061028c610354366004611b3e565b610825565b34801561036557600080fd5b5061028c610374366004611b9d565b61084f565b34801561038557600080fd5b50610254610394366004611adf565b61086f565b3480156103a557600080fd5b5061032b600e5481565b3480156103bb57600080fd5b5061032b6103ca366004611c65565b61087a565b3480156103db57600080fd5b506101fd6103ea366004611b3e565b6001600160a01b03166000908152600b602052604090205460ff1690565b34801561041457600080fd5b5061032b610423366004611b3e565b610936565b34801561043457600080fd5b5061028c61097e565b61032b61044b366004611c65565b610992565b34801561045c57600080fd5b506007546001600160a01b0316610254565b34801561047a57600080fd5b50610227610b2b565b34801561048f57600080fd5b5061028c61049e366004611cc7565b610b3a565b3480156104af57600080fd5b5061028c6104be366004611d03565b610b45565b3480156104cf57600080fd5b506102276104de366004611adf565b610b5c565b3480156104ef57600080fd5b50600c54610254906001600160a01b031681565b34801561050f57600080fd5b5061028c61051e366004611adf565b610c6d565b34801561052f57600080fd5b5061032b61053e366004611b14565b610e21565b34801561054f57600080fd5b50600d54610254906001600160a01b031681565b34801561056f57600080fd5b5061028c61057e366004611d7f565b610e3d565b34801561058f57600080fd5b506102ae61059e366004611b3e565b6110b9565b3480156105af57600080fd5b506101fd6105be366004611e05565b611123565b3480156105cf57600080fd5b5061028c6105de366004611b3e565b611151565b3480156105ef57600080fd5b5061028c6105fe366004611adf565b61118f565b60006001600160e01b03198216632483248360e11b14806106285750610628826111dd565b92915050565b60606000805461063d90611e38565b80601f016020809104026020016040519081016040528092919081815260200182805461066990611e38565b80156106b65780601f1061068b576101008083540402835291602001916106b6565b820191906000526020600020905b81548152906001019060200180831161069957829003601f168201915b5050505050905090565b60006106cb8261122d565b506000828152600460205260409020546001600160a01b0316610628565b6106f4828233611266565b5050565b6001600160a01b0381166000908152600a602090815260409182902080548351818402810184019094528084526060939283018282801561075857602002820191906000526020600020905b815481526020019060010190808311610744575b50505050509050919050565b6001600160a01b03821661079357604051633250574960e11b8152600060048201526024015b60405180910390fd5b60006107a0838333611273565b9050836001600160a01b0316816001600160a01b0316146107ee576040516364283d7b60e01b81526001600160a01b038086166004830152602482018490528216604482015260640161078a565b50505050565b600a602052816000526040600020818154811061081057600080fd5b90600052602060002001600091509150505481565b61082d61136c565b600d80546001600160a01b0319166001600160a01b0392909216919091179055565b61086a83838360405180602001604052806000815250610b45565b505050565b60006106288261122d565b600d546000906001600160a01b031633146108d75760405162461bcd60e51b815260206004820152601b60248201527f4f6e6c792067616d6520636f6e74726163742063616e206d696e740000000000604482015260640161078a565b6008546108e48482611399565b6108ee81846113fe565b600880549060006108fe83611e88565b90915550506001600160a01b0384166000908152600a6020908152604082208054600181018255908352912001819055905092915050565b60006001600160a01b038216610962576040516322718ad960e21b81526000600482015260240161078a565b506001600160a01b031660009081526003602052604090205490565b61098661136c565b6109906000611447565b565b6000600e5434146109da5760405162461bcd60e51b8152602060048201526012602482015271135a5b9d081c1c9a58d9481b9bdd081b595d60721b604482015260640161078a565b600c5460408051600481526024810182526020810180516001600160e01b03166311040e0960e11b17905290516000926001600160a01b0316913491610a209190611ea1565b60006040518083038185875af1925050503d8060008114610a5d576040519150601f19603f3d011682016040523d82523d6000602084013e610a62565b606091505b5050905080610ab35760405162461bcd60e51b815260206004820181905260248201527f5061796d656e7420746f205061796d656e7447617465776179206661696c6564604482015260640161078a565b600854610ac08582611399565b610aca81856113fe565b60088054906000610ada83611e88565b90915550506001600160a01b038516600081815260096020908152604080832080546001818101835591855283852001869055938352600b9091529020805460ff1916909117905591505092915050565b60606001805461063d90611e38565b6106f4338383611499565b610b50848484610764565b6107ee84848484611538565b6060610b678261122d565b5060008281526006602052604081208054610b8190611e38565b80601f0160208091040260200160405190810160405280929190818152602001828054610bad90611e38565b8015610bfa5780601f10610bcf57610100808354040283529160200191610bfa565b820191906000526020600020905b815481529060010190602001808311610bdd57829003601f168201915b505050505090506000610c1860408051602081019091526000815290565b90508051600003610c2a575092915050565b815115610c5c578082604051602001610c44929190611ebd565b60405160208183030381529060405292505050919050565b610c6584611661565b949350505050565b33610c778261086f565b6001600160a01b03161480610c9c575033610c91826106c0565b6001600160a01b0316145b80610cb45750610cb4610cae8261086f565b33611123565b610cf95760405162461bcd60e51b8152602060048201526016602482015275139bdd081bdddb995c881b9bdc88185c1c1c9bdd995960521b604482015260640161078a565b6000610d048261086f565b9050336001600160a01b0316816001600160a01b0316837f97837b867511699c6fc70442f772759a8e947cd5e803afd42f140c8d4e1e3e3d42604051610d4c91815260200190565b60405180910390a4610d5d826116d6565b6001600160a01b0381166000908152600a60205260408120905b81548110156107ee5783828281548110610d9357610d93611eec565b906000526020600020015403610e195781548290610db390600190611f02565b81548110610dc357610dc3611eec565b9060005260206000200154828281548110610de057610de0611eec565b906000526020600020018190555081805480610dfe57610dfe611f15565b600190038181906000526020600020016000905590556107ee565b600101610d77565b6009602052816000526040600020818154811061081057600080fd5b80610e815760405162461bcd60e51b8152602060048201526014602482015273139bc81d1bdad95b92591cc81c1c9bdd9a59195960621b604482015260640161078a565b60005b818110156107ee576000838383818110610ea057610ea0611eec565b905060200201359050336001600160a01b0316610ebc8261086f565b6001600160a01b03161480610ee1575033610ed6826106c0565b6001600160a01b0316145b80610ef35750610ef3610cae8261086f565b610f385760405162461bcd60e51b8152602060048201526016602482015275139bdd081bdddb995c881b9bdc88185c1c1c9bdd995960521b604482015260640161078a565b846001600160a01b0316610f4b8261086f565b6001600160a01b031614610f935760405162461bcd60e51b815260206004820152600f60248201526e2737ba103a37b5b2b71037bbb732b960891b604482015260640161078a565b336001600160a01b0316856001600160a01b0316827f97837b867511699c6fc70442f772759a8e947cd5e803afd42f140c8d4e1e3e3d42604051610fd991815260200190565b60405180910390a4610fea816116d6565b6001600160a01b0385166000908152600a60205260408120905b81548110156110ae578282828154811061102057611020611eec565b9060005260206000200154036110a6578154829061104090600190611f02565b8154811061105057611050611eec565b906000526020600020015482828154811061106d5761106d611eec565b90600052602060002001819055508180548061108b5761108b611f15565b600190038181906000526020600020016000905590556110ae565b600101611004565b505050600101610e84565b6001600160a01b03811660009081526009602090815260409182902080548351818402810184019094528084526060939283018282801561075857602002820191906000526020600020908154815260200190600101908083116107445750505050509050919050565b6001600160a01b03918216600090815260056020908152604080832093909416825291909152205460ff1690565b61115961136c565b6001600160a01b03811661118357604051631e4fbdf760e01b81526000600482015260240161078a565b61118c81611447565b50565b61119761136c565b600e80549082905560408051828152602081018490527f2e1c9e000c6e8dda4d03536adb13b7cb6034ccff90d17f01de381e4d5097b52591015b60405180910390a15050565b60006001600160e01b031982166380ac58cd60e01b148061120e57506001600160e01b03198216635b5e139f60e01b145b8061062857506301ffc9a760e01b6001600160e01b0319831614610628565b6000818152600260205260408120546001600160a01b03168061062857604051637e27328960e01b81526004810184905260240161078a565b61086a8383836001611711565b6000828152600260205260408120546001600160a01b03908116908316156112a0576112a0818486611817565b6001600160a01b038116156112de576112bd600085600080611711565b6001600160a01b038116600090815260036020526040902080546000190190555b6001600160a01b0385161561130d576001600160a01b0385166000908152600360205260409020805460010190555b60008481526002602052604080822080546001600160a01b0319166001600160a01b0389811691821790925591518793918516917fddf252ad1be2c89b69c2b068fc378daa952ba7f163c4a11628f55a4df523b3ef91a4949350505050565b6007546001600160a01b031633146109905760405163118cdaa760e01b815233600482015260240161078a565b6001600160a01b0382166113c357604051633250574960e11b81526000600482015260240161078a565b60006113d183836000611273565b90506001600160a01b0381161561086a576040516339e3563760e11b81526000600482015260240161078a565b60008281526006602052604090206114168282611f7b565b506040518281527ff8e1a15aba9398e019f0b49df1a4fde98ee17ae345cb5f6b5e2c27f5033e8ce7906020016111d1565b600780546001600160a01b038381166001600160a01b0319831681179093556040519116919082907f8be0079c531659141344cd1fd0a4f28419497f9722a3daafe3b4186f6b6457e090600090a35050565b6001600160a01b0382166114cb57604051630b61174360e31b81526001600160a01b038316600482015260240161078a565b6001600160a01b03838116600081815260056020908152604080832094871680845294825291829020805460ff191686151590811790915591519182527f17307eab39ab6107e8899845ad3d59bd9653f200f220920489ca2b5937696c31910160405180910390a3505050565b6001600160a01b0383163b156107ee57604051630a85bd0160e11b81526001600160a01b0384169063150b7a029061157a90339088908790879060040161203b565b6020604051808303816000875af19250505080156115b5575060408051601f3d908101601f191682019092526115b291810190612078565b60015b61161e573d8080156115e3576040519150601f19603f3d011682016040523d82523d6000602084013e6115e8565b606091505b50805160000361161657604051633250574960e11b81526001600160a01b038516600482015260240161078a565b805181602001fd5b6001600160e01b03198116630a85bd0160e11b1461165a57604051633250574960e11b81526001600160a01b038516600482015260240161078a565b5050505050565b606061166c8261122d565b50600061168460408051602081019091526000815290565b905060008151116116a457604051806020016040528060008152506116cf565b806116ae8461187b565b6040516020016116bf929190611ebd565b6040516020818303038152906040525b9392505050565b60006116e56000836000611273565b90506001600160a01b0381166106f457604051637e27328960e01b81526004810183905260240161078a565b808061172557506001600160a01b03821615155b156117e75760006117358461122d565b90506001600160a01b038316158015906117615750826001600160a01b0316816001600160a01b031614155b801561177457506117728184611123565b155b1561179d5760405163a9fbf51f60e01b81526001600160a01b038416600482015260240161078a565b81156117e55783856001600160a01b0316826001600160a01b03167f8c5be1e5ebec7d5bd14f71427d1e84f3dd0314c0f7b2291e5b200ac8c7c3b92560405160405180910390a45b505b5050600090815260046020526040902080546001600160a01b0319166001600160a01b0392909216919091179055565b61182283838361190e565b61086a576001600160a01b03831661185057604051637e27328960e01b81526004810182905260240161078a565b60405163177e802f60e01b81526001600160a01b03831660048201526024810182905260440161078a565b6060600061188883611971565b600101905060008167ffffffffffffffff8111156118a8576118a8611bd9565b6040519080825280601f01601f1916602001820160405280156118d2576020820181803683370190505b5090508181016020015b600019016f181899199a1a9b1b9c1cb0b131b232b360811b600a86061a8153600a85049450846118dc57509392505050565b60006001600160a01b03831615801590610c655750826001600160a01b0316846001600160a01b0316148061194857506119488484611123565b80610c655750506000908152600460205260409020546001600160a01b03908116911614919050565b60008072184f03e93ff9f4daa797ed6e38ed64bf6a1f0160401b83106119b05772184f03e93ff9f4daa797ed6e38ed64bf6a1f0160401b830492506040015b6d04ee2d6d415b85acef810000000083106119dc576d04ee2d6d415b85acef8100000000830492506020015b662386f26fc1000083106119fa57662386f26fc10000830492506010015b6305f5e1008310611a12576305f5e100830492506008015b6127108310611a2657612710830492506004015b60648310611a38576064830492506002015b600a83106106285760010192915050565b6001600160e01b03198116811461118c57600080fd5b600060208284031215611a7157600080fd5b81356116cf81611a49565b60005b83811015611a97578181015183820152602001611a7f565b50506000910152565b60008151808452611ab8816020860160208601611a7c565b601f01601f19169290920160200192915050565b6020815260006116cf6020830184611aa0565b600060208284031215611af157600080fd5b5035919050565b80356001600160a01b0381168114611b0f57600080fd5b919050565b60008060408385031215611b2757600080fd5b611b3083611af8565b946020939093013593505050565b600060208284031215611b5057600080fd5b6116cf82611af8565b6020808252825182820181905260009190848201906040850190845b81811015611b9157835183529284019291840191600101611b75565b50909695505050505050565b600080600060608486031215611bb257600080fd5b611bbb84611af8565b9250611bc960208501611af8565b9150604084013590509250925092565b634e487b7160e01b600052604160045260246000fd5b600067ffffffffffffffff80841115611c0a57611c0a611bd9565b604051601f8501601f19908116603f01168101908282118183101715611c3257611c32611bd9565b81604052809350858152868686011115611c4b57600080fd5b858560208301376000602087830101525050509392505050565b60008060408385031215611c7857600080fd5b611c8183611af8565b9150602083013567ffffffffffffffff811115611c9d57600080fd5b8301601f81018513611cae57600080fd5b611cbd85823560208401611bef565b9150509250929050565b60008060408385031215611cda57600080fd5b611ce383611af8565b915060208301358015158114611cf857600080fd5b809150509250929050565b60008060008060808587031215611d1957600080fd5b611d2285611af8565b9350611d3060208601611af8565b925060408501359150606085013567ffffffffffffffff811115611d5357600080fd5b8501601f81018713611d6457600080fd5b611d7387823560208401611bef565b91505092959194509250565b600080600060408486031215611d9457600080fd5b611d9d84611af8565b9250602084013567ffffffffffffffff80821115611dba57600080fd5b818601915086601f830112611dce57600080fd5b813581811115611ddd57600080fd5b8760208260051b8501011115611df257600080fd5b6020830194508093505050509250925092565b60008060408385031215611e1857600080fd5b611e2183611af8565b9150611e2f60208401611af8565b90509250929050565b600181811c90821680611e4c57607f821691505b602082108103611e6c57634e487b7160e01b600052602260045260246000fd5b50919050565b634e487b7160e01b600052601160045260246000fd5b600060018201611e9a57611e9a611e72565b5060010190565b60008251611eb3818460208701611a7c565b9190910192915050565b60008351611ecf818460208801611a7c565b835190830190611ee3818360208801611a7c565b01949350505050565b634e487b7160e01b600052603260045260246000fd5b8181038181111561062857610628611e72565b634e487b7160e01b600052603160045260246000fd5b601f82111561086a576000816000526020600020601f850160051c81016020861015611f545750805b601f850160051c820191505b81811015611f7357828155600101611f60565b505050505050565b815167ffffffffffffffff811115611f9557611f95611bd9565b611fa981611fa38454611e38565b84611f2b565b602080601f831160018114611fde5760008415611fc65750858301515b600019600386901b1c1916600185901b178555611f73565b600085815260208120601f198616915b8281101561200d57888601518255948401946001909101908401611fee565b508582101561202b5787850151600019600388901b60f8161c191681555b5050505050600190811b01905550565b6001600160a01b038581168252841660208201526040810183905260806060820181905260009061206e90830184611aa0565b9695505050505050565b60006020828403121561208a57600080fd5b81516116cf81611a4956fea26469706673582212208ed3fe1060c12bb3345d639268bc6f422e26050777b05c819d408efa40176ede64736f6c63430008170033",
  "devdoc": {
    "errors": {
      "ERC721IncorrectOwner(address,uint256,address)": [
        {
          "details": "Indicates an error related to the ownership over a particular token. Used in transfers.",
          "params": {
            "owner": "Address of the current owner of a token.",
            "sender": "Address whose tokens are being transferred.",
            "tokenId": "Identifier number of a token."
          }
        }
      ],
      "ERC721InsufficientApproval(address,uint256)": [
        {
          "details": "Indicates a failure with the `operator`s approval. Used in transfers.",
          "params": {
            "operator": "Address that may be allowed to operate on tokens without being their owner.",
            "tokenId": "Identifier number of a token."
          }
        }
      ],
      "ERC721InvalidApprover(address)": [
        {
          "details": "Indicates a failure with the `approver` of a token to be approved. Used in approvals.",
          "params": {
            "approver": "Address initiating an approval operation."
          }
        }
      ],
      "ERC721InvalidOperator(address)": [
        {
          "details": "Indicates a failure with the `operator` to be approved. Used in approvals.",
          "params": {
            "operator": "Address that may be allowed to operate on tokens without being their owner."
          }
        }
      ],
      "ERC721InvalidOwner(address)": [
        {
          "details": "Indicates that an address can't be an owner. For example, `address(0)` is a forbidden owner in EIP-20. Used in balance queries.",
          "params": {
            "owner": "Address of the current owner of a token."
          }
        }
      ],
      "ERC721InvalidReceiver(address)": [
        {
          "details": "Indicates a failure with the token `receiver`. Used in transfers.",
          "params": {
            "receiver": "Address to which tokens are being transferred."
          }
        }
      ],
      "ERC721InvalidSender(address)": [
        {
          "details": "Indicates a failure with the token `sender`. Used in transfers.",
          "params": {
            "sender": "Address whose tokens are being transferred."
          }
        }
      ],
      "ERC721NonexistentToken(uint256)": [
        {
          "details": "Indicates a `tokenId` whose `owner` is the zero address.",
          "params": {
            "tokenId": "Identifier number of a token."
          }
        }
      ],
      "OwnableInvalidOwner(address)": [
        {
          "details": "The owner is not a valid owner account. (eg. `address(0)`)"
        }
      ],
      "OwnableUnauthorizedAccount(address)": [
        {
          "details": "The caller account is not authorized to perform an operation."
        }
      ]
    },
    "events": {
      "Approval(address,address,uint256)": {
        "details": "Emitted when `owner` enables `approved` to manage the `tokenId` token."
      },
      "ApprovalForAll(address,address,bool)": {
        "details": "Emitted when `owner` enables or disables (`approved`) `operator` to manage all of its assets."
      },
      "BatchMetadataUpdate(uint256,uint256)": {
        "details": "This event emits when the metadata of a range of tokens is changed. So that the third-party platforms such as NFT market could timely update the images and related attributes of the NFTs."
      },
      "MetadataUpdate(uint256)": {
        "details": "This event emits when the metadata of a token is changed. So that the third-party platforms such as NFT market could timely update the images and related attributes of the NFT."
      },
      "Transfer(address,address,uint256)": {
        "details": "Emitted when `tokenId` token is transferred from `from` to `to`."
      }
    },
    "kind": "dev",
    "methods": {
      "approve(address,uint256)": {
        "details": "See {IERC721-approve}."
      },
      "balanceOf(address)": {
        "details": "See {IERC721-balanceOf}."
      },
      "getApproved(uint256)": {
        "details": "See {IERC721-getApproved}."
      },
      "isApprovedForAll(address,address)": {
        "details": "See {IERC721-isApprovedForAll}."
      },
      "name()": {
        "details": "See {IERC721Metadata-name}."
      },
      "owner()": {
        "details": "Returns the address of the current owner."
      },
      "ownerOf(uint256)": {
        "details": "See {IERC721-ownerOf}."
      },
      "renounceOwnership()": {
        "details": "Leaves the contract without owner. It will not be possible to call `onlyOwner` functions. Can only be called by the current owner. NOTE: Renouncing ownership will leave the contract without an owner, thereby disabling any functionality that is only available to the owner."
      },
      "safeTransferFrom(address,address,uint256)": {
        "details": "See {IERC721-safeTransferFrom}."
      },
      "safeTransferFrom(address,address,uint256,bytes)": {
        "details": "See {IERC721-safeTransferFrom}."
      },
      "setApprovalForAll(address,bool)": {
        "details": "See {IERC721-setApprovalForAll}."
      },
      "supportsInterface(bytes4)": {
        "details": "See {IERC165-supportsInterface}"
      },
      "symbol()": {
        "details": "See {IERC721Metadata-symbol}."
      },
      "tokenURI(uint256)": {
        "details": "See {IERC721Metadata-tokenURI}."
      },
      "transferFrom(address,address,uint256)": {
        "details": "See {IERC721-transferFrom}."
      },
      "transferOwnership(address)": {
        "details": "Transfers ownership of the contract to a new account (`newOwner`). Can only be called by the current owner."
      }
    },
    "version": 1
  },
  "userdoc": {
    "kind": "user",
    "methods": {},
    "version": 1
  },
  "storageLayout": {
    "storage": [
      {
        "astId": 3172,
        "contract": "contracts/FoodNFT.sol:FoodNFT",
        "label": "_name",
        "offset": 0,
        "slot": "0",
        "type": "t_string_storage"
      },
      {
        "astId": 3174,
        "contract": "contracts/FoodNFT.sol:FoodNFT",
        "label": "_symbol",
        "offset": 0,
        "slot": "1",
        "type": "t_string_storage"
      },
      {
        "astId": 3178,
        "contract": "contracts/FoodNFT.sol:FoodNFT",
        "label": "_owners",
        "offset": 0,
        "slot": "2",
        "type": "t_mapping(t_uint256,t_address)"
      },
      {
        "astId": 3182,
        "contract": "contracts/FoodNFT.sol:FoodNFT",
        "label": "_balances",
        "offset": 0,
        "slot": "3",
        "type": "t_mapping(t_address,t_uint256)"
      },
      {
        "astId": 3186,
        "contract": "contracts/FoodNFT.sol:FoodNFT",
        "label": "_tokenApprovals",
        "offset": 0,
        "slot": "4",
        "type": "t_mapping(t_uint256,t_address)"
      },
      {
        "astId": 3192,
        "contract": "contracts/FoodNFT.sol:FoodNFT",
        "label": "_operatorApprovals",
        "offset": 0,
        "slot": "5",
        "type": "t_mapping(t_address,t_mapping(t_address,t_bool))"
      },
      {
        "astId": 4311,
        "contract": "contracts/FoodNFT.sol:FoodNFT",
        "label": "_tokenURIs",
        "offset": 0,
        "slot": "6",
        "type": "t_mapping(t_uint256,t_string_storage)"
      },
      {
        "astId": 387,
        "contract": "contracts/FoodNFT.sol:FoodNFT",
        "label": "_owner",
        "offset": 0,
        "slot": "7",
        "type": "t_address"
      },
      {
        "astId": 11052,
        "contract": "contracts/FoodNFT.sol:FoodNFT",
        "label": "_tokenIds",
        "offset": 0,
        "slot": "8",
        "type": "t_uint256"
      },
      {
        "astId": 11057,
        "contract": "contracts/FoodNFT.sol:FoodNFT",
        "label": "mynfts",
        "offset": 0,
        "slot": "9",
        "type": "t_mapping(t_address,t_array(t_uint256)dyn_storage)"
      },
      {
        "astId": 11062,
        "contract": "contracts/FoodNFT.sol:FoodNFT",
        "label": "myFoods",
        "offset": 0,
        "slot": "10",
        "type": "t_mapping(t_address,t_array(t_uint256)dyn_storage)"
      },
      {
        "astId": 11066,
        "contract": "contracts/FoodNFT.sol:FoodNFT",
        "label": "minted",
        "offset": 0,
        "slot": "11",
        "type": "t_mapping(t_address,t_bool)"
      },
      {
        "astId": 11068,
        "contract": "contracts/FoodNFT.sol:FoodNFT",
        "label": "paymentGateway",
        "offset": 0,
        "slot": "12",
        "type": "t_address"
      },
      {
        "astId": 11070,
        "contract": "contracts/FoodNFT.sol:FoodNFT",
        "label": "gameContract",
        "offset": 0,
        "slot": "13",
        "type": "t_address"
      },
      {
        "astId": 11073,
        "contract": "contracts/FoodNFT.sol:FoodNFT",
        "label": "mintPrice",
        "offset": 0,
        "slot": "14",
        "type": "t_uint256"
      }
    ],
    "types": {
      "t_address": {
        "encoding": "inplace",
        "label": "address",
        "numberOfBytes": "20"
      },
      "t_array(t_uint256)dyn_storage": {
        "base": "t_uint256",
        "encoding": "dynamic_array",
        "label": "uint256[]",
        "numberOfBytes": "32"
      },
      "t_bool": {
        "encoding": "inplace",
        "label": "bool",
        "numberOfBytes": "1"
      },
      "t_mapping(t_address,t_array(t_uint256)dyn_storage)": {
        "encoding": "mapping",
        "key": "t_address",
        "label": "mapping(address => uint256[])",
        "numberOfBytes": "32",
        "value": "t_array(t_uint256)dyn_storage"
      },
      "t_mapping(t_address,t_bool)": {
        "encoding": "mapping",
        "key": "t_address",
        "label": "mapping(address => bool)",
        "numberOfBytes": "32",
        "value": "t_bool"
      },
      "t_mapping(t_address,t_mapping(t_address,t_bool))": {
        "encoding": "mapping",
        "key": "t_address",
        "label": "mapping(address => mapping(address => bool))",
        "numberOfBytes": "32",
        "value": "t_mapping(t_address,t_bool)"
      },
      "t_mapping(t_address,t_uint256)": {
        "encoding": "mapping",
        "key": "t_address",
        "label": "mapping(address => uint256)",
        "numberOfBytes": "32",
        "value": "t_uint256"
      },
      "t_mapping(t_uint256,t_address)": {
        "encoding": "mapping",
        "key": "t_uint256",
        "label": "mapping(uint256 => address)",
        "numberOfBytes": "32",
        "value": "t_address"
      },
      "t_mapping(t_uint256,t_string_storage)": {
        "encoding": "mapping",
        "key": "t_uint256",
        "label": "mapping(uint256 => string)",
        "numberOfBytes": "32",
        "value": "t_string_storage"
      },
      "t_string_storage": {
        "encoding": "bytes",
        "label": "string",
        "numberOfBytes": "32"
      },
      "t_uint256": {
        "encoding": "inplace",
        "label": "uint256",
        "numberOfBytes": "32"
      }
    }
  }
}