{
  "address": "0xa2738c895bB55C3657002fB6C8867b7A304c65d1",
  "abi": [
    {
      "inputs": [
        {
          "internalType": "address",
          "name": "_owner",
          "type": "address"
        },
        {
          "internalType": "address",
          "name": "_registryAddress",
          "type": "address"
        },
        {
          "internalType": "address",
          "name": "_breadAddress",
          "type": "address"
        },
        {
          "internalType": "address",
          "name": "_meatAddress",
          "type": "address"
        },
        {
          "internalType": "address",
          "name": "_lettuceAddress",
          "type": "address"
        },
        {
          "internalType": "address",
          "name": "_tomatoAddress",
          "type": "address"
        },
        {
          "internalType": "address",
          "name": "_hamburgerAddress",
          "type": "address"
        },
        {
          "internalType": "address payable",
          "name": "_faucetMonAddress",
          "type": "address"
        },
        {
          "internalType": "address payable",
          "name": "_paymentGatewayAddress",
          "type": "address"
        }
      ],
      "stateMutability": "nonpayable",
      "type": "constructor"
    },
    {
      "anonymous": false,
      "inputs": [
        {
          "indexed": false,
          "internalType": "uint256",
          "name": "oldAmount",
          "type": "uint256"
        },
        {
          "indexed": false,
          "internalType": "uint256",
          "name": "newAmount",
          "type": "uint256"
        }
      ],
      "name": "FaucetAmountUpdated",
      "type": "event"
    },
    {
      "anonymous": false,
      "inputs": [
        {
          "indexed": false,
          "internalType": "uint256",
          "name": "oldCooldown",
          "type": "uint256"
        },
        {
          "indexed": false,
          "internalType": "uint256",
          "name": "newCooldown",
          "type": "uint256"
        }
      ],
      "name": "FaucetCooldownUpdated",
      "type": "event"
    },
    {
      "anonymous": false,
      "inputs": [
        {
          "indexed": true,
          "internalType": "address",
          "name": "player",
          "type": "address"
        },
        {
          "indexed": false,
          "internalType": "uint256",
          "name": "tokenId",
          "type": "uint256"
        }
      ],
      "name": "HamburgerMinted",
      "type": "event"
    },
    {
      "anonymous": false,
      "inputs": [
        {
          "indexed": true,
          "internalType": "address",
          "name": "player",
          "type": "address"
        },
        {
          "indexed": false,
          "internalType": "uint256",
          "name": "ingredientType",
          "type": "uint256"
        },
        {
          "indexed": false,
          "internalType": "uint256",
          "name": "position",
          "type": "uint256"
        }
      ],
      "name": "IngredientPurchased",
      "type": "event"
    },
    {
      "anonymous": false,
      "inputs": [
        {
          "indexed": true,
          "internalType": "address",
          "name": "tba",
          "type": "address"
        },
        {
          "indexed": false,
          "internalType": "uint256",
          "name": "gridIndex",
          "type": "uint256"
        }
      ],
      "name": "PlayerCreated",
      "type": "event"
    },
    {
      "anonymous": false,
      "inputs": [
        {
          "indexed": true,
          "internalType": "address",
          "name": "player",
          "type": "address"
        },
        {
          "indexed": false,
          "internalType": "uint256",
          "name": "newPosition",
          "type": "uint256"
        },
        {
          "indexed": false,
          "internalType": "uint256",
          "name": "roll",
          "type": "uint256"
        }
      ],
      "name": "PlayerMoved",
      "type": "event"
    },
    {
      "anonymous": false,
      "inputs": [
        {
          "indexed": true,
          "internalType": "address",
          "name": "player",
          "type": "address"
        },
        {
          "indexed": false,
          "internalType": "uint256",
          "name": "fromPosition",
          "type": "uint256"
        },
        {
          "indexed": false,
          "internalType": "uint256",
          "name": "toPosition",
          "type": "uint256"
        }
      ],
      "name": "RailTraveled",
      "type": "event"
    },
    {
      "anonymous": false,
      "inputs": [
        {
          "indexed": true,
          "internalType": "address",
          "name": "eoa",
          "type": "address"
        },
        {
          "indexed": true,
          "internalType": "address",
          "name": "tba",
          "type": "address"
        },
        {
          "indexed": false,
          "internalType": "uint256",
          "name": "startPosition",
          "type": "uint256"
        }
      ],
      "name": "TokenBoundAccountCreated",
      "type": "event"
    },
    {
      "inputs": [
        {
          "internalType": "address",
          "name": "user",
          "type": "address"
        }
      ],
      "name": "accountReady",
      "outputs": [
        {
          "internalType": "bool",
          "name": "",
          "type": "bool"
        }
      ],
      "stateMutability": "view",
      "type": "function"
    },
    {
      "inputs": [],
      "name": "bread",
      "outputs": [
        {
          "internalType": "contract BreadToken",
          "name": "",
          "type": "address"
        }
      ],
      "stateMutability": "view",
      "type": "function"
    },
    {
      "inputs": [],
      "name": "burnOldIngredients",
      "outputs": [],
      "stateMutability": "nonpayable",
      "type": "function"
    },
    {
      "inputs": [],
      "name": "buyIngredient",
      "outputs": [],
      "stateMutability": "nonpayable",
      "type": "function"
    },
    {
      "inputs": [
        {
          "internalType": "address",
          "name": "",
          "type": "address"
        }
      ],
      "name": "canBuy",
      "outputs": [
        {
          "internalType": "bool",
          "name": "",
          "type": "bool"
        }
      ],
      "stateMutability": "view",
      "type": "function"
    },
    {
      "inputs": [
        {
          "internalType": "uint256",
          "name": "position",
          "type": "uint256"
        }
      ],
      "name": "canBuyAtPosition",
      "outputs": [
        {
          "internalType": "bool",
          "name": "",
          "type": "bool"
        }
      ],
      "stateMutability": "view",
      "type": "function"
    },
    {
      "inputs": [
        {
          "internalType": "address",
          "name": "_implementation",
          "type": "address"
        },
        {
          "internalType": "uint256",
          "name": "_chainId",
          "type": "uint256"
        },
        {
          "internalType": "address",
          "name": "_tokenContract",
          "type": "address"
        },
        {
          "internalType": "uint256",
          "name": "_tokenId",
          "type": "uint256"
        },
        {
          "internalType": "uint256",
          "name": "_salt",
          "type": "uint256"
        },
        {
          "internalType": "bytes",
          "name": "_initData",
          "type": "bytes"
        }
      ],
      "name": "createTokenBoundAccount",
      "outputs": [],
      "stateMutability": "nonpayable",
      "type": "function"
    },
    {
      "inputs": [],
      "name": "faucetAmount",
      "outputs": [
        {
          "internalType": "uint256",
          "name": "",
          "type": "uint256"
        }
      ],
      "stateMutability": "view",
      "type": "function"
    },
    {
      "inputs": [],
      "name": "faucetCooldown",
      "outputs": [
        {
          "internalType": "uint256",
          "name": "",
          "type": "uint256"
        }
      ],
      "stateMutability": "view",
      "type": "function"
    },
    {
      "inputs": [],
      "name": "faucetMon",
      "outputs": [
        {
          "internalType": "contract FaucetMon",
          "name": "",
          "type": "address"
        }
      ],
      "stateMutability": "view",
      "type": "function"
    },
    {
      "inputs": [
        {
          "internalType": "address",
          "name": "",
          "type": "address"
        }
      ],
      "name": "faucetUsageCount",
      "outputs": [
        {
          "internalType": "uint256",
          "name": "",
          "type": "uint256"
        }
      ],
      "stateMutability": "view",
      "type": "function"
    },
    {
      "inputs": [],
      "name": "faucets",
      "outputs": [],
      "stateMutability": "nonpayable",
      "type": "function"
    },
    {
      "inputs": [],
      "name": "getFaucetAmount",
      "outputs": [
        {
          "internalType": "uint256",
          "name": "",
          "type": "uint256"
        }
      ],
      "stateMutability": "view",
      "type": "function"
    },
    {
      "inputs": [],
      "name": "getFaucetCooldown",
      "outputs": [
        {
          "internalType": "uint256",
          "name": "",
          "type": "uint256"
        }
      ],
      "stateMutability": "view",
      "type": "function"
    },
    {
      "inputs": [],
      "name": "getGrid",
      "outputs": [
        {
          "components": [
            {
              "internalType": "uint256",
              "name": "id",
              "type": "uint256"
            },
            {
              "internalType": "string",
              "name": "typeGrid",
              "type": "string"
            },
            {
              "internalType": "uint256",
              "name": "ingredientType",
              "type": "uint256"
            },
            {
              "internalType": "uint256",
              "name": "numberOfPlayers",
              "type": "uint256"
            }
          ],
          "internalType": "struct FoodScramble.Box[]",
          "name": "",
          "type": "tuple[]"
        }
      ],
      "stateMutability": "view",
      "type": "function"
    },
    {
      "inputs": [
        {
          "internalType": "uint256",
          "name": "position",
          "type": "uint256"
        }
      ],
      "name": "getIngredientTypeAtPosition",
      "outputs": [
        {
          "internalType": "uint256",
          "name": "",
          "type": "uint256"
        }
      ],
      "stateMutability": "view",
      "type": "function"
    },
    {
      "inputs": [
        {
          "internalType": "address",
          "name": "_owner",
          "type": "address"
        }
      ],
      "name": "getMyFoods",
      "outputs": [
        {
          "internalType": "uint256[]",
          "name": "",
          "type": "uint256[]"
        }
      ],
      "stateMutability": "view",
      "type": "function"
    },
    {
      "inputs": [
        {
          "internalType": "address",
          "name": "playerAddr",
          "type": "address"
        },
        {
          "internalType": "uint256",
          "name": "nonce",
          "type": "uint256"
        }
      ],
      "name": "getRandomRollForUI",
      "outputs": [
        {
          "internalType": "uint8",
          "name": "",
          "type": "uint8"
        }
      ],
      "stateMutability": "view",
      "type": "function"
    },
    {
      "inputs": [
        {
          "internalType": "address",
          "name": "user",
          "type": "address"
        }
      ],
      "name": "getTbaBalance",
      "outputs": [
        {
          "internalType": "uint256",
          "name": "",
          "type": "uint256"
        }
      ],
      "stateMutability": "view",
      "type": "function"
    },
    {
      "inputs": [
        {
          "internalType": "address",
          "name": "user",
          "type": "address"
        },
        {
          "internalType": "address",
          "name": "token",
          "type": "address"
        }
      ],
      "name": "getTbaTokenBalance",
      "outputs": [
        {
          "internalType": "uint256",
          "name": "",
          "type": "uint256"
        }
      ],
      "stateMutability": "view",
      "type": "function"
    },
    {
      "inputs": [
        {
          "internalType": "uint256",
          "name": "",
          "type": "uint256"
        }
      ],
      "name": "grid",
      "outputs": [
        {
          "internalType": "uint256",
          "name": "id",
          "type": "uint256"
        },
        {
          "internalType": "string",
          "name": "typeGrid",
          "type": "string"
        },
        {
          "internalType": "uint256",
          "name": "ingredientType",
          "type": "uint256"
        },
        {
          "internalType": "uint256",
          "name": "numberOfPlayers",
          "type": "uint256"
        }
      ],
      "stateMutability": "view",
      "type": "function"
    },
    {
      "inputs": [],
      "name": "hamburger",
      "outputs": [
        {
          "internalType": "contract FoodNFT",
          "name": "",
          "type": "address"
        }
      ],
      "stateMutability": "view",
      "type": "function"
    },
    {
      "inputs": [
        {
          "internalType": "address",
          "name": "",
          "type": "address"
        },
        {
          "internalType": "enum FoodScramble.IngredientType",
          "name": "",
          "type": "uint8"
        }
      ],
      "name": "inventory",
      "outputs": [
        {
          "internalType": "uint256",
          "name": "",
          "type": "uint256"
        }
      ],
      "stateMutability": "view",
      "type": "function"
    },
    {
      "inputs": [
        {
          "internalType": "address",
          "name": "",
          "type": "address"
        }
      ],
      "name": "isPlayerCreated",
      "outputs": [
        {
          "internalType": "bool",
          "name": "",
          "type": "bool"
        }
      ],
      "stateMutability": "view",
      "type": "function"
    },
    {
      "inputs": [
        {
          "internalType": "address",
          "name": "",
          "type": "address"
        }
      ],
      "name": "lastFaucetUsage",
      "outputs": [
        {
          "internalType": "uint256",
          "name": "",
          "type": "uint256"
        }
      ],
      "stateMutability": "view",
      "type": "function"
    },
    {
      "inputs": [
        {
          "internalType": "address",
          "name": "",
          "type": "address"
        }
      ],
      "name": "lastMintedSpecialBox",
      "outputs": [
        {
          "internalType": "uint256",
          "name": "",
          "type": "uint256"
        }
      ],
      "stateMutability": "view",
      "type": "function"
    },
    {
      "inputs": [],
      "name": "lettuce",
      "outputs": [
        {
          "internalType": "contract LettuceToken",
          "name": "",
          "type": "address"
        }
      ],
      "stateMutability": "view",
      "type": "function"
    },
    {
      "inputs": [],
      "name": "meat",
      "outputs": [
        {
          "internalType": "contract MeatToken",
          "name": "",
          "type": "address"
        }
      ],
      "stateMutability": "view",
      "type": "function"
    },
    {
      "inputs": [],
      "name": "mintFoodNFT",
      "outputs": [],
      "stateMutability": "nonpayable",
      "type": "function"
    },
    {
      "inputs": [],
      "name": "movePlayer",
      "outputs": [],
      "stateMutability": "nonpayable",
      "type": "function"
    },
    {
      "inputs": [
        {
          "internalType": "string",
          "name": "",
          "type": "string"
        }
      ],
      "name": "nameToAddress",
      "outputs": [
        {
          "internalType": "address",
          "name": "",
          "type": "address"
        }
      ],
      "stateMutability": "view",
      "type": "function"
    },
    {
      "inputs": [],
      "name": "owner",
      "outputs": [
        {
          "internalType": "address",
          "name": "",
          "type": "address"
        }
      ],
      "stateMutability": "view",
      "type": "function"
    },
    {
      "inputs": [],
      "name": "paymentGateway",
      "outputs": [
        {
          "internalType": "contract IPaymentGateway",
          "name": "",
          "type": "address"
        }
      ],
      "stateMutability": "view",
      "type": "function"
    },
    {
      "inputs": [
        {
          "internalType": "address",
          "name": "",
          "type": "address"
        }
      ],
      "name": "player",
      "outputs": [
        {
          "internalType": "uint256",
          "name": "",
          "type": "uint256"
        }
      ],
      "stateMutability": "view",
      "type": "function"
    },
    {
      "inputs": [],
      "name": "registry",
      "outputs": [
        {
          "internalType": "contract ERC6551Registry",
          "name": "",
          "type": "address"
        }
      ],
      "stateMutability": "view",
      "type": "function"
    },
    {
      "inputs": [
        {
          "internalType": "address",
          "name": "playerAddr",
          "type": "address"
        }
      ],
      "name": "resetPlayerProgress",
      "outputs": [],
      "stateMutability": "nonpayable",
      "type": "function"
    },
    {
      "inputs": [
        {
          "internalType": "address",
          "name": "",
          "type": "address"
        }
      ],
      "name": "rollCount",
      "outputs": [
        {
          "internalType": "uint256",
          "name": "",
          "type": "uint256"
        }
      ],
      "stateMutability": "view",
      "type": "function"
    },
    {
      "inputs": [
        {
          "internalType": "uint256",
          "name": "_newAmount",
          "type": "uint256"
        }
      ],
      "name": "setFaucetAmount",
      "outputs": [],
      "stateMutability": "nonpayable",
      "type": "function"
    },
    {
      "inputs": [
        {
          "internalType": "uint256",
          "name": "_newCooldown",
          "type": "uint256"
        }
      ],
      "name": "setFaucetCooldown",
      "outputs": [],
      "stateMutability": "nonpayable",
      "type": "function"
    },
    {
      "inputs": [
        {
          "internalType": "address",
          "name": "user",
          "type": "address"
        },
        {
          "internalType": "address",
          "name": "tba",
          "type": "address"
        }
      ],
      "name": "setTBA",
      "outputs": [],
      "stateMutability": "nonpayable",
      "type": "function"
    },
    {
      "inputs": [
        {
          "internalType": "string",
          "name": "name",
          "type": "string"
        }
      ],
      "name": "setUsername",
      "outputs": [],
      "stateMutability": "nonpayable",
      "type": "function"
    },
    {
      "inputs": [
        {
          "internalType": "address",
          "name": "",
          "type": "address"
        }
      ],
      "name": "stats",
      "outputs": [
        {
          "internalType": "uint256",
          "name": "totalRolls",
          "type": "uint256"
        },
        {
          "internalType": "uint256",
          "name": "ingredientsCollected",
          "type": "uint256"
        },
        {
          "internalType": "uint256",
          "name": "foodsMinted",
          "type": "uint256"
        },
        {
          "internalType": "uint256",
          "name": "lastActive",
          "type": "uint256"
        },
        {
          "internalType": "bool",
          "name": "hasSpecialAccess",
          "type": "bool"
        }
      ],
      "stateMutability": "view",
      "type": "function"
    },
    {
      "inputs": [
        {
          "internalType": "address",
          "name": "",
          "type": "address"
        }
      ],
      "name": "tbaList",
      "outputs": [
        {
          "internalType": "address",
          "name": "",
          "type": "address"
        }
      ],
      "stateMutability": "view",
      "type": "function"
    },
    {
      "inputs": [],
      "name": "tomato",
      "outputs": [
        {
          "internalType": "contract TomatoToken",
          "name": "",
          "type": "address"
        }
      ],
      "stateMutability": "view",
      "type": "function"
    },
    {
      "inputs": [
        {
          "internalType": "address",
          "name": "",
          "type": "address"
        },
        {
          "internalType": "uint256",
          "name": "",
          "type": "uint256"
        }
      ],
      "name": "travelHistory",
      "outputs": [
        {
          "internalType": "uint256",
          "name": "",
          "type": "uint256"
        }
      ],
      "stateMutability": "view",
      "type": "function"
    },
    {
      "inputs": [],
      "name": "travelRail",
      "outputs": [],
      "stateMutability": "nonpayable",
      "type": "function"
    },
    {
      "inputs": [],
      "name": "useFaucetMon",
      "outputs": [],
      "stateMutability": "nonpayable",
      "type": "function"
    },
    {
      "inputs": [
        {
          "internalType": "address",
          "name": "",
          "type": "address"
        }
      ],
      "name": "usernames",
      "outputs": [
        {
          "internalType": "string",
          "name": "",
          "type": "string"
        }
      ],
      "stateMutability": "view",
      "type": "function"
    }
  ],
  "transactionHash": "0x202650252513b49a3aba97043d409dec18f292c1d81a982d98ecbac32664d003",
  "args": [
    "0x9bF68A0f0be9A9B6dCeb4D5675745c2f7cFb9483",
    "0x6df309dD5A334E590A17D0F558B4E1d5C6d658f8",
    "0xcF7932Ba9A78C557048d1A3B27c724649ED85ff2",
    "0x87a44a9B6768709c56f0170968edA931E2da8292",
    "0xCecAC2c4aB0145E9119E9764Ed1D7adf75DBEF14",
    "0x472f4784934d39240F093938aD83CcEbCD5e1727",
    "0xAf9A5760AD420D8aA658bc3EF1B40B1a7eb57060",
    "0x4c1C0AE60Cb4180EB46d67C77F0157011937fEb3",
    "0x1dCb189FF485223274987723f9c8E23B37f07DE7"
  ],
  "numDeployments": 3,
  "solcInputHash": "bb7871e242164d46d34a64de68c0b3ca",
  "bytecode": "0x60a06040523480156200001157600080fd5b50604051620036b0380380620036b0833981016040819052620000349162000560565b6001600160a01b03898116608052600080546001600160a01b03199081168b84161782556001805482168b85161790556002805482168a851617905560038054821689851617905560048054821688851617905560058054821687851617905560068054821686851617905560078054909116928416929092179091556014604051908082528060200260200182016040528015620000e857816020015b6060815260200190600190039081620000d25790505b506040805160148082526102a082019092529192506000919060208201610280803683370190505090506040518060400160405280600581526020016453746f766560d81b815250826000815181106200014657620001466200064d565b60200260200101819052506063816000815181106200016957620001696200064d565b602090810291909101015260015b6005811015620001ea5760405180604001604052806005815260200164109c99585960da1b815250838281518110620001b457620001b46200064d565b60200260200101819052506000828281518110620001d657620001d66200064d565b602090810291909101015260010162000177565b506040518060400160405280600481526020016314985a5b60e21b815250826005815181106200021e576200021e6200064d565b60200260200101819052506062816005815181106200024157620002416200064d565b602090810291909101015260065b600a811015620002c157604051806040016040528060048152602001631359585d60e21b8152508382815181106200028b576200028b6200064d565b60200260200101819052506001828281518110620002ad57620002ad6200064d565b60209081029190910101526001016200024f565b506040518060400160405280600581526020016453746f766560d81b81525082600a81518110620002f657620002f66200064d565b6020026020010181905250606381600a815181106200031957620003196200064d565b6020908102919091010152600b5b600f8110156200039c57604051806040016040528060078152602001664c65747475636560c81b8152508382815181106200036657620003666200064d565b602002602001018190525060028282815181106200038857620003886200064d565b602090810291909101015260010162000327565b506040518060400160405280600481526020016314985a5b60e21b81525082600f81518110620003d057620003d06200064d565b6020026020010181905250606281600f81518110620003f357620003f36200064d565b602090810291909101015260105b6014811015620004755760405180604001604052806006815260200165546f6d61746f60d01b8152508382815181106200043f576200043f6200064d565b602002602001018190525060038282815181106200046157620004616200064d565b602090810291909101015260010162000401565b5060005b6014811015620005355760086040518060800160405280838152602001858481518110620004ab57620004ab6200064d565b60200260200101518152602001848481518110620004cd57620004cd6200064d565b602090810291909101810151825260009181018290528354600181810186559483529181902083516004909302019182558201519192909190820190620005159082620006f4565b506040820151600282015560609091015160039091015560010162000479565b505050505050505050505050620007c0565b6001600160a01b03811681146200055d57600080fd5b50565b60008060008060008060008060006101208a8c0312156200058057600080fd5b89516200058d8162000547565b60208b0151909950620005a08162000547565b60408b0151909850620005b38162000547565b60608b0151909750620005c68162000547565b60808b0151909650620005d98162000547565b60a08b0151909550620005ec8162000547565b60c08b0151909450620005ff8162000547565b60e08b0151909350620006128162000547565b6101008b0151909250620006268162000547565b809150509295985092959850929598565b634e487b7160e01b600052604160045260246000fd5b634e487b7160e01b600052603260045260246000fd5b600181811c908216806200067857607f821691505b6020821081036200069957634e487b7160e01b600052602260045260246000fd5b50919050565b601f821115620006ef576000816000526020600020601f850160051c81016020861015620006ca5750805b601f850160051c820191505b81811015620006eb57828155600101620006d6565b5050505b505050565b81516001600160401b0381111562000710576200071062000637565b620007288162000721845462000663565b846200069f565b602080601f831160018114620007605760008415620007475750858301515b600019600386901b1c1916600185901b178555620006eb565b600085815260208120601f198616915b82811015620007915788860151825594840194600190910190840162000770565b5085821015620007b05787850151600019600388901b60f8161c191681555b5050505050600190811b01905550565b608051612eb8620007f8600039600081816105b701528181610ce701528181611663015281816119e60152611e290152612eb86000f3fe608060405234801561001057600080fd5b50600436106102a05760003560e01c80638761bb8f11610167578063bfffbe5b116100ce578063df7af9e011610087578063df7af9e0146106f1578063ed59313a1461071c578063ee91877c1461072f578063f13e76cd1461074f578063ffce975614610762578063fff40ce11461077557600080fd5b8063bfffbe5b1461066b578063c3ce559b1461067e578063ca2169d41461069e578063cfa62473146106b1578063cfc162bb146106c4578063d476f6d3146106cc57600080fd5b80639d548b13116101205780639d548b13146105f5578063a1d27d7014610608578063a9e31a6e14610610578063b111157414610623578063b89e8d0e14610643578063bc1cb46b1461066357600080fd5b80638761bb8f1461052257806389fdfb6d146105355780638bcdcbf3146105485780638da5cb5b146105b257806391359204146105d95780639c281430146105ec57600080fd5b80635284b1f41161020b57806379ac7b86116101c457806379ac7b86146104c55780637b103999146104d85780637e36320b146104eb5780637e969f57146104f457806381d2fd9c14610507578063862942e11461051a57600080fd5b80635284b1f414610454578063582121851461045e578063613ab3bd146104665780636ec6837d1461047957806374151ee2146104b557806374dc0947146104bd57600080fd5b806337afb2281161025d57806337afb2281461039f5780634410734b146103cd578063464ac9c1146103f65780634c54e1b5146103fe57806351cc82701461041e57806351d2cc8f1461043157600080fd5b806307faa7f5146102a55780630808f3eb146102d557806308d88aad146103085780630c4b524c1461033c578063134000c01461035c578063304fa5e114610371575b600080fd5b6002546102b8906001600160a01b031681565b6040516001600160a01b0390911681526020015b60405180910390f35b6102f86102e3366004612683565b600b6020526000908152604090205460ff1681565b60405190151581526020016102cc565b6102b86103163660046126e7565b80516020818301810180516013825292820191909301209152546001600160a01b031681565b61034f61034a366004612683565b610798565b6040516102cc919061277c565b610364610829565b6040516102cc9190612806565b6102f861037f366004612683565b6001600160a01b0390811660009081526009602052604090205416151590565b6103bf6103ad366004612683565b600d6020526000908152604090205481565b6040519081526020016102cc565b6102b86103db366004612683565b6009602052600090815260409020546001600160a01b031681565b6017546103bf565b6103bf61040c366004612683565b600a6020526000908152604090205481565b6103bf61042c366004612893565b610938565b61044461043f3660046128bf565b610969565b6040516102cc94939291906128d8565b61045c610a2d565b005b61045c610cdc565b6103bf610474366004612683565b610eeb565b61045c610487366004612904565b6001600160a01b03918216600090815260096020526040902080546001600160a01b03191691909216179055565b61045c610f57565b61045c611386565b61045c6104d3366004612683565b611658565b6000546102b8906001600160a01b031681565b6103bf60175481565b61045c610502366004612986565b61179b565b61045c6105153660046128bf565b6119db565b61045c611a69565b6102f86105303660046128bf565b611d0a565b6103bf610543366004612904565b611d4e565b610588610556366004612683565b601060205260009081526040902080546001820154600283015460038401546004909401549293919290919060ff1685565b6040805195865260208601949094529284019190915260608301521515608082015260a0016102cc565b6102b87f000000000000000000000000000000000000000000000000000000000000000081565b61045c6105e73660046128bf565b611e1e565b6103bf60165481565b6005546102b8906001600160a01b031681565b61045c611ea4565b6001546102b8906001600160a01b031681565b6103bf610631366004612683565b600c6020526000908152604090205481565b6103bf610651366004612683565b600f6020526000908152604090205481565b6016546103bf565b6003546102b8906001600160a01b031681565b6103bf61068c366004612683565b600e6020526000908152604090205481565b6007546102b8906001600160a01b031681565b6006546102b8906001600160a01b031681565b61045c612085565b6106df6106da366004612893565b612217565b60405160ff90911681526020016102cc565b6103bf6106ff366004612a0c565b601160209081526000928352604080842090915290825290205481565b61045c61072a366004612a3e565b612223565b61074261073d366004612683565b6122e4565b6040516102cc9190612a80565b6103bf61075d3660046128bf565b61237e565b6004546102b8906001600160a01b031681565b6102f8610783366004612683565b60156020526000908152604090205460ff1681565b6001600160a01b0381811660009081526009602052604090819020546005549151630312d49360e21b81529083166004820181905260609390921690630c4b524c90602401600060405180830381865afa1580156107fa573d6000803e3d6000fd5b505050506040513d6000823e601f3d908101601f191682016040526108229190810190612a93565b9392505050565b60606008805480602002602001604051908101604052809291908181526020016000905b8282101561092f57838290600052602060002090600402016040518060800160405290816000820154815260200160018201805461088a90612b39565b80601f01602080910402602001604051908101604052809291908181526020018280546108b690612b39565b80156109035780601f106108d857610100808354040283529160200191610903565b820191906000526020600020905b8154815290600101906020018083116108e657829003601f168201915b50505050508152602001600282015481526020016003820154815250508152602001906001019061084d565b50505050905090565b6014602052816000526040600020818154811061095457600080fd5b90600052602060002001600091509150505481565b6008818154811061097957600080fd5b6000918252602090912060049091020180546001820180549193509061099e90612b39565b80601f01602080910402602001604051908101604052809291908181526020018280546109ca90612b39565b8015610a175780601f106109ec57610100808354040283529160200191610a17565b820191906000526020600020905b8154815290600101906020018083116109fa57829003601f168201915b5050505050908060020154908060030154905084565b336000908152600960205260409020546001600160a01b031680610a885760405162461bcd60e51b815260206004820152600d60248201526c151090481b9bdd08199bdd5b99609a1b60448201526064015b60405180910390fd5b6001600160a01b0381166000908152600c602052604081205490610aac83836123f1565b9050610ab9826001612b89565b6001600160a01b0384166000908152600c6020908152604080832093909355600a9052908120546008805491929183908110610af757610af7612b9c565b90600052602060002090600402016003015411610b4d5760405162461bcd60e51b8152602060048201526014602482015273125b9d985b1a59081c1b185e595c8818dbdd5b9d60621b6044820152606401610a7f565b600160088281548110610b6257610b62612b9c565b90600052602060002090600402016003016000828254610b829190612bb2565b9091555060009050610b9760ff841683612b89565b905060148110610be6576000905060016008600081548110610bbb57610bbb612b9c565b90600052602060002090600402016003016000828254610bdb9190612b89565b90915550610c219050565b600160088281548110610bfb57610bfb612b9c565b90600052602060002090600402016003016000828254610c1b9190612b89565b90915550505b6001600160a01b0385166000908152600a60205260409020819055600880546003919083908110610c5457610c54612b9c565b90600052602060002090600402016002015411610c8f576001600160a01b0385166000908152600b60205260409020805460ff191660011790555b6040805182815260ff851660208201526001600160a01b038716917f717c71b7226e13a6b97d602aded90ba7f6af22014b5c12d972f442a87cd2d50b910160405180910390a25050505050565b336001600160a01b037f00000000000000000000000000000000000000000000000000000000000000001614610d245760405162461bcd60e51b8152600401610a7f90612bc5565b33600090815260096020526040908190205460015491516340c10f1960e01b81526001600160a01b0391821692909116906340c10f1990610d73908490670de0b6b3a764000090600401612be8565b600060405180830381600087803b158015610d8d57600080fd5b505af1158015610da1573d6000803e3d6000fd5b50506002546040516340c10f1960e01b81526001600160a01b0390911692506340c10f199150610ddf908490670de0b6b3a764000090600401612be8565b600060405180830381600087803b158015610df957600080fd5b505af1158015610e0d573d6000803e3d6000fd5b50506003546040516340c10f1960e01b81526001600160a01b0390911692506340c10f199150610e4b908490670de0b6b3a764000090600401612be8565b600060405180830381600087803b158015610e6557600080fd5b505af1158015610e79573d6000803e3d6000fd5b5050600480546040516340c10f1960e01b81526001600160a01b0390911693506340c10f199250610eb6918591670de0b6b3a76400009101612be8565b600060405180830381600087803b158015610ed057600080fd5b505af1158015610ee4573d6000803e3d6000fd5b5050505050565b6001600160a01b0380821660009081526009602052604081205490911680610f475760405162461bcd60e51b815260206004820152600f60248201526e5573657220686173206e6f2054424160881b6044820152606401610a7f565b6001600160a01b03163192915050565b336000908152600960205260409020546001600160a01b031680610fad5760405162461bcd60e51b815260206004820152600d60248201526c151090481b9bdd08199bdd5b99609a1b6044820152606401610a7f565b6001600160a01b0381166000908152600b602052604090205460ff166110155760405162461bcd60e51b815260206004820152601a60248201527f616c72656164792062726f7567687420696e6772656469656e740000000000006044820152606401610a7f565b6001600160a01b0381166000908152600a6020526040812054600880549192918390811061104557611045612b9c565b90600052602060002090600402016040518060800160405290816000820154815260200160018201805461107890612b39565b80601f01602080910402602001604051908101604052809291908181526020018280546110a490612b39565b80156110f15780601f106110c6576101008083540402835291602001916110f1565b820191906000526020600020905b8154815290600101906020018083116110d457829003601f168201915b5050505050815260200160028201548152602001600382015481525050905060038160400151111561115e5760405162461bcd60e51b8152602060048201526016602482015275139bdd08185b881a5b99dc99591a595b9d0819dc9a5960521b6044820152606401610a7f565b80604001516000036111db576001546040516340c10f1960e01b81526001600160a01b03909116906340c10f19906111a4908690670de0b6b3a764000090600401612be8565b600060405180830381600087803b1580156111be57600080fd5b505af11580156111d2573d6000803e3d6000fd5b505050506112df565b8060400151600103611221576002546040516340c10f1960e01b81526001600160a01b03909116906340c10f19906111a4908690670de0b6b3a764000090600401612be8565b8060400151600203611267576003546040516340c10f1960e01b81526001600160a01b03909116906340c10f19906111a4908690670de0b6b3a764000090600401612be8565b80604001516003036112df57600480546040516340c10f1960e01b81526001600160a01b03909116916340c10f19916112ac918791670de0b6b3a76400009101612be8565b600060405180830381600087803b1580156112c657600080fd5b505af11580156112da573d6000803e3d6000fd5b505050505b6001600160a01b0383166000908152600b60209081526040808320805460ff1916905560109091528120600190810180549192909161131f908490612b89565b90915550506001600160a01b038316600081815260106020908152604091829020426003909101558382015182519081529081018590527fc454cc46861f35dc62864de3907f5a3b6f1a5d899112b62b263da327044477f0910160405180910390a2505050565b336000908152600960209081526040808320546001600160a01b0316808452600a9092528220546008805492939290919081106113c5576113c5612b9c565b9060005260206000209060040201604051806080016040529081600082015481526020016001820180546113f890612b39565b80601f016020809104026020016040519081016040528092919081815260200182805461142490612b39565b80156114715780601f1061144657610100808354040283529160200191611471565b820191906000526020600020905b81548152906001019060200180831161145457829003601f168201915b5050505050815260200160028201548152602001600382015481525050905080604001516062146114d65760405162461bcd60e51b815260206004820152600f60248201526e11dbc81d1bc814985a5b0811dc9a59608a1b6044820152606401610a7f565b6001600160a01b0382166000908152600a602052604081205460088054919291600191908490811061150a5761150a612b9c565b9060005260206000209060040201600301600082825461152a9190612bb2565b90915550506001600160a01b0384166000908152600a60205260409020546005036115b157506001600160a01b0383166000908152600a60205260409020600f9081905560088054600191908390811061158657611586612b9c565b906000526020600020906004020160030160008282546115a69190612b89565b9091555061160e9050565b506001600160a01b0383166000908152600a602052604090206005908190556008805460019190839081106115e8576115e8612b9c565b906000526020600020906004020160030160008282546116089190612b89565b90915550505b60408051838152602081018390526001600160a01b038616917f68bbed7339862df6a61f6f40ed9ac31fbdfcc556e276e3bd05649ed39a47e40f910160405180910390a250505050565b336001600160a01b037f000000000000000000000000000000000000000000000000000000000000000016146116c75760405162461bcd60e51b815260206004820152601460248201527313db9b1e481bdddb995c8818d85b881c995cd95d60621b6044820152606401610a7f565b6001600160a01b0381166000908152601060209081526040808320838155600181018490556002810184905560038101849055600401805460ff191690556014909152812061171591612634565b600061172360036001612b89565b905060005b81811015611796576001600160a01b03831660009081526011602052604081208183600381111561175b5761175b612c01565b600381111561176c5761176c612c01565b600381111561177d5761177d612c01565b8152602081019190915260400160002055600101611728565b505050565b600554604051637490f73760e11b81523360048201526000916001600160a01b03169063e921ee6e90602401600060405180830381865afa1580156117e4573d6000803e3d6000fd5b505050506040513d6000823e601f3d908101601f1916820160405261180c9190810190612a93565b9050600081511161185f5760405162461bcd60e51b815260206004820152601760248201527f4d757374206d696e7420436865664e46542066697273740000000000000000006044820152606401610a7f565b848160008151811061187357611873612b9c565b6020026020010151146118c85760405162461bcd60e51b815260206004820152601a60248201527f546f6b656e206d75737420626520796f757220436865664e46540000000000006044820152606401610a7f565b6000805460405163da7323b360e01b81526001600160a01b039091169063da7323b390611905908c908c908c908c908c908c908c90600401612c17565b6020604051808303816000875af1158015611924573d6000803e3d6000fd5b505050506040513d601f19601f820116820180604052508101906119489190612c7b565b33600090815260096020526040902080546001600160a01b0319166001600160a01b038316179055905061197b8161245c565b6001600160a01b0381166000818152600a60205260409081902054905133917f9f8cecf4cfce26b777a90d819f810f91f1dd81d0a7e1a3fe6bb75922fcde41cf916119c891815260200190565b60405180910390a3505050505050505050565b336001600160a01b037f00000000000000000000000000000000000000000000000000000000000000001614611a235760405162461bcd60e51b8152600401610a7f90612bc5565b601680549082905560408051828152602081018490527fd5c900865c3981f605a346229a46710bb52560a90e461926816f770cb1b4549b91015b60405180910390a15050565b3360009081526009602052604090819020546001549151632770a7eb60e21b81526001600160a01b039182169290911690639dc29fac90611ab8908490670de0b6b3a764000090600401612be8565b600060405180830381600087803b158015611ad257600080fd5b505af1158015611ae6573d6000803e3d6000fd5b5050600254604051632770a7eb60e21b81526001600160a01b039091169250639dc29fac9150611b24908490670de0b6b3a764000090600401612be8565b600060405180830381600087803b158015611b3e57600080fd5b505af1158015611b52573d6000803e3d6000fd5b5050600354604051632770a7eb60e21b81526001600160a01b039091169250639dc29fac9150611b90908490670de0b6b3a764000090600401612be8565b600060405180830381600087803b158015611baa57600080fd5b505af1158015611bbe573d6000803e3d6000fd5b505060048054604051632770a7eb60e21b81526001600160a01b039091169350639dc29fac9250611bfb918591670de0b6b3a76400009101612be8565b600060405180830381600087803b158015611c1557600080fd5b505af1158015611c29573d6000803e3d6000fd5b505060055460408051636a436e8960e01b81526001600160a01b038681166004830152602482019290925260096044820152683430b6b13ab933b2b960b91b60648201526000945091169150636a436e89906084016020604051808303816000875af1158015611c9d573d6000803e3d6000fd5b505050506040513d601f19601f82011682018060405250810190611cc19190612c98565b9050816001600160a01b03167fb9a2c905ecea5721a4f3f3b62973d7f758781e6b5affdfd5bb6a2a0cc28ba3d482604051611cfe91815260200190565b60405180910390a25050565b6008546000908210611d1e57506000919050565b600360088381548110611d3357611d33612b9c565b90600052602060002090600402016002015411159050919050565b6001600160a01b0380831660009081526009602052604081205490911680611daa5760405162461bcd60e51b815260206004820152600f60248201526e5573657220686173206e6f2054424160881b6044820152606401610a7f565b6040516370a0823160e01b81526001600160a01b0382811660048301528416906370a0823190602401602060405180830381865afa158015611df0573d6000803e3d6000fd5b505050506040513d601f19601f82011682018060405250810190611e149190612c98565b9150505b92915050565b336001600160a01b037f00000000000000000000000000000000000000000000000000000000000000001614611e665760405162461bcd60e51b8152600401610a7f90612bc5565b601780549082905560408051828152602081018490527f8ddcae6c900e31a96ffcf2f769ac65523cbe587b3a15d3586fec3a28fbc6b1389101611a5d565b336000908152600960209081526040808320546001600160a01b0316808452600a8352928190205490519091611ee691016453746f766560d81b815260050190565b6040516020818303038152906040528051906020012060088281548110611f0f57611f0f612b9c565b9060005260206000209060040201600101604051602001611f309190612cb1565b6040516020818303038152906040528051906020012014611f935760405162461bcd60e51b815260206004820152601c60248201527f6d757374206f6e2073746f766520746f20757365206661756365742e000000006044820152606401610a7f565b601754336000908152600e60205260409020544291611fb191612b89565b81101561200a5760405162461bcd60e51b815260206004820152602160248201527f46617563657420616c726561647920757365642e20506c6561736520776169746044820152601760f91b6064820152608401610a7f565b336000818152600e6020526040908190208390556006546016549151633dab615960e11b81526001600160a01b0390911692637b56c2b29261204e92600401612be8565b600060405180830381600087803b15801561206857600080fd5b505af115801561207c573d6000803e3d6000fd5b50505050505050565b3360009081526009602052604090819020546001549151632770a7eb60e21b81526001600160a01b039182169290911690639dc29fac906120d4908490670de0b6b3a764000090600401612be8565b600060405180830381600087803b1580156120ee57600080fd5b505af1158015612102573d6000803e3d6000fd5b5050600254604051632770a7eb60e21b81526001600160a01b039091169250639dc29fac9150612140908490670de0b6b3a764000090600401612be8565b600060405180830381600087803b15801561215a57600080fd5b505af115801561216e573d6000803e3d6000fd5b5050600354604051632770a7eb60e21b81526001600160a01b039091169250639dc29fac91506121ac908490670de0b6b3a764000090600401612be8565b600060405180830381600087803b1580156121c657600080fd5b505af11580156121da573d6000803e3d6000fd5b505060048054604051632770a7eb60e21b81526001600160a01b039091169350639dc29fac9250610eb6918591670de0b6b3a76400009101612be8565b600061082283836123f1565b336000908152601260205260409020805461223d90612b39565b1590506122835760405162461bcd60e51b8152602060048201526014602482015273155cd95c9b985b5948185b1c9958591e481cd95d60621b6044820152606401610a7f565b33600090815260126020526040902061229d828483612d77565b5033601383836040516122b1929190612e37565b90815260405190819003602001902080546001600160a01b03929092166001600160a01b03199092169190911790555050565b601260205260009081526040902080546122fd90612b39565b80601f016020809104026020016040519081016040528092919081815260200182805461232990612b39565b80156123765780601f1061234b57610100808354040283529160200191612376565b820191906000526020600020905b81548152906001019060200180831161235957829003601f168201915b505050505081565b60085460009082106123c55760405162461bcd60e51b815260206004820152601060248201526f24b73b30b634b2103837b9b4ba34b7b760811b6044820152606401610a7f565b600882815481106123d8576123d8612b9c565b9060005260206000209060040201600201549050919050565b6000806123ff600143612bb2565b60408051914060208301526bffffffffffffffffffffffff19606087901b16908201526054810184905260740160408051601f1981840301815291905280516020909101209050612451600682612e47565b611e14906001612e69565b6001600160a01b03811660009081526015602052604090205460ff16156124ba5760405162461bcd60e51b8152602060048201526012602482015271105b1c9958591e481c9959da5cdd195c995960721b6044820152606401610a7f565b60005b6008548110156125f5576040516453746f766560d81b6020820152602501604051602081830303815290604052805190602001206008828154811061250457612504612b9c565b90600052602060002090600402016001016040516020016125259190612cb1565b60405160208183030381529060405280519060200120036125ed576001600160a01b0382166000908152600a6020526040902081905560088054600191908390811061257357612573612b9c565b906000526020600020906004020160030160008282546125939190612b89565b90915550506001600160a01b03821660008181526015602052604090819020805460ff19166001179055517fb31ba5904c24da7a4eeed78a7e073540fbf64788e158b6f3f55fae6d475ced9590611cfe9084815260200190565b6001016124bd565b5060405162461bcd60e51b8152602060048201526013602482015272139bc814dd1bdd994819dc9a5908199bdd5b99606a1b6044820152606401610a7f565b50805460008255906000526020600020908101906126529190612655565b50565b5b8082111561266a5760008155600101612656565b5090565b6001600160a01b038116811461265257600080fd5b60006020828403121561269557600080fd5b81356108228161266e565b634e487b7160e01b600052604160045260246000fd5b604051601f8201601f1916810167ffffffffffffffff811182821017156126df576126df6126a0565b604052919050565b600060208083850312156126fa57600080fd5b823567ffffffffffffffff8082111561271257600080fd5b818501915085601f83011261272657600080fd5b813581811115612738576127386126a0565b61274a601f8201601f191685016126b6565b9150808252868482850101111561276057600080fd5b8084840185840137600090820190930192909252509392505050565b6020808252825182820181905260009190848201906040850190845b818110156127b457835183529284019291840191600101612798565b50909695505050505050565b6000815180845260005b818110156127e6576020818501810151868301820152016127ca565b506000602082860101526020601f19601f83011685010191505092915050565b600060208083018184528085518083526040925060408601915060408160051b87010184880160005b8381101561288557603f19898403018552815160808151855288820151818a87015261285d828701826127c0565b838a0151878b015260609384015193909601929092525050938601939086019060010161282f565b509098975050505050505050565b600080604083850312156128a657600080fd5b82356128b18161266e565b946020939093013593505050565b6000602082840312156128d157600080fd5b5035919050565b8481526080602082015260006128f160808301866127c0565b6040830194909452506060015292915050565b6000806040838503121561291757600080fd5b82356129228161266e565b915060208301356129328161266e565b809150509250929050565b60008083601f84011261294f57600080fd5b50813567ffffffffffffffff81111561296757600080fd5b60208301915083602082850101111561297f57600080fd5b9250929050565b600080600080600080600060c0888a0312156129a157600080fd5b87356129ac8161266e565b96506020880135955060408801356129c38161266e565b9450606088013593506080880135925060a088013567ffffffffffffffff8111156129ed57600080fd5b6129f98a828b0161293d565b989b979a50959850939692959293505050565b60008060408385031215612a1f57600080fd5b8235612a2a8161266e565b915060208301356004811061293257600080fd5b60008060208385031215612a5157600080fd5b823567ffffffffffffffff811115612a6857600080fd5b612a748582860161293d565b90969095509350505050565b60208152600061082260208301846127c0565b60006020808385031215612aa657600080fd5b825167ffffffffffffffff80821115612abe57600080fd5b818501915085601f830112612ad257600080fd5b815181811115612ae457612ae46126a0565b8060051b9150612af58483016126b6565b8181529183018401918481019088841115612b0f57600080fd5b938501935b83851015612b2d57845182529385019390850190612b14565b98975050505050505050565b600181811c90821680612b4d57607f821691505b602082108103612b6d57634e487b7160e01b600052602260045260246000fd5b50919050565b634e487b7160e01b600052601160045260246000fd5b80820180821115611e1857611e18612b73565b634e487b7160e01b600052603260045260246000fd5b81810381811115611e1857611e18612b73565b6020808252600990820152682737ba1037bbb732b960b91b604082015260600190565b6001600160a01b03929092168252602082015260400190565b634e487b7160e01b600052602160045260246000fd5b6001600160a01b0388811682526020820188905286166040820152606081018590526080810184905260c060a0820181905281018290526000828460e0840137600060e0848401015260e0601f19601f850116830101905098975050505050505050565b600060208284031215612c8d57600080fd5b81516108228161266e565b600060208284031215612caa57600080fd5b5051919050565b6000808354612cbf81612b39565b60018281168015612cd75760018114612cec57612d1b565b60ff1984168752821515830287019450612d1b565b8760005260208060002060005b85811015612d125781548a820152908401908201612cf9565b50505082870194505b50929695505050505050565b601f821115611796576000816000526020600020601f850160051c81016020861015612d505750805b601f850160051c820191505b81811015612d6f57828155600101612d5c565b505050505050565b67ffffffffffffffff831115612d8f57612d8f6126a0565b612da383612d9d8354612b39565b83612d27565b6000601f841160018114612dd75760008515612dbf5750838201355b600019600387901b1c1916600186901b178355610ee4565b600083815260209020601f19861690835b82811015612e085786850135825560209485019460019092019101612de8565b5086821015612e255760001960f88860031b161c19848701351681555b505060018560011b0183555050505050565b8183823760009101908152919050565b600082612e6457634e487b7160e01b600052601260045260246000fd5b500690565b60ff8181168382160190811115611e1857611e18612b7356fea26469706673582212209983f94d66e9898d1e09d579a788df6ccce36e5b89a30bbd6ea118863d24315864736f6c63430008170033",
  "devdoc": {
    "kind": "dev",
    "methods": {},
    "version": 1
  },
  "userdoc": {
    "kind": "user",
    "methods": {
      "getTbaBalance(address)": {
        "notice": "Baca saldo native token (ETH/MON) milik TBA user"
      },
      "getTbaTokenBalance(address,address)": {
        "notice": "Baca saldo ERC20 milik TBA user"
      },
      "setFaucetAmount(uint256)": {
        "notice": "Owner bisa set biaya payment amount manual"
      }
    },
    "version": 1
  },
  "storageLayout": {
    "storage": [
      {
        "astId": 4779,
        "contract": "contracts/FoodScramble.sol:FoodScramble",
        "label": "registry",
        "offset": 0,
        "slot": "0",
        "type": "t_contract(ERC6551Registry)4136"
      },
      {
        "astId": 4782,
        "contract": "contracts/FoodScramble.sol:FoodScramble",
        "label": "bread",
        "offset": 0,
        "slot": "1",
        "type": "t_contract(BreadToken)3886"
      },
      {
        "astId": 4785,
        "contract": "contracts/FoodScramble.sol:FoodScramble",
        "label": "meat",
        "offset": 0,
        "slot": "2",
        "type": "t_contract(MeatToken)6504"
      },
      {
        "astId": 4788,
        "contract": "contracts/FoodScramble.sol:FoodScramble",
        "label": "lettuce",
        "offset": 0,
        "slot": "3",
        "type": "t_contract(LettuceToken)6434"
      },
      {
        "astId": 4791,
        "contract": "contracts/FoodScramble.sol:FoodScramble",
        "label": "tomato",
        "offset": 0,
        "slot": "4",
        "type": "t_contract(TomatoToken)6574"
      },
      {
        "astId": 4794,
        "contract": "contracts/FoodScramble.sol:FoodScramble",
        "label": "hamburger",
        "offset": 0,
        "slot": "5",
        "type": "t_contract(FoodNFT)4766"
      },
      {
        "astId": 4797,
        "contract": "contracts/FoodScramble.sol:FoodScramble",
        "label": "faucetMon",
        "offset": 0,
        "slot": "6",
        "type": "t_contract(FaucetMon)4289"
      },
      {
        "astId": 4800,
        "contract": "contracts/FoodScramble.sol:FoodScramble",
        "label": "paymentGateway",
        "offset": 0,
        "slot": "7",
        "type": "t_contract(IPaymentGateway)6883"
      },
      {
        "astId": 4806,
        "contract": "contracts/FoodScramble.sol:FoodScramble",
        "label": "grid",
        "offset": 0,
        "slot": "8",
        "type": "t_array(t_struct(Box)4872_storage)dyn_storage"
      },
      {
        "astId": 4810,
        "contract": "contracts/FoodScramble.sol:FoodScramble",
        "label": "tbaList",
        "offset": 0,
        "slot": "9",
        "type": "t_mapping(t_address,t_address)"
      },
      {
        "astId": 4814,
        "contract": "contracts/FoodScramble.sol:FoodScramble",
        "label": "player",
        "offset": 0,
        "slot": "10",
        "type": "t_mapping(t_address,t_uint256)"
      },
      {
        "astId": 4818,
        "contract": "contracts/FoodScramble.sol:FoodScramble",
        "label": "canBuy",
        "offset": 0,
        "slot": "11",
        "type": "t_mapping(t_address,t_bool)"
      },
      {
        "astId": 4822,
        "contract": "contracts/FoodScramble.sol:FoodScramble",
        "label": "rollCount",
        "offset": 0,
        "slot": "12",
        "type": "t_mapping(t_address,t_uint256)"
      },
      {
        "astId": 4826,
        "contract": "contracts/FoodScramble.sol:FoodScramble",
        "label": "faucetUsageCount",
        "offset": 0,
        "slot": "13",
        "type": "t_mapping(t_address,t_uint256)"
      },
      {
        "astId": 4830,
        "contract": "contracts/FoodScramble.sol:FoodScramble",
        "label": "lastFaucetUsage",
        "offset": 0,
        "slot": "14",
        "type": "t_mapping(t_address,t_uint256)"
      },
      {
        "astId": 4834,
        "contract": "contracts/FoodScramble.sol:FoodScramble",
        "label": "lastMintedSpecialBox",
        "offset": 0,
        "slot": "15",
        "type": "t_mapping(t_address,t_uint256)"
      },
      {
        "astId": 4839,
        "contract": "contracts/FoodScramble.sol:FoodScramble",
        "label": "stats",
        "offset": 0,
        "slot": "16",
        "type": "t_mapping(t_address,t_struct(PlayerStats)4883_storage)"
      },
      {
        "astId": 4846,
        "contract": "contracts/FoodScramble.sol:FoodScramble",
        "label": "inventory",
        "offset": 0,
        "slot": "17",
        "type": "t_mapping(t_address,t_mapping(t_enum(IngredientType)4888,t_uint256))"
      },
      {
        "astId": 4850,
        "contract": "contracts/FoodScramble.sol:FoodScramble",
        "label": "usernames",
        "offset": 0,
        "slot": "18",
        "type": "t_mapping(t_address,t_string_storage)"
      },
      {
        "astId": 4854,
        "contract": "contracts/FoodScramble.sol:FoodScramble",
        "label": "nameToAddress",
        "offset": 0,
        "slot": "19",
        "type": "t_mapping(t_string_memory_ptr,t_address)"
      },
      {
        "astId": 4859,
        "contract": "contracts/FoodScramble.sol:FoodScramble",
        "label": "travelHistory",
        "offset": 0,
        "slot": "20",
        "type": "t_mapping(t_address,t_array(t_uint256)dyn_storage)"
      },
      {
        "astId": 4863,
        "contract": "contracts/FoodScramble.sol:FoodScramble",
        "label": "isPlayerCreated",
        "offset": 0,
        "slot": "21",
        "type": "t_mapping(t_address,t_bool)"
      },
      {
        "astId": 4946,
        "contract": "contracts/FoodScramble.sol:FoodScramble",
        "label": "faucetAmount",
        "offset": 0,
        "slot": "22",
        "type": "t_uint256"
      },
      {
        "astId": 4948,
        "contract": "contracts/FoodScramble.sol:FoodScramble",
        "label": "faucetCooldown",
        "offset": 0,
        "slot": "23",
        "type": "t_uint256"
      }
    ],
    "types": {
      "t_address": {
        "encoding": "inplace",
        "label": "address",
        "numberOfBytes": "20"
      },
      "t_array(t_struct(Box)4872_storage)dyn_storage": {
        "base": "t_struct(Box)4872_storage",
        "encoding": "dynamic_array",
        "label": "struct FoodScramble.Box[]",
        "numberOfBytes": "32"
      },
      "t_array(t_uint256)dyn_storage": {
        "base": "t_uint256",
        "encoding": "dynamic_array",
        "label": "uint256[]",
        "numberOfBytes": "32"
      },
      "t_bool": {
        "encoding": "inplace",
        "label": "bool",
        "numberOfBytes": "1"
      },
      "t_contract(BreadToken)3886": {
        "encoding": "inplace",
        "label": "contract BreadToken",
        "numberOfBytes": "20"
      },
      "t_contract(ERC6551Registry)4136": {
        "encoding": "inplace",
        "label": "contract ERC6551Registry",
        "numberOfBytes": "20"
      },
      "t_contract(FaucetMon)4289": {
        "encoding": "inplace",
        "label": "contract FaucetMon",
        "numberOfBytes": "20"
      },
      "t_contract(FoodNFT)4766": {
        "encoding": "inplace",
        "label": "contract FoodNFT",
        "numberOfBytes": "20"
      },
      "t_contract(IPaymentGateway)6883": {
        "encoding": "inplace",
        "label": "contract IPaymentGateway",
        "numberOfBytes": "20"
      },
      "t_contract(LettuceToken)6434": {
        "encoding": "inplace",
        "label": "contract LettuceToken",
        "numberOfBytes": "20"
      },
      "t_contract(MeatToken)6504": {
        "encoding": "inplace",
        "label": "contract MeatToken",
        "numberOfBytes": "20"
      },
      "t_contract(TomatoToken)6574": {
        "encoding": "inplace",
        "label": "contract TomatoToken",
        "numberOfBytes": "20"
      },
      "t_enum(IngredientType)4888": {
        "encoding": "inplace",
        "label": "enum FoodScramble.IngredientType",
        "numberOfBytes": "1"
      },
      "t_mapping(t_address,t_address)": {
        "encoding": "mapping",
        "key": "t_address",
        "label": "mapping(address => address)",
        "numberOfBytes": "32",
        "value": "t_address"
      },
      "t_mapping(t_address,t_array(t_uint256)dyn_storage)": {
        "encoding": "mapping",
        "key": "t_address",
        "label": "mapping(address => uint256[])",
        "numberOfBytes": "32",
        "value": "t_array(t_uint256)dyn_storage"
      },
      "t_mapping(t_address,t_bool)": {
        "encoding": "mapping",
        "key": "t_address",
        "label": "mapping(address => bool)",
        "numberOfBytes": "32",
        "value": "t_bool"
      },
      "t_mapping(t_address,t_mapping(t_enum(IngredientType)4888,t_uint256))": {
        "encoding": "mapping",
        "key": "t_address",
        "label": "mapping(address => mapping(enum FoodScramble.IngredientType => uint256))",
        "numberOfBytes": "32",
        "value": "t_mapping(t_enum(IngredientType)4888,t_uint256)"
      },
      "t_mapping(t_address,t_string_storage)": {
        "encoding": "mapping",
        "key": "t_address",
        "label": "mapping(address => string)",
        "numberOfBytes": "32",
        "value": "t_string_storage"
      },
      "t_mapping(t_address,t_struct(PlayerStats)4883_storage)": {
        "encoding": "mapping",
        "key": "t_address",
        "label": "mapping(address => struct FoodScramble.PlayerStats)",
        "numberOfBytes": "32",
        "value": "t_struct(PlayerStats)4883_storage"
      },
      "t_mapping(t_address,t_uint256)": {
        "encoding": "mapping",
        "key": "t_address",
        "label": "mapping(address => uint256)",
        "numberOfBytes": "32",
        "value": "t_uint256"
      },
      "t_mapping(t_enum(IngredientType)4888,t_uint256)": {
        "encoding": "mapping",
        "key": "t_enum(IngredientType)4888",
        "label": "mapping(enum FoodScramble.IngredientType => uint256)",
        "numberOfBytes": "32",
        "value": "t_uint256"
      },
      "t_mapping(t_string_memory_ptr,t_address)": {
        "encoding": "mapping",
        "key": "t_string_memory_ptr",
        "label": "mapping(string => address)",
        "numberOfBytes": "32",
        "value": "t_address"
      },
      "t_string_memory_ptr": {
        "encoding": "bytes",
        "label": "string",
        "numberOfBytes": "32"
      },
      "t_string_storage": {
        "encoding": "bytes",
        "label": "string",
        "numberOfBytes": "32"
      },
      "t_struct(Box)4872_storage": {
        "encoding": "inplace",
        "label": "struct FoodScramble.Box",
        "members": [
          {
            "astId": 4865,
            "contract": "contracts/FoodScramble.sol:FoodScramble",
            "label": "id",
            "offset": 0,
            "slot": "0",
            "type": "t_uint256"
          },
          {
            "astId": 4867,
            "contract": "contracts/FoodScramble.sol:FoodScramble",
            "label": "typeGrid",
            "offset": 0,
            "slot": "1",
            "type": "t_string_storage"
          },
          {
            "astId": 4869,
            "contract": "contracts/FoodScramble.sol:FoodScramble",
            "label": "ingredientType",
            "offset": 0,
            "slot": "2",
            "type": "t_uint256"
          },
          {
            "astId": 4871,
            "contract": "contracts/FoodScramble.sol:FoodScramble",
            "label": "numberOfPlayers",
            "offset": 0,
            "slot": "3",
            "type": "t_uint256"
          }
        ],
        "numberOfBytes": "128"
      },
      "t_struct(PlayerStats)4883_storage": {
        "encoding": "inplace",
        "label": "struct FoodScramble.PlayerStats",
        "members": [
          {
            "astId": 4874,
            "contract": "contracts/FoodScramble.sol:FoodScramble",
            "label": "totalRolls",
            "offset": 0,
            "slot": "0",
            "type": "t_uint256"
          },
          {
            "astId": 4876,
            "contract": "contracts/FoodScramble.sol:FoodScramble",
            "label": "ingredientsCollected",
            "offset": 0,
            "slot": "1",
            "type": "t_uint256"
          },
          {
            "astId": 4878,
            "contract": "contracts/FoodScramble.sol:FoodScramble",
            "label": "foodsMinted",
            "offset": 0,
            "slot": "2",
            "type": "t_uint256"
          },
          {
            "astId": 4880,
            "contract": "contracts/FoodScramble.sol:FoodScramble",
            "label": "lastActive",
            "offset": 0,
            "slot": "3",
            "type": "t_uint256"
          },
          {
            "astId": 4882,
            "contract": "contracts/FoodScramble.sol:FoodScramble",
            "label": "hasSpecialAccess",
            "offset": 0,
            "slot": "4",
            "type": "t_bool"
          }
        ],
        "numberOfBytes": "160"
      },
      "t_uint256": {
        "encoding": "inplace",
        "label": "uint256",
        "numberOfBytes": "32"
      }
    }
  }
}