{
  "address": "0x6888a19847722314417F8fE1Bb3E758448888ac1",
  "abi": [
    {
      "inputs": [
        {
          "internalType": "address",
          "name": "_owner",
          "type": "address"
        },
        {
          "internalType": "address",
          "name": "_registryAddress",
          "type": "address"
        },
        {
          "internalType": "address",
          "name": "_breadAddress",
          "type": "address"
        },
        {
          "internalType": "address",
          "name": "_meatAddress",
          "type": "address"
        },
        {
          "internalType": "address",
          "name": "_lettuceAddress",
          "type": "address"
        },
        {
          "internalType": "address",
          "name": "_tomatoAddress",
          "type": "address"
        },
        {
          "internalType": "address",
          "name": "_chefNFTAddress",
          "type": "address"
        },
        {
          "internalType": "address",
          "name": "_hamburgerAddress",
          "type": "address"
        },
        {
          "internalType": "address payable",
          "name": "_faucetMonAddress",
          "type": "address"
        },
        {
          "internalType": "address payable",
          "name": "_paymentGatewayAddress",
          "type": "address"
        }
      ],
      "stateMutability": "nonpayable",
      "type": "constructor"
    },
    {
      "anonymous": false,
      "inputs": [
        {
          "indexed": false,
          "internalType": "uint256",
          "name": "oldAmount",
          "type": "uint256"
        },
        {
          "indexed": false,
          "internalType": "uint256",
          "name": "newAmount",
          "type": "uint256"
        }
      ],
      "name": "FaucetAmountUpdated",
      "type": "event"
    },
    {
      "anonymous": false,
      "inputs": [
        {
          "indexed": false,
          "internalType": "uint256",
          "name": "oldCooldown",
          "type": "uint256"
        },
        {
          "indexed": false,
          "internalType": "uint256",
          "name": "newCooldown",
          "type": "uint256"
        }
      ],
      "name": "FaucetCooldownUpdated",
      "type": "event"
    },
    {
      "anonymous": false,
      "inputs": [
        {
          "indexed": true,
          "internalType": "address",
          "name": "player",
          "type": "address"
        },
        {
          "indexed": false,
          "internalType": "uint256",
          "name": "tokenId",
          "type": "uint256"
        }
      ],
      "name": "HamburgerMinted",
      "type": "event"
    },
    {
      "anonymous": false,
      "inputs": [
        {
          "indexed": true,
          "internalType": "address",
          "name": "player",
          "type": "address"
        },
        {
          "indexed": false,
          "internalType": "uint256",
          "name": "ingredientType",
          "type": "uint256"
        },
        {
          "indexed": false,
          "internalType": "uint256",
          "name": "position",
          "type": "uint256"
        }
      ],
      "name": "IngredientPurchased",
      "type": "event"
    },
    {
      "anonymous": false,
      "inputs": [
        {
          "indexed": true,
          "internalType": "address",
          "name": "tba",
          "type": "address"
        },
        {
          "indexed": false,
          "internalType": "uint256",
          "name": "gridIndex",
          "type": "uint256"
        }
      ],
      "name": "PlayerCreated",
      "type": "event"
    },
    {
      "anonymous": false,
      "inputs": [
        {
          "indexed": true,
          "internalType": "address",
          "name": "player",
          "type": "address"
        },
        {
          "indexed": false,
          "internalType": "uint256",
          "name": "newPosition",
          "type": "uint256"
        },
        {
          "indexed": false,
          "internalType": "uint256",
          "name": "roll",
          "type": "uint256"
        }
      ],
      "name": "PlayerMoved",
      "type": "event"
    },
    {
      "anonymous": false,
      "inputs": [
        {
          "indexed": true,
          "internalType": "address",
          "name": "player",
          "type": "address"
        },
        {
          "indexed": false,
          "internalType": "uint256",
          "name": "fromPosition",
          "type": "uint256"
        },
        {
          "indexed": false,
          "internalType": "uint256",
          "name": "toPosition",
          "type": "uint256"
        }
      ],
      "name": "RailTraveled",
      "type": "event"
    },
    {
      "anonymous": false,
      "inputs": [
        {
          "indexed": true,
          "internalType": "address",
          "name": "eoa",
          "type": "address"
        },
        {
          "indexed": true,
          "internalType": "address",
          "name": "tba",
          "type": "address"
        },
        {
          "indexed": false,
          "internalType": "uint256",
          "name": "startPosition",
          "type": "uint256"
        }
      ],
      "name": "TokenBoundAccountCreated",
      "type": "event"
    },
    {
      "inputs": [
        {
          "internalType": "address",
          "name": "user",
          "type": "address"
        }
      ],
      "name": "accountReady",
      "outputs": [
        {
          "internalType": "bool",
          "name": "",
          "type": "bool"
        }
      ],
      "stateMutability": "view",
      "type": "function"
    },
    {
      "inputs": [],
      "name": "bread",
      "outputs": [
        {
          "internalType": "contract BreadToken",
          "name": "",
          "type": "address"
        }
      ],
      "stateMutability": "view",
      "type": "function"
    },
    {
      "inputs": [],
      "name": "burnOldIngredients",
      "outputs": [],
      "stateMutability": "nonpayable",
      "type": "function"
    },
    {
      "inputs": [],
      "name": "buyIngredient",
      "outputs": [],
      "stateMutability": "nonpayable",
      "type": "function"
    },
    {
      "inputs": [
        {
          "internalType": "address",
          "name": "",
          "type": "address"
        }
      ],
      "name": "canBuy",
      "outputs": [
        {
          "internalType": "bool",
          "name": "",
          "type": "bool"
        }
      ],
      "stateMutability": "view",
      "type": "function"
    },
    {
      "inputs": [
        {
          "internalType": "uint256",
          "name": "position",
          "type": "uint256"
        }
      ],
      "name": "canBuyAtPosition",
      "outputs": [
        {
          "internalType": "bool",
          "name": "",
          "type": "bool"
        }
      ],
      "stateMutability": "view",
      "type": "function"
    },
    {
      "inputs": [],
      "name": "chefNFT",
      "outputs": [
        {
          "internalType": "contract ChefNFT",
          "name": "",
          "type": "address"
        }
      ],
      "stateMutability": "view",
      "type": "function"
    },
    {
      "inputs": [
        {
          "internalType": "address",
          "name": "_implementation",
          "type": "address"
        },
        {
          "internalType": "uint256",
          "name": "_chainId",
          "type": "uint256"
        },
        {
          "internalType": "address",
          "name": "_tokenContract",
          "type": "address"
        },
        {
          "internalType": "uint256",
          "name": "_tokenId",
          "type": "uint256"
        },
        {
          "internalType": "uint256",
          "name": "_salt",
          "type": "uint256"
        },
        {
          "internalType": "bytes",
          "name": "_initData",
          "type": "bytes"
        }
      ],
      "name": "createTokenBoundAccount",
      "outputs": [],
      "stateMutability": "nonpayable",
      "type": "function"
    },
    {
      "inputs": [],
      "name": "faucetAmount",
      "outputs": [
        {
          "internalType": "uint256",
          "name": "",
          "type": "uint256"
        }
      ],
      "stateMutability": "view",
      "type": "function"
    },
    {
      "inputs": [],
      "name": "faucetCooldown",
      "outputs": [
        {
          "internalType": "uint256",
          "name": "",
          "type": "uint256"
        }
      ],
      "stateMutability": "view",
      "type": "function"
    },
    {
      "inputs": [],
      "name": "faucetMon",
      "outputs": [
        {
          "internalType": "contract FaucetMon",
          "name": "",
          "type": "address"
        }
      ],
      "stateMutability": "view",
      "type": "function"
    },
    {
      "inputs": [
        {
          "internalType": "address",
          "name": "",
          "type": "address"
        }
      ],
      "name": "faucetUsageCount",
      "outputs": [
        {
          "internalType": "uint256",
          "name": "",
          "type": "uint256"
        }
      ],
      "stateMutability": "view",
      "type": "function"
    },
    {
      "inputs": [],
      "name": "faucets",
      "outputs": [],
      "stateMutability": "nonpayable",
      "type": "function"
    },
    {
      "inputs": [],
      "name": "getFaucetAmount",
      "outputs": [
        {
          "internalType": "uint256",
          "name": "",
          "type": "uint256"
        }
      ],
      "stateMutability": "view",
      "type": "function"
    },
    {
      "inputs": [],
      "name": "getFaucetCooldown",
      "outputs": [
        {
          "internalType": "uint256",
          "name": "",
          "type": "uint256"
        }
      ],
      "stateMutability": "view",
      "type": "function"
    },
    {
      "inputs": [],
      "name": "getGrid",
      "outputs": [
        {
          "components": [
            {
              "internalType": "uint256",
              "name": "id",
              "type": "uint256"
            },
            {
              "internalType": "string",
              "name": "typeGrid",
              "type": "string"
            },
            {
              "internalType": "uint256",
              "name": "ingredientType",
              "type": "uint256"
            },
            {
              "internalType": "uint256",
              "name": "numberOfPlayers",
              "type": "uint256"
            }
          ],
          "internalType": "struct FoodScramble.Box[]",
          "name": "",
          "type": "tuple[]"
        }
      ],
      "stateMutability": "view",
      "type": "function"
    },
    {
      "inputs": [
        {
          "internalType": "uint256",
          "name": "position",
          "type": "uint256"
        }
      ],
      "name": "getIngredientTypeAtPosition",
      "outputs": [
        {
          "internalType": "uint256",
          "name": "",
          "type": "uint256"
        }
      ],
      "stateMutability": "view",
      "type": "function"
    },
    {
      "inputs": [
        {
          "internalType": "address",
          "name": "_owner",
          "type": "address"
        }
      ],
      "name": "getMyFoods",
      "outputs": [
        {
          "internalType": "uint256[]",
          "name": "",
          "type": "uint256[]"
        }
      ],
      "stateMutability": "view",
      "type": "function"
    },
    {
      "inputs": [
        {
          "internalType": "address",
          "name": "playerAddr",
          "type": "address"
        },
        {
          "internalType": "uint256",
          "name": "nonce",
          "type": "uint256"
        }
      ],
      "name": "getRandomRollForUI",
      "outputs": [
        {
          "internalType": "uint8",
          "name": "",
          "type": "uint8"
        }
      ],
      "stateMutability": "view",
      "type": "function"
    },
    {
      "inputs": [
        {
          "internalType": "address",
          "name": "user",
          "type": "address"
        }
      ],
      "name": "getTbaBalance",
      "outputs": [
        {
          "internalType": "uint256",
          "name": "",
          "type": "uint256"
        }
      ],
      "stateMutability": "view",
      "type": "function"
    },
    {
      "inputs": [
        {
          "internalType": "address",
          "name": "user",
          "type": "address"
        },
        {
          "internalType": "address",
          "name": "token",
          "type": "address"
        }
      ],
      "name": "getTbaTokenBalance",
      "outputs": [
        {
          "internalType": "uint256",
          "name": "",
          "type": "uint256"
        }
      ],
      "stateMutability": "view",
      "type": "function"
    },
    {
      "inputs": [
        {
          "internalType": "uint256",
          "name": "",
          "type": "uint256"
        }
      ],
      "name": "grid",
      "outputs": [
        {
          "internalType": "uint256",
          "name": "id",
          "type": "uint256"
        },
        {
          "internalType": "string",
          "name": "typeGrid",
          "type": "string"
        },
        {
          "internalType": "uint256",
          "name": "ingredientType",
          "type": "uint256"
        },
        {
          "internalType": "uint256",
          "name": "numberOfPlayers",
          "type": "uint256"
        }
      ],
      "stateMutability": "view",
      "type": "function"
    },
    {
      "inputs": [],
      "name": "hamburger",
      "outputs": [
        {
          "internalType": "contract FoodNFT",
          "name": "",
          "type": "address"
        }
      ],
      "stateMutability": "view",
      "type": "function"
    },
    {
      "inputs": [
        {
          "internalType": "address",
          "name": "",
          "type": "address"
        },
        {
          "internalType": "enum FoodScramble.IngredientType",
          "name": "",
          "type": "uint8"
        }
      ],
      "name": "inventory",
      "outputs": [
        {
          "internalType": "uint256",
          "name": "",
          "type": "uint256"
        }
      ],
      "stateMutability": "view",
      "type": "function"
    },
    {
      "inputs": [
        {
          "internalType": "address",
          "name": "",
          "type": "address"
        }
      ],
      "name": "isPlayerCreated",
      "outputs": [
        {
          "internalType": "bool",
          "name": "",
          "type": "bool"
        }
      ],
      "stateMutability": "view",
      "type": "function"
    },
    {
      "inputs": [
        {
          "internalType": "address",
          "name": "",
          "type": "address"
        }
      ],
      "name": "lastFaucetUsage",
      "outputs": [
        {
          "internalType": "uint256",
          "name": "",
          "type": "uint256"
        }
      ],
      "stateMutability": "view",
      "type": "function"
    },
    {
      "inputs": [
        {
          "internalType": "address",
          "name": "",
          "type": "address"
        }
      ],
      "name": "lastMintedSpecialBox",
      "outputs": [
        {
          "internalType": "uint256",
          "name": "",
          "type": "uint256"
        }
      ],
      "stateMutability": "view",
      "type": "function"
    },
    {
      "inputs": [],
      "name": "lettuce",
      "outputs": [
        {
          "internalType": "contract LettuceToken",
          "name": "",
          "type": "address"
        }
      ],
      "stateMutability": "view",
      "type": "function"
    },
    {
      "inputs": [],
      "name": "meat",
      "outputs": [
        {
          "internalType": "contract MeatToken",
          "name": "",
          "type": "address"
        }
      ],
      "stateMutability": "view",
      "type": "function"
    },
    {
      "inputs": [],
      "name": "mintFoodNFT",
      "outputs": [],
      "stateMutability": "nonpayable",
      "type": "function"
    },
    {
      "inputs": [],
      "name": "movePlayer",
      "outputs": [],
      "stateMutability": "nonpayable",
      "type": "function"
    },
    {
      "inputs": [
        {
          "internalType": "string",
          "name": "",
          "type": "string"
        }
      ],
      "name": "nameToAddress",
      "outputs": [
        {
          "internalType": "address",
          "name": "",
          "type": "address"
        }
      ],
      "stateMutability": "view",
      "type": "function"
    },
    {
      "inputs": [],
      "name": "owner",
      "outputs": [
        {
          "internalType": "address",
          "name": "",
          "type": "address"
        }
      ],
      "stateMutability": "view",
      "type": "function"
    },
    {
      "inputs": [],
      "name": "paymentGateway",
      "outputs": [
        {
          "internalType": "contract IPaymentGateway",
          "name": "",
          "type": "address"
        }
      ],
      "stateMutability": "view",
      "type": "function"
    },
    {
      "inputs": [
        {
          "internalType": "address",
          "name": "",
          "type": "address"
        }
      ],
      "name": "player",
      "outputs": [
        {
          "internalType": "uint256",
          "name": "",
          "type": "uint256"
        }
      ],
      "stateMutability": "view",
      "type": "function"
    },
    {
      "inputs": [],
      "name": "registry",
      "outputs": [
        {
          "internalType": "contract ERC6551Registry",
          "name": "",
          "type": "address"
        }
      ],
      "stateMutability": "view",
      "type": "function"
    },
    {
      "inputs": [
        {
          "internalType": "address",
          "name": "playerAddr",
          "type": "address"
        }
      ],
      "name": "resetPlayerProgress",
      "outputs": [],
      "stateMutability": "nonpayable",
      "type": "function"
    },
    {
      "inputs": [
        {
          "internalType": "address",
          "name": "",
          "type": "address"
        }
      ],
      "name": "rollCount",
      "outputs": [
        {
          "internalType": "uint256",
          "name": "",
          "type": "uint256"
        }
      ],
      "stateMutability": "view",
      "type": "function"
    },
    {
      "inputs": [
        {
          "internalType": "uint256",
          "name": "_newAmount",
          "type": "uint256"
        }
      ],
      "name": "setFaucetAmount",
      "outputs": [],
      "stateMutability": "nonpayable",
      "type": "function"
    },
    {
      "inputs": [
        {
          "internalType": "uint256",
          "name": "_newCooldown",
          "type": "uint256"
        }
      ],
      "name": "setFaucetCooldown",
      "outputs": [],
      "stateMutability": "nonpayable",
      "type": "function"
    },
    {
      "inputs": [
        {
          "internalType": "address",
          "name": "user",
          "type": "address"
        },
        {
          "internalType": "address",
          "name": "tba",
          "type": "address"
        }
      ],
      "name": "setTBA",
      "outputs": [],
      "stateMutability": "nonpayable",
      "type": "function"
    },
    {
      "inputs": [
        {
          "internalType": "string",
          "name": "name",
          "type": "string"
        }
      ],
      "name": "setUsername",
      "outputs": [],
      "stateMutability": "nonpayable",
      "type": "function"
    },
    {
      "inputs": [
        {
          "internalType": "address",
          "name": "",
          "type": "address"
        }
      ],
      "name": "stats",
      "outputs": [
        {
          "internalType": "uint256",
          "name": "totalRolls",
          "type": "uint256"
        },
        {
          "internalType": "uint256",
          "name": "ingredientsCollected",
          "type": "uint256"
        },
        {
          "internalType": "uint256",
          "name": "foodsMinted",
          "type": "uint256"
        },
        {
          "internalType": "uint256",
          "name": "lastActive",
          "type": "uint256"
        },
        {
          "internalType": "bool",
          "name": "hasSpecialAccess",
          "type": "bool"
        }
      ],
      "stateMutability": "view",
      "type": "function"
    },
    {
      "inputs": [
        {
          "internalType": "address",
          "name": "",
          "type": "address"
        }
      ],
      "name": "tbaList",
      "outputs": [
        {
          "internalType": "address",
          "name": "",
          "type": "address"
        }
      ],
      "stateMutability": "view",
      "type": "function"
    },
    {
      "inputs": [],
      "name": "tomato",
      "outputs": [
        {
          "internalType": "contract TomatoToken",
          "name": "",
          "type": "address"
        }
      ],
      "stateMutability": "view",
      "type": "function"
    },
    {
      "inputs": [
        {
          "internalType": "address",
          "name": "",
          "type": "address"
        },
        {
          "internalType": "uint256",
          "name": "",
          "type": "uint256"
        }
      ],
      "name": "travelHistory",
      "outputs": [
        {
          "internalType": "uint256",
          "name": "",
          "type": "uint256"
        }
      ],
      "stateMutability": "view",
      "type": "function"
    },
    {
      "inputs": [],
      "name": "travelRail",
      "outputs": [],
      "stateMutability": "nonpayable",
      "type": "function"
    },
    {
      "inputs": [],
      "name": "useFaucetMon",
      "outputs": [],
      "stateMutability": "nonpayable",
      "type": "function"
    },
    {
      "inputs": [
        {
          "internalType": "address",
          "name": "",
          "type": "address"
        }
      ],
      "name": "usernames",
      "outputs": [
        {
          "internalType": "string",
          "name": "",
          "type": "string"
        }
      ],
      "stateMutability": "view",
      "type": "function"
    }
  ],
  "transactionHash": "0x0f16f6edc2f300616fc8c173909993ca14011d16b59ba1e27adb9686d4eb1a3c",
  "args": [
    "0x9bF68A0f0be9A9B6dCeb4D5675745c2f7cFb9483",
    "0x10394aBA8b053E2813e153cd7899E70FF2D4C06C",
    "0x7fB4937115fBf4d6549073E06F69762C7Ce5AD3d",
    "0x60fbcbA71083EEbB4E3C1B7175d79D56b73Ba5de",
    "0x7a1D4c76d170D388f7e0F0f5ca980526a6B20737",
    "0xE4aE59B941C6d2881d28BD03f10Da57554FCC390",
    "0x386846bE80165fEAEEcb18Ef4d40193583CccA62",
    "0xb172F7B2B9cB7C33585C16E72b75b4830104913C",
    "0xD861c6d71DFaf9F4013a50a9b177C083e90BD006",
    "0x10ab736762ADFd7E3D1C8932c5d3313a862E0548"
  ],
  "numDeployments": 2,
  "solcInputHash": "f9062ffe15c72141f9324d6b24c5b125",
  "bytecode": "0x60a06040523480156200001157600080fd5b50604051620037a0380380620037a083398101604081905262000034916200057f565b6001600160a01b038a8116608052600080546001600160a01b03199081168c84161782556001805482168c85161790556002805482168b85161790556003805482168a851617905560048054821689851617905560058054821688851617905560068054821687851617905560078054821686851617905560088054909116928416929092179091556014604051908082528060200260200182016040528015620000f457816020015b6060815260200190600190039081620000de5790505b506040805160148082526102a082019092529192506000919060208201610280803683370190505090506040518060400160405280600581526020016453746f766560d81b815250826000815181106200015257620001526200067e565b60200260200101819052506063816000815181106200017557620001756200067e565b602090810291909101015260015b6005811015620001f65760405180604001604052806005815260200164109c99585960da1b815250838281518110620001c057620001c06200067e565b60200260200101819052506000828281518110620001e257620001e26200067e565b602090810291909101015260010162000183565b506040518060400160405280600481526020016314985a5b60e21b815250826005815181106200022a576200022a6200067e565b60200260200101819052506062816005815181106200024d576200024d6200067e565b602090810291909101015260065b600a811015620002cd57604051806040016040528060048152602001631359585d60e21b8152508382815181106200029757620002976200067e565b60200260200101819052506001828281518110620002b957620002b96200067e565b60209081029190910101526001016200025b565b506040518060400160405280600581526020016453746f766560d81b81525082600a815181106200030257620003026200067e565b6020026020010181905250606381600a815181106200032557620003256200067e565b6020908102919091010152600b5b600f811015620003a857604051806040016040528060078152602001664c65747475636560c81b8152508382815181106200037257620003726200067e565b602002602001018190525060028282815181106200039457620003946200067e565b602090810291909101015260010162000333565b506040518060400160405280600481526020016314985a5b60e21b81525082600f81518110620003dc57620003dc6200067e565b6020026020010181905250606281600f81518110620003ff57620003ff6200067e565b602090810291909101015260105b6014811015620004815760405180604001604052806006815260200165546f6d61746f60d01b8152508382815181106200044b576200044b6200067e565b602002602001018190525060038282815181106200046d576200046d6200067e565b60209081029190910101526001016200040d565b5060005b6014811015620005415760096040518060800160405280838152602001858481518110620004b757620004b76200067e565b60200260200101518152602001848481518110620004d957620004d96200067e565b60209081029190910181015182526000918101829052835460018181018655948352918190208351600490930201918255820151919290919082019062000521908262000725565b506040820151600282015560609091015160039091015560010162000485565b50505050505050505050505050620007f1565b6001600160a01b03811681146200056a57600080fd5b50565b80516200057a8162000554565b919050565b6000806000806000806000806000806101408b8d031215620005a057600080fd5b8a51620005ad8162000554565b60208c0151909a50620005c08162000554565b60408c0151909950620005d38162000554565b60608c0151909850620005e68162000554565b60808c0151909750620005f98162000554565b60a08c01519096506200060c8162000554565b60c08c01519095506200061f8162000554565b60e08c0151909450620006328162000554565b6101008c0151909350620006468162000554565b9150620006576101208c016200056d565b90509295989b9194979a5092959850565b634e487b7160e01b600052604160045260246000fd5b634e487b7160e01b600052603260045260246000fd5b600181811c90821680620006a957607f821691505b602082108103620006ca57634e487b7160e01b600052602260045260246000fd5b50919050565b601f82111562000720576000816000526020600020601f850160051c81016020861015620006fb5750805b601f850160051c820191505b818110156200071c5782815560010162000707565b5050505b505050565b81516001600160401b0381111562000741576200074162000668565b620007598162000752845462000694565b84620006d0565b602080601f831160018114620007915760008415620007785750858301515b600019600386901b1c1916600185901b1785556200071c565b600085815260208120601f198616915b82811015620007c257888601518255948401946001909101908401620007a1565b5085821015620007e15787850151600019600388901b60f8161c191681555b5050505050600190811b01905550565b608051612f7762000829600039600081816105e501528181610d150152818161169101528181611aa50152611ee80152612f776000f3fe608060405234801561001057600080fd5b50600436106102bb5760003560e01c8063862942e111610182578063bc1cb46b116100e9578063d476f6d3116100a2578063ee91877c1161007c578063ee91877c1461075d578063f13e76cd1461077d578063ffce975614610790578063fff40ce1146107a357600080fd5b8063d476f6d3146106fa578063df7af9e01461071f578063ed59313a1461074a57600080fd5b8063bc1cb46b14610691578063bfffbe5b14610699578063c3ce559b146106ac578063ca2169d4146106cc578063cfa62473146106df578063cfc162bb146106f257600080fd5b80639c2814301161013b5780639c2814301461061a5780639d548b1314610623578063a1d27d7014610636578063a9e31a6e1461063e578063b111157414610651578063b89e8d0e1461067157600080fd5b8063862942e1146105485780638761bb8f1461055057806389fdfb6d146105635780638bcdcbf3146105765780638da5cb5b146105e0578063913592041461060757600080fd5b806351d2cc8f1161022657806374dc0947116101df57806374dc0947146104eb57806379ac7b86146104f35780637b103999146105065780637e36320b146105195780637e969f571461052257806381d2fd9c1461053557600080fd5b806351d2cc8f1461045f5780635284b1f414610482578063582121851461048c578063613ab3bd146104945780636ec6837d146104a757806374151ee2146104e357600080fd5b806336ece0711161027857806336ece071146103ba57806337afb228146103cd5780634410734b146103fb578063464ac9c1146104245780634c54e1b51461042c57806351cc82701461044c57600080fd5b806307faa7f5146102c05780630808f3eb146102f057806308d88aad146103235780630c4b524c14610357578063134000c014610377578063304fa5e11461038c575b600080fd5b6002546102d3906001600160a01b031681565b6040516001600160a01b0390911681526020015b60405180910390f35b6103136102fe366004612742565b600c6020526000908152604090205460ff1681565b60405190151581526020016102e7565b6102d36103313660046127a6565b80516020818301810180516014825292820191909301209152546001600160a01b031681565b61036a610365366004612742565b6107c6565b6040516102e7919061283b565b61037f610857565b6040516102e791906128c5565b61031361039a366004612742565b6001600160a01b039081166000908152600a602052604090205416151590565b6005546102d3906001600160a01b031681565b6103ed6103db366004612742565b600e6020526000908152604090205481565b6040519081526020016102e7565b6102d3610409366004612742565b600a602052600090815260409020546001600160a01b031681565b6018546103ed565b6103ed61043a366004612742565b600b6020526000908152604090205481565b6103ed61045a366004612952565b610966565b61047261046d36600461297e565b610997565b6040516102e79493929190612997565b61048a610a5b565b005b61048a610d0a565b6103ed6104a2366004612742565b610f19565b61048a6104b53660046129c3565b6001600160a01b039182166000908152600a6020526040902080546001600160a01b03191691909216179055565b61048a610f85565b61048a6113b4565b61048a610501366004612742565b611686565b6000546102d3906001600160a01b031681565b6103ed60185481565b61048a610530366004612a45565b6117c9565b61048a61054336600461297e565b611a9a565b61048a611b28565b61031361055e36600461297e565b611dc9565b6103ed6105713660046129c3565b611e0d565b6105b6610584366004612742565b601160205260009081526040902080546001820154600283015460038401546004909401549293919290919060ff1685565b6040805195865260208601949094529284019190915260608301521515608082015260a0016102e7565b6102d37f000000000000000000000000000000000000000000000000000000000000000081565b61048a61061536600461297e565b611edd565b6103ed60175481565b6006546102d3906001600160a01b031681565b61048a611f63565b6001546102d3906001600160a01b031681565b6103ed61065f366004612742565b600d6020526000908152604090205481565b6103ed61067f366004612742565b60106020526000908152604090205481565b6017546103ed565b6003546102d3906001600160a01b031681565b6103ed6106ba366004612742565b600f6020526000908152604090205481565b6008546102d3906001600160a01b031681565b6007546102d3906001600160a01b031681565b61048a612144565b61070d610708366004612952565b6122d6565b60405160ff90911681526020016102e7565b6103ed61072d366004612acb565b601260209081526000928352604080842090915290825290205481565b61048a610758366004612afd565b6122e2565b61077061076b366004612742565b6123a3565b6040516102e79190612b3f565b6103ed61078b36600461297e565b61243d565b6004546102d3906001600160a01b031681565b6103136107b1366004612742565b60166020526000908152604090205460ff1681565b6001600160a01b038181166000908152600a602052604090819020546006549151630312d49360e21b81529083166004820181905260609390921690630c4b524c90602401600060405180830381865afa158015610828573d6000803e3d6000fd5b505050506040513d6000823e601f3d908101601f191682016040526108509190810190612b52565b9392505050565b60606009805480602002602001604051908101604052809291908181526020016000905b8282101561095d5783829060005260206000209060040201604051806080016040529081600082015481526020016001820180546108b890612bf8565b80601f01602080910402602001604051908101604052809291908181526020018280546108e490612bf8565b80156109315780601f1061090657610100808354040283529160200191610931565b820191906000526020600020905b81548152906001019060200180831161091457829003601f168201915b50505050508152602001600282015481526020016003820154815250508152602001906001019061087b565b50505050905090565b6015602052816000526040600020818154811061098257600080fd5b90600052602060002001600091509150505481565b600981815481106109a757600080fd5b600091825260209091206004909102018054600182018054919350906109cc90612bf8565b80601f01602080910402602001604051908101604052809291908181526020018280546109f890612bf8565b8015610a455780601f10610a1a57610100808354040283529160200191610a45565b820191906000526020600020905b815481529060010190602001808311610a2857829003601f168201915b5050505050908060020154908060030154905084565b336000908152600a60205260409020546001600160a01b031680610ab65760405162461bcd60e51b815260206004820152600d60248201526c151090481b9bdd08199bdd5b99609a1b60448201526064015b60405180910390fd5b6001600160a01b0381166000908152600d602052604081205490610ada83836124b0565b9050610ae7826001612c48565b6001600160a01b0384166000908152600d6020908152604080832093909355600b9052908120546009805491929183908110610b2557610b25612c5b565b90600052602060002090600402016003015411610b7b5760405162461bcd60e51b8152602060048201526014602482015273125b9d985b1a59081c1b185e595c8818dbdd5b9d60621b6044820152606401610aad565b600160098281548110610b9057610b90612c5b565b90600052602060002090600402016003016000828254610bb09190612c71565b9091555060009050610bc560ff841683612c48565b905060148110610c14576000905060016009600081548110610be957610be9612c5b565b90600052602060002090600402016003016000828254610c099190612c48565b90915550610c4f9050565b600160098281548110610c2957610c29612c5b565b90600052602060002090600402016003016000828254610c499190612c48565b90915550505b6001600160a01b0385166000908152600b60205260409020819055600980546003919083908110610c8257610c82612c5b565b90600052602060002090600402016002015411610cbd576001600160a01b0385166000908152600c60205260409020805460ff191660011790555b6040805182815260ff851660208201526001600160a01b038716917f717c71b7226e13a6b97d602aded90ba7f6af22014b5c12d972f442a87cd2d50b910160405180910390a25050505050565b336001600160a01b037f00000000000000000000000000000000000000000000000000000000000000001614610d525760405162461bcd60e51b8152600401610aad90612c84565b336000908152600a6020526040908190205460015491516340c10f1960e01b81526001600160a01b0391821692909116906340c10f1990610da1908490670de0b6b3a764000090600401612ca7565b600060405180830381600087803b158015610dbb57600080fd5b505af1158015610dcf573d6000803e3d6000fd5b50506002546040516340c10f1960e01b81526001600160a01b0390911692506340c10f199150610e0d908490670de0b6b3a764000090600401612ca7565b600060405180830381600087803b158015610e2757600080fd5b505af1158015610e3b573d6000803e3d6000fd5b50506003546040516340c10f1960e01b81526001600160a01b0390911692506340c10f199150610e79908490670de0b6b3a764000090600401612ca7565b600060405180830381600087803b158015610e9357600080fd5b505af1158015610ea7573d6000803e3d6000fd5b5050600480546040516340c10f1960e01b81526001600160a01b0390911693506340c10f199250610ee4918591670de0b6b3a76400009101612ca7565b600060405180830381600087803b158015610efe57600080fd5b505af1158015610f12573d6000803e3d6000fd5b5050505050565b6001600160a01b038082166000908152600a602052604081205490911680610f755760405162461bcd60e51b815260206004820152600f60248201526e5573657220686173206e6f2054424160881b6044820152606401610aad565b6001600160a01b03163192915050565b336000908152600a60205260409020546001600160a01b031680610fdb5760405162461bcd60e51b815260206004820152600d60248201526c151090481b9bdd08199bdd5b99609a1b6044820152606401610aad565b6001600160a01b0381166000908152600c602052604090205460ff166110435760405162461bcd60e51b815260206004820152601a60248201527f616c72656164792062726f7567687420696e6772656469656e740000000000006044820152606401610aad565b6001600160a01b0381166000908152600b6020526040812054600980549192918390811061107357611073612c5b565b9060005260206000209060040201604051806080016040529081600082015481526020016001820180546110a690612bf8565b80601f01602080910402602001604051908101604052809291908181526020018280546110d290612bf8565b801561111f5780601f106110f45761010080835404028352916020019161111f565b820191906000526020600020905b81548152906001019060200180831161110257829003601f168201915b5050505050815260200160028201548152602001600382015481525050905060038160400151111561118c5760405162461bcd60e51b8152602060048201526016602482015275139bdd08185b881a5b99dc99591a595b9d0819dc9a5960521b6044820152606401610aad565b8060400151600003611209576001546040516340c10f1960e01b81526001600160a01b03909116906340c10f19906111d2908690670de0b6b3a764000090600401612ca7565b600060405180830381600087803b1580156111ec57600080fd5b505af1158015611200573d6000803e3d6000fd5b5050505061130d565b806040015160010361124f576002546040516340c10f1960e01b81526001600160a01b03909116906340c10f19906111d2908690670de0b6b3a764000090600401612ca7565b8060400151600203611295576003546040516340c10f1960e01b81526001600160a01b03909116906340c10f19906111d2908690670de0b6b3a764000090600401612ca7565b806040015160030361130d57600480546040516340c10f1960e01b81526001600160a01b03909116916340c10f19916112da918791670de0b6b3a76400009101612ca7565b600060405180830381600087803b1580156112f457600080fd5b505af1158015611308573d6000803e3d6000fd5b505050505b6001600160a01b0383166000908152600c60209081526040808320805460ff1916905560119091528120600190810180549192909161134d908490612c48565b90915550506001600160a01b038316600081815260116020908152604091829020426003909101558382015182519081529081018590527fc454cc46861f35dc62864de3907f5a3b6f1a5d899112b62b263da327044477f0910160405180910390a2505050565b336000908152600a60209081526040808320546001600160a01b0316808452600b9092528220546009805492939290919081106113f3576113f3612c5b565b90600052602060002090600402016040518060800160405290816000820154815260200160018201805461142690612bf8565b80601f016020809104026020016040519081016040528092919081815260200182805461145290612bf8565b801561149f5780601f106114745761010080835404028352916020019161149f565b820191906000526020600020905b81548152906001019060200180831161148257829003601f168201915b5050505050815260200160028201548152602001600382015481525050905080604001516062146115045760405162461bcd60e51b815260206004820152600f60248201526e11dbc81d1bc814985a5b0811dc9a59608a1b6044820152606401610aad565b6001600160a01b0382166000908152600b602052604081205460098054919291600191908490811061153857611538612c5b565b906000526020600020906004020160030160008282546115589190612c71565b90915550506001600160a01b0384166000908152600b60205260409020546005036115df57506001600160a01b0383166000908152600b60205260409020600f908190556009805460019190839081106115b4576115b4612c5b565b906000526020600020906004020160030160008282546115d49190612c48565b9091555061163c9050565b506001600160a01b0383166000908152600b6020526040902060059081905560098054600191908390811061161657611616612c5b565b906000526020600020906004020160030160008282546116369190612c48565b90915550505b60408051838152602081018390526001600160a01b038616917f68bbed7339862df6a61f6f40ed9ac31fbdfcc556e276e3bd05649ed39a47e40f910160405180910390a250505050565b336001600160a01b037f000000000000000000000000000000000000000000000000000000000000000016146116f55760405162461bcd60e51b815260206004820152601460248201527313db9b1e481bdddb995c8818d85b881c995cd95d60621b6044820152606401610aad565b6001600160a01b0381166000908152601160209081526040808320838155600181018490556002810184905560038101849055600401805460ff1916905560159091528120611743916126f3565b600061175160036001612c48565b905060005b818110156117c4576001600160a01b03831660009081526012602052604081208183600381111561178957611789612cc0565b600381111561179a5761179a612cc0565b60038111156117ab576117ab612cc0565b8152602081019190915260400160002055600101611756565b505050565b6005546001600160a01b038681169116146118265760405162461bcd60e51b815260206004820152601960248201527f4d7573742075736520436865664e465420636f6e7472616374000000000000006044820152606401610aad565b6005546040516331a9108f60e11b8152600481018690526000916001600160a01b031690636352211e90602401602060405180830381865afa92505050801561188c575060408051601f3d908101601f1916820190925261188991810190612cd6565b60015b6118d15760405162461bcd60e51b815260206004820152601660248201527510da195993919508191bd95cc81b9bdd08195e1a5cdd60521b6044820152606401610aad565b90506001600160a01b0381166119215760405162461bcd60e51b815260206004820152601560248201527424b73b30b634b21021b432b327232a1037bbb732b960591b6044820152606401610aad565b336000908152600a60205260409020546001600160a01b0316156119875760405162461bcd60e51b815260206004820181905260248201527f54424120616c72656164792065786973747320666f72207468697320757365726044820152606401610aad565b6000805460405163da7323b360e01b81526001600160a01b039091169063da7323b3906119c4908c908c908c908c908c908c908c90600401612cf3565b6020604051808303816000875af11580156119e3573d6000803e3d6000fd5b505050506040513d601f19601f82011682018060405250810190611a079190612cd6565b336000908152600a6020526040902080546001600160a01b0319166001600160a01b0383161790559050611a3a8161251b565b6001600160a01b0381166000818152600b60205260409081902054905133917f9f8cecf4cfce26b777a90d819f810f91f1dd81d0a7e1a3fe6bb75922fcde41cf91611a8791815260200190565b60405180910390a3505050505050505050565b336001600160a01b037f00000000000000000000000000000000000000000000000000000000000000001614611ae25760405162461bcd60e51b8152600401610aad90612c84565b601780549082905560408051828152602081018490527fd5c900865c3981f605a346229a46710bb52560a90e461926816f770cb1b4549b91015b60405180910390a15050565b336000908152600a602052604090819020546001549151632770a7eb60e21b81526001600160a01b039182169290911690639dc29fac90611b77908490670de0b6b3a764000090600401612ca7565b600060405180830381600087803b158015611b9157600080fd5b505af1158015611ba5573d6000803e3d6000fd5b5050600254604051632770a7eb60e21b81526001600160a01b039091169250639dc29fac9150611be3908490670de0b6b3a764000090600401612ca7565b600060405180830381600087803b158015611bfd57600080fd5b505af1158015611c11573d6000803e3d6000fd5b5050600354604051632770a7eb60e21b81526001600160a01b039091169250639dc29fac9150611c4f908490670de0b6b3a764000090600401612ca7565b600060405180830381600087803b158015611c6957600080fd5b505af1158015611c7d573d6000803e3d6000fd5b505060048054604051632770a7eb60e21b81526001600160a01b039091169350639dc29fac9250611cba918591670de0b6b3a76400009101612ca7565b600060405180830381600087803b158015611cd457600080fd5b505af1158015611ce8573d6000803e3d6000fd5b505060065460408051636a436e8960e01b81526001600160a01b038681166004830152602482019290925260096044820152683430b6b13ab933b2b960b91b60648201526000945091169150636a436e89906084016020604051808303816000875af1158015611d5c573d6000803e3d6000fd5b505050506040513d601f19601f82011682018060405250810190611d809190612d57565b9050816001600160a01b03167fb9a2c905ecea5721a4f3f3b62973d7f758781e6b5affdfd5bb6a2a0cc28ba3d482604051611dbd91815260200190565b60405180910390a25050565b6009546000908210611ddd57506000919050565b600360098381548110611df257611df2612c5b565b90600052602060002090600402016002015411159050919050565b6001600160a01b038083166000908152600a602052604081205490911680611e695760405162461bcd60e51b815260206004820152600f60248201526e5573657220686173206e6f2054424160881b6044820152606401610aad565b6040516370a0823160e01b81526001600160a01b0382811660048301528416906370a0823190602401602060405180830381865afa158015611eaf573d6000803e3d6000fd5b505050506040513d601f19601f82011682018060405250810190611ed39190612d57565b9150505b92915050565b336001600160a01b037f00000000000000000000000000000000000000000000000000000000000000001614611f255760405162461bcd60e51b8152600401610aad90612c84565b601880549082905560408051828152602081018490527f8ddcae6c900e31a96ffcf2f769ac65523cbe587b3a15d3586fec3a28fbc6b1389101611b1c565b336000908152600a60209081526040808320546001600160a01b0316808452600b8352928190205490519091611fa591016453746f766560d81b815260050190565b6040516020818303038152906040528051906020012060098281548110611fce57611fce612c5b565b9060005260206000209060040201600101604051602001611fef9190612d70565b60405160208183030381529060405280519060200120146120525760405162461bcd60e51b815260206004820152601c60248201527f6d757374206f6e2073746f766520746f20757365206661756365742e000000006044820152606401610aad565b601854336000908152600f6020526040902054429161207091612c48565b8110156120c95760405162461bcd60e51b815260206004820152602160248201527f46617563657420616c726561647920757365642e20506c6561736520776169746044820152601760f91b6064820152608401610aad565b336000818152600f6020526040908190208390556007546017549151633dab615960e11b81526001600160a01b0390911692637b56c2b29261210d92600401612ca7565b600060405180830381600087803b15801561212757600080fd5b505af115801561213b573d6000803e3d6000fd5b50505050505050565b336000908152600a602052604090819020546001549151632770a7eb60e21b81526001600160a01b039182169290911690639dc29fac90612193908490670de0b6b3a764000090600401612ca7565b600060405180830381600087803b1580156121ad57600080fd5b505af11580156121c1573d6000803e3d6000fd5b5050600254604051632770a7eb60e21b81526001600160a01b039091169250639dc29fac91506121ff908490670de0b6b3a764000090600401612ca7565b600060405180830381600087803b15801561221957600080fd5b505af115801561222d573d6000803e3d6000fd5b5050600354604051632770a7eb60e21b81526001600160a01b039091169250639dc29fac915061226b908490670de0b6b3a764000090600401612ca7565b600060405180830381600087803b15801561228557600080fd5b505af1158015612299573d6000803e3d6000fd5b505060048054604051632770a7eb60e21b81526001600160a01b039091169350639dc29fac9250610ee4918591670de0b6b3a76400009101612ca7565b600061085083836124b0565b33600090815260136020526040902080546122fc90612bf8565b1590506123425760405162461bcd60e51b8152602060048201526014602482015273155cd95c9b985b5948185b1c9958591e481cd95d60621b6044820152606401610aad565b33600090815260136020526040902061235c828483612e36565b503360148383604051612370929190612ef6565b90815260405190819003602001902080546001600160a01b03929092166001600160a01b03199092169190911790555050565b601360205260009081526040902080546123bc90612bf8565b80601f01602080910402602001604051908101604052809291908181526020018280546123e890612bf8565b80156124355780601f1061240a57610100808354040283529160200191612435565b820191906000526020600020905b81548152906001019060200180831161241857829003601f168201915b505050505081565b60095460009082106124845760405162461bcd60e51b815260206004820152601060248201526f24b73b30b634b2103837b9b4ba34b7b760811b6044820152606401610aad565b6009828154811061249757612497612c5b565b9060005260206000209060040201600201549050919050565b6000806124be600143612c71565b60408051914060208301526bffffffffffffffffffffffff19606087901b16908201526054810184905260740160408051601f1981840301815291905280516020909101209050612510600682612f06565b611ed3906001612f28565b6001600160a01b03811660009081526016602052604090205460ff16156125795760405162461bcd60e51b8152602060048201526012602482015271105b1c9958591e481c9959da5cdd195c995960721b6044820152606401610aad565b60005b6009548110156126b4576040516453746f766560d81b602082015260250160405160208183030381529060405280519060200120600982815481106125c3576125c3612c5b565b90600052602060002090600402016001016040516020016125e49190612d70565b60405160208183030381529060405280519060200120036126ac576001600160a01b0382166000908152600b6020526040902081905560098054600191908390811061263257612632612c5b565b906000526020600020906004020160030160008282546126529190612c48565b90915550506001600160a01b03821660008181526016602052604090819020805460ff19166001179055517fb31ba5904c24da7a4eeed78a7e073540fbf64788e158b6f3f55fae6d475ced9590611dbd9084815260200190565b60010161257c565b5060405162461bcd60e51b8152602060048201526013602482015272139bc814dd1bdd994819dc9a5908199bdd5b99606a1b6044820152606401610aad565b50805460008255906000526020600020908101906127119190612714565b50565b5b808211156127295760008155600101612715565b5090565b6001600160a01b038116811461271157600080fd5b60006020828403121561275457600080fd5b81356108508161272d565b634e487b7160e01b600052604160045260246000fd5b604051601f8201601f1916810167ffffffffffffffff8111828210171561279e5761279e61275f565b604052919050565b600060208083850312156127b957600080fd5b823567ffffffffffffffff808211156127d157600080fd5b818501915085601f8301126127e557600080fd5b8135818111156127f7576127f761275f565b612809601f8201601f19168501612775565b9150808252868482850101111561281f57600080fd5b8084840185840137600090820190930192909252509392505050565b6020808252825182820181905260009190848201906040850190845b8181101561287357835183529284019291840191600101612857565b50909695505050505050565b6000815180845260005b818110156128a557602081850181015186830182015201612889565b506000602082860101526020601f19601f83011685010191505092915050565b600060208083018184528085518083526040925060408601915060408160051b87010184880160005b8381101561294457603f19898403018552815160808151855288820151818a87015261291c8287018261287f565b838a0151878b01526060938401519390960192909252505093860193908601906001016128ee565b509098975050505050505050565b6000806040838503121561296557600080fd5b82356129708161272d565b946020939093013593505050565b60006020828403121561299057600080fd5b5035919050565b8481526080602082015260006129b0608083018661287f565b6040830194909452506060015292915050565b600080604083850312156129d657600080fd5b82356129e18161272d565b915060208301356129f18161272d565b809150509250929050565b60008083601f840112612a0e57600080fd5b50813567ffffffffffffffff811115612a2657600080fd5b602083019150836020828501011115612a3e57600080fd5b9250929050565b600080600080600080600060c0888a031215612a6057600080fd5b8735612a6b8161272d565b9650602088013595506040880135612a828161272d565b9450606088013593506080880135925060a088013567ffffffffffffffff811115612aac57600080fd5b612ab88a828b016129fc565b989b979a50959850939692959293505050565b60008060408385031215612ade57600080fd5b8235612ae98161272d565b91506020830135600481106129f157600080fd5b60008060208385031215612b1057600080fd5b823567ffffffffffffffff811115612b2757600080fd5b612b33858286016129fc565b90969095509350505050565b602081526000610850602083018461287f565b60006020808385031215612b6557600080fd5b825167ffffffffffffffff80821115612b7d57600080fd5b818501915085601f830112612b9157600080fd5b815181811115612ba357612ba361275f565b8060051b9150612bb4848301612775565b8181529183018401918481019088841115612bce57600080fd5b938501935b83851015612bec57845182529385019390850190612bd3565b98975050505050505050565b600181811c90821680612c0c57607f821691505b602082108103612c2c57634e487b7160e01b600052602260045260246000fd5b50919050565b634e487b7160e01b600052601160045260246000fd5b80820180821115611ed757611ed7612c32565b634e487b7160e01b600052603260045260246000fd5b81810381811115611ed757611ed7612c32565b6020808252600990820152682737ba1037bbb732b960b91b604082015260600190565b6001600160a01b03929092168252602082015260400190565b634e487b7160e01b600052602160045260246000fd5b600060208284031215612ce857600080fd5b81516108508161272d565b6001600160a01b0388811682526020820188905286166040820152606081018590526080810184905260c060a0820181905281018290526000828460e0840137600060e0848401015260e0601f19601f850116830101905098975050505050505050565b600060208284031215612d6957600080fd5b5051919050565b6000808354612d7e81612bf8565b60018281168015612d965760018114612dab57612dda565b60ff1984168752821515830287019450612dda565b8760005260208060002060005b85811015612dd15781548a820152908401908201612db8565b50505082870194505b50929695505050505050565b601f8211156117c4576000816000526020600020601f850160051c81016020861015612e0f5750805b601f850160051c820191505b81811015612e2e57828155600101612e1b565b505050505050565b67ffffffffffffffff831115612e4e57612e4e61275f565b612e6283612e5c8354612bf8565b83612de6565b6000601f841160018114612e965760008515612e7e5750838201355b600019600387901b1c1916600186901b178355610f12565b600083815260209020601f19861690835b82811015612ec75786850135825560209485019460019092019101612ea7565b5086821015612ee45760001960f88860031b161c19848701351681555b505060018560011b0183555050505050565b8183823760009101908152919050565b600082612f2357634e487b7160e01b600052601260045260246000fd5b500690565b60ff8181168382160190811115611ed757611ed7612c3256fea2646970667358221220515bcbf74b3990ae693ae0202f087356c81ca967869cd4e3bb9d53bf8c9bc21664736f6c63430008170033",
  "devdoc": {
    "kind": "dev",
    "methods": {},
    "version": 1
  },
  "userdoc": {
    "kind": "user",
    "methods": {
      "getTbaBalance(address)": {
        "notice": "Baca saldo native token (ETH/MON) milik TBA user"
      },
      "getTbaTokenBalance(address,address)": {
        "notice": "Baca saldo ERC20 milik TBA user"
      },
      "setFaucetAmount(uint256)": {
        "notice": "Owner bisa set biaya payment amount manual"
      }
    },
    "version": 1
  },
  "storageLayout": {
    "storage": [
      {
        "astId": 4845,
        "contract": "contracts/FoodScramble.sol:FoodScramble",
        "label": "registry",
        "offset": 0,
        "slot": "0",
        "type": "t_contract(ERC6551Registry)4330"
      },
      {
        "astId": 4848,
        "contract": "contracts/FoodScramble.sol:FoodScramble",
        "label": "bread",
        "offset": 0,
        "slot": "1",
        "type": "t_contract(BreadToken)3886"
      },
      {
        "astId": 4851,
        "contract": "contracts/FoodScramble.sol:FoodScramble",
        "label": "meat",
        "offset": 0,
        "slot": "2",
        "type": "t_contract(MeatToken)6609"
      },
      {
        "astId": 4854,
        "contract": "contracts/FoodScramble.sol:FoodScramble",
        "label": "lettuce",
        "offset": 0,
        "slot": "3",
        "type": "t_contract(LettuceToken)6539"
      },
      {
        "astId": 4857,
        "contract": "contracts/FoodScramble.sol:FoodScramble",
        "label": "tomato",
        "offset": 0,
        "slot": "4",
        "type": "t_contract(TomatoToken)6679"
      },
      {
        "astId": 4860,
        "contract": "contracts/FoodScramble.sol:FoodScramble",
        "label": "chefNFT",
        "offset": 0,
        "slot": "5",
        "type": "t_contract(ChefNFT)4080"
      },
      {
        "astId": 4863,
        "contract": "contracts/FoodScramble.sol:FoodScramble",
        "label": "hamburger",
        "offset": 0,
        "slot": "6",
        "type": "t_contract(FoodNFT)4831"
      },
      {
        "astId": 4866,
        "contract": "contracts/FoodScramble.sol:FoodScramble",
        "label": "faucetMon",
        "offset": 0,
        "slot": "7",
        "type": "t_contract(FaucetMon)4483"
      },
      {
        "astId": 4869,
        "contract": "contracts/FoodScramble.sol:FoodScramble",
        "label": "paymentGateway",
        "offset": 0,
        "slot": "8",
        "type": "t_contract(IPaymentGateway)6686"
      },
      {
        "astId": 4875,
        "contract": "contracts/FoodScramble.sol:FoodScramble",
        "label": "grid",
        "offset": 0,
        "slot": "9",
        "type": "t_array(t_struct(Box)4941_storage)dyn_storage"
      },
      {
        "astId": 4879,
        "contract": "contracts/FoodScramble.sol:FoodScramble",
        "label": "tbaList",
        "offset": 0,
        "slot": "10",
        "type": "t_mapping(t_address,t_address)"
      },
      {
        "astId": 4883,
        "contract": "contracts/FoodScramble.sol:FoodScramble",
        "label": "player",
        "offset": 0,
        "slot": "11",
        "type": "t_mapping(t_address,t_uint256)"
      },
      {
        "astId": 4887,
        "contract": "contracts/FoodScramble.sol:FoodScramble",
        "label": "canBuy",
        "offset": 0,
        "slot": "12",
        "type": "t_mapping(t_address,t_bool)"
      },
      {
        "astId": 4891,
        "contract": "contracts/FoodScramble.sol:FoodScramble",
        "label": "rollCount",
        "offset": 0,
        "slot": "13",
        "type": "t_mapping(t_address,t_uint256)"
      },
      {
        "astId": 4895,
        "contract": "contracts/FoodScramble.sol:FoodScramble",
        "label": "faucetUsageCount",
        "offset": 0,
        "slot": "14",
        "type": "t_mapping(t_address,t_uint256)"
      },
      {
        "astId": 4899,
        "contract": "contracts/FoodScramble.sol:FoodScramble",
        "label": "lastFaucetUsage",
        "offset": 0,
        "slot": "15",
        "type": "t_mapping(t_address,t_uint256)"
      },
      {
        "astId": 4903,
        "contract": "contracts/FoodScramble.sol:FoodScramble",
        "label": "lastMintedSpecialBox",
        "offset": 0,
        "slot": "16",
        "type": "t_mapping(t_address,t_uint256)"
      },
      {
        "astId": 4908,
        "contract": "contracts/FoodScramble.sol:FoodScramble",
        "label": "stats",
        "offset": 0,
        "slot": "17",
        "type": "t_mapping(t_address,t_struct(PlayerStats)4952_storage)"
      },
      {
        "astId": 4915,
        "contract": "contracts/FoodScramble.sol:FoodScramble",
        "label": "inventory",
        "offset": 0,
        "slot": "18",
        "type": "t_mapping(t_address,t_mapping(t_enum(IngredientType)4957,t_uint256))"
      },
      {
        "astId": 4919,
        "contract": "contracts/FoodScramble.sol:FoodScramble",
        "label": "usernames",
        "offset": 0,
        "slot": "19",
        "type": "t_mapping(t_address,t_string_storage)"
      },
      {
        "astId": 4923,
        "contract": "contracts/FoodScramble.sol:FoodScramble",
        "label": "nameToAddress",
        "offset": 0,
        "slot": "20",
        "type": "t_mapping(t_string_memory_ptr,t_address)"
      },
      {
        "astId": 4928,
        "contract": "contracts/FoodScramble.sol:FoodScramble",
        "label": "travelHistory",
        "offset": 0,
        "slot": "21",
        "type": "t_mapping(t_address,t_array(t_uint256)dyn_storage)"
      },
      {
        "astId": 4932,
        "contract": "contracts/FoodScramble.sol:FoodScramble",
        "label": "isPlayerCreated",
        "offset": 0,
        "slot": "22",
        "type": "t_mapping(t_address,t_bool)"
      },
      {
        "astId": 5015,
        "contract": "contracts/FoodScramble.sol:FoodScramble",
        "label": "faucetAmount",
        "offset": 0,
        "slot": "23",
        "type": "t_uint256"
      },
      {
        "astId": 5017,
        "contract": "contracts/FoodScramble.sol:FoodScramble",
        "label": "faucetCooldown",
        "offset": 0,
        "slot": "24",
        "type": "t_uint256"
      }
    ],
    "types": {
      "t_address": {
        "encoding": "inplace",
        "label": "address",
        "numberOfBytes": "20"
      },
      "t_array(t_struct(Box)4941_storage)dyn_storage": {
        "base": "t_struct(Box)4941_storage",
        "encoding": "dynamic_array",
        "label": "struct FoodScramble.Box[]",
        "numberOfBytes": "32"
      },
      "t_array(t_uint256)dyn_storage": {
        "base": "t_uint256",
        "encoding": "dynamic_array",
        "label": "uint256[]",
        "numberOfBytes": "32"
      },
      "t_bool": {
        "encoding": "inplace",
        "label": "bool",
        "numberOfBytes": "1"
      },
      "t_contract(BreadToken)3886": {
        "encoding": "inplace",
        "label": "contract BreadToken",
        "numberOfBytes": "20"
      },
      "t_contract(ChefNFT)4080": {
        "encoding": "inplace",
        "label": "contract ChefNFT",
        "numberOfBytes": "20"
      },
      "t_contract(ERC6551Registry)4330": {
        "encoding": "inplace",
        "label": "contract ERC6551Registry",
        "numberOfBytes": "20"
      },
      "t_contract(FaucetMon)4483": {
        "encoding": "inplace",
        "label": "contract FaucetMon",
        "numberOfBytes": "20"
      },
      "t_contract(FoodNFT)4831": {
        "encoding": "inplace",
        "label": "contract FoodNFT",
        "numberOfBytes": "20"
      },
      "t_contract(IPaymentGateway)6686": {
        "encoding": "inplace",
        "label": "contract IPaymentGateway",
        "numberOfBytes": "20"
      },
      "t_contract(LettuceToken)6539": {
        "encoding": "inplace",
        "label": "contract LettuceToken",
        "numberOfBytes": "20"
      },
      "t_contract(MeatToken)6609": {
        "encoding": "inplace",
        "label": "contract MeatToken",
        "numberOfBytes": "20"
      },
      "t_contract(TomatoToken)6679": {
        "encoding": "inplace",
        "label": "contract TomatoToken",
        "numberOfBytes": "20"
      },
      "t_enum(IngredientType)4957": {
        "encoding": "inplace",
        "label": "enum FoodScramble.IngredientType",
        "numberOfBytes": "1"
      },
      "t_mapping(t_address,t_address)": {
        "encoding": "mapping",
        "key": "t_address",
        "label": "mapping(address => address)",
        "numberOfBytes": "32",
        "value": "t_address"
      },
      "t_mapping(t_address,t_array(t_uint256)dyn_storage)": {
        "encoding": "mapping",
        "key": "t_address",
        "label": "mapping(address => uint256[])",
        "numberOfBytes": "32",
        "value": "t_array(t_uint256)dyn_storage"
      },
      "t_mapping(t_address,t_bool)": {
        "encoding": "mapping",
        "key": "t_address",
        "label": "mapping(address => bool)",
        "numberOfBytes": "32",
        "value": "t_bool"
      },
      "t_mapping(t_address,t_mapping(t_enum(IngredientType)4957,t_uint256))": {
        "encoding": "mapping",
        "key": "t_address",
        "label": "mapping(address => mapping(enum FoodScramble.IngredientType => uint256))",
        "numberOfBytes": "32",
        "value": "t_mapping(t_enum(IngredientType)4957,t_uint256)"
      },
      "t_mapping(t_address,t_string_storage)": {
        "encoding": "mapping",
        "key": "t_address",
        "label": "mapping(address => string)",
        "numberOfBytes": "32",
        "value": "t_string_storage"
      },
      "t_mapping(t_address,t_struct(PlayerStats)4952_storage)": {
        "encoding": "mapping",
        "key": "t_address",
        "label": "mapping(address => struct FoodScramble.PlayerStats)",
        "numberOfBytes": "32",
        "value": "t_struct(PlayerStats)4952_storage"
      },
      "t_mapping(t_address,t_uint256)": {
        "encoding": "mapping",
        "key": "t_address",
        "label": "mapping(address => uint256)",
        "numberOfBytes": "32",
        "value": "t_uint256"
      },
      "t_mapping(t_enum(IngredientType)4957,t_uint256)": {
        "encoding": "mapping",
        "key": "t_enum(IngredientType)4957",
        "label": "mapping(enum FoodScramble.IngredientType => uint256)",
        "numberOfBytes": "32",
        "value": "t_uint256"
      },
      "t_mapping(t_string_memory_ptr,t_address)": {
        "encoding": "mapping",
        "key": "t_string_memory_ptr",
        "label": "mapping(string => address)",
        "numberOfBytes": "32",
        "value": "t_address"
      },
      "t_string_memory_ptr": {
        "encoding": "bytes",
        "label": "string",
        "numberOfBytes": "32"
      },
      "t_string_storage": {
        "encoding": "bytes",
        "label": "string",
        "numberOfBytes": "32"
      },
      "t_struct(Box)4941_storage": {
        "encoding": "inplace",
        "label": "struct FoodScramble.Box",
        "members": [
          {
            "astId": 4934,
            "contract": "contracts/FoodScramble.sol:FoodScramble",
            "label": "id",
            "offset": 0,
            "slot": "0",
            "type": "t_uint256"
          },
          {
            "astId": 4936,
            "contract": "contracts/FoodScramble.sol:FoodScramble",
            "label": "typeGrid",
            "offset": 0,
            "slot": "1",
            "type": "t_string_storage"
          },
          {
            "astId": 4938,
            "contract": "contracts/FoodScramble.sol:FoodScramble",
            "label": "ingredientType",
            "offset": 0,
            "slot": "2",
            "type": "t_uint256"
          },
          {
            "astId": 4940,
            "contract": "contracts/FoodScramble.sol:FoodScramble",
            "label": "numberOfPlayers",
            "offset": 0,
            "slot": "3",
            "type": "t_uint256"
          }
        ],
        "numberOfBytes": "128"
      },
      "t_struct(PlayerStats)4952_storage": {
        "encoding": "inplace",
        "label": "struct FoodScramble.PlayerStats",
        "members": [
          {
            "astId": 4943,
            "contract": "contracts/FoodScramble.sol:FoodScramble",
            "label": "totalRolls",
            "offset": 0,
            "slot": "0",
            "type": "t_uint256"
          },
          {
            "astId": 4945,
            "contract": "contracts/FoodScramble.sol:FoodScramble",
            "label": "ingredientsCollected",
            "offset": 0,
            "slot": "1",
            "type": "t_uint256"
          },
          {
            "astId": 4947,
            "contract": "contracts/FoodScramble.sol:FoodScramble",
            "label": "foodsMinted",
            "offset": 0,
            "slot": "2",
            "type": "t_uint256"
          },
          {
            "astId": 4949,
            "contract": "contracts/FoodScramble.sol:FoodScramble",
            "label": "lastActive",
            "offset": 0,
            "slot": "3",
            "type": "t_uint256"
          },
          {
            "astId": 4951,
            "contract": "contracts/FoodScramble.sol:FoodScramble",
            "label": "hasSpecialAccess",
            "offset": 0,
            "slot": "4",
            "type": "t_bool"
          }
        ],
        "numberOfBytes": "160"
      },
      "t_uint256": {
        "encoding": "inplace",
        "label": "uint256",
        "numberOfBytes": "32"
      }
    }
  }
}