{
  "address": "0x10ab736762ADFd7E3D1C8932c5d3313a862E0548",
  "abi": [
    {
      "inputs": [],
      "stateMutability": "nonpayable",
      "type": "constructor"
    },
    {
      "inputs": [
        {
          "internalType": "address",
          "name": "target",
          "type": "address"
        }
      ],
      "name": "AddressEmptyCode",
      "type": "error"
    },
    {
      "inputs": [
        {
          "internalType": "address",
          "name": "account",
          "type": "address"
        }
      ],
      "name": "AddressInsufficientBalance",
      "type": "error"
    },
    {
      "inputs": [],
      "name": "FailedInnerCall",
      "type": "error"
    },
    {
      "inputs": [
        {
          "internalType": "address",
          "name": "owner",
          "type": "address"
        }
      ],
      "name": "OwnableInvalidOwner",
      "type": "error"
    },
    {
      "inputs": [
        {
          "internalType": "address",
          "name": "account",
          "type": "address"
        }
      ],
      "name": "OwnableUnauthorizedAccount",
      "type": "error"
    },
    {
      "inputs": [],
      "name": "ReentrancyGuardReentrantCall",
      "type": "error"
    },
    {
      "inputs": [
        {
          "internalType": "address",
          "name": "token",
          "type": "address"
        }
      ],
      "name": "SafeERC20FailedOperation",
      "type": "error"
    },
    {
      "anonymous": false,
      "inputs": [
        {
          "indexed": true,
          "internalType": "address",
          "name": "payer",
          "type": "address"
        },
        {
          "indexed": true,
          "internalType": "address",
          "name": "token",
          "type": "address"
        },
        {
          "indexed": false,
          "internalType": "uint256",
          "name": "amount",
          "type": "uint256"
        },
        {
          "indexed": false,
          "internalType": "bytes",
          "name": "metadata",
          "type": "bytes"
        }
      ],
      "name": "ERC20PaymentReceived",
      "type": "event"
    },
    {
      "anonymous": false,
      "inputs": [
        {
          "indexed": true,
          "internalType": "address",
          "name": "token",
          "type": "address"
        },
        {
          "indexed": true,
          "internalType": "address",
          "name": "receiver",
          "type": "address"
        },
        {
          "indexed": false,
          "internalType": "uint256",
          "name": "amount",
          "type": "uint256"
        }
      ],
      "name": "ERC20Withdrawn",
      "type": "event"
    },
    {
      "anonymous": false,
      "inputs": [
        {
          "indexed": true,
          "internalType": "address",
          "name": "payer",
          "type": "address"
        },
        {
          "indexed": false,
          "internalType": "uint256",
          "name": "amount",
          "type": "uint256"
        },
        {
          "indexed": false,
          "internalType": "bytes",
          "name": "metadata",
          "type": "bytes"
        }
      ],
      "name": "NativePaymentReceived",
      "type": "event"
    },
    {
      "anonymous": false,
      "inputs": [
        {
          "indexed": true,
          "internalType": "address",
          "name": "previousOwner",
          "type": "address"
        },
        {
          "indexed": true,
          "internalType": "address",
          "name": "newOwner",
          "type": "address"
        }
      ],
      "name": "OwnershipTransferred",
      "type": "event"
    },
    {
      "anonymous": false,
      "inputs": [
        {
          "indexed": true,
          "internalType": "address",
          "name": "receiver",
          "type": "address"
        },
        {
          "indexed": false,
          "internalType": "uint256",
          "name": "amount",
          "type": "uint256"
        }
      ],
      "name": "Withdrawn",
      "type": "event"
    },
    {
      "stateMutability": "payable",
      "type": "fallback"
    },
    {
      "inputs": [
        {
          "internalType": "address",
          "name": "token",
          "type": "address"
        }
      ],
      "name": "erc20Balance",
      "outputs": [
        {
          "internalType": "uint256",
          "name": "",
          "type": "uint256"
        }
      ],
      "stateMutability": "view",
      "type": "function"
    },
    {
      "inputs": [],
      "name": "nativeBalance",
      "outputs": [
        {
          "internalType": "uint256",
          "name": "",
          "type": "uint256"
        }
      ],
      "stateMutability": "view",
      "type": "function"
    },
    {
      "inputs": [],
      "name": "owner",
      "outputs": [
        {
          "internalType": "address",
          "name": "",
          "type": "address"
        }
      ],
      "stateMutability": "view",
      "type": "function"
    },
    {
      "inputs": [
        {
          "internalType": "address",
          "name": "token",
          "type": "address"
        },
        {
          "internalType": "uint256",
          "name": "amount",
          "type": "uint256"
        },
        {
          "internalType": "bytes",
          "name": "metadata",
          "type": "bytes"
        }
      ],
      "name": "payERC20",
      "outputs": [],
      "stateMutability": "nonpayable",
      "type": "function"
    },
    {
      "inputs": [
        {
          "internalType": "bytes",
          "name": "metadata",
          "type": "bytes"
        }
      ],
      "name": "payNative",
      "outputs": [],
      "stateMutability": "payable",
      "type": "function"
    },
    {
      "inputs": [],
      "name": "renounceOwnership",
      "outputs": [],
      "stateMutability": "nonpayable",
      "type": "function"
    },
    {
      "inputs": [
        {
          "internalType": "address",
          "name": "token",
          "type": "address"
        },
        {
          "internalType": "address",
          "name": "to",
          "type": "address"
        },
        {
          "internalType": "uint256",
          "name": "amount",
          "type": "uint256"
        }
      ],
      "name": "rescueERC20",
      "outputs": [],
      "stateMutability": "nonpayable",
      "type": "function"
    },
    {
      "inputs": [
        {
          "internalType": "address",
          "name": "newOwner",
          "type": "address"
        }
      ],
      "name": "transferOwnership",
      "outputs": [],
      "stateMutability": "nonpayable",
      "type": "function"
    },
    {
      "inputs": [
        {
          "internalType": "address",
          "name": "token",
          "type": "address"
        },
        {
          "internalType": "address",
          "name": "receiver",
          "type": "address"
        },
        {
          "internalType": "uint256",
          "name": "amount",
          "type": "uint256"
        }
      ],
      "name": "withdrawERC20",
      "outputs": [],
      "stateMutability": "nonpayable",
      "type": "function"
    },
    {
      "inputs": [
        {
          "internalType": "address payable",
          "name": "receiver",
          "type": "address"
        },
        {
          "internalType": "uint256",
          "name": "amount",
          "type": "uint256"
        }
      ],
      "name": "withdrawNative",
      "outputs": [],
      "stateMutability": "nonpayable",
      "type": "function"
    },
    {
      "stateMutability": "payable",
      "type": "receive"
    }
  ],
  "transactionHash": "0xbe63056a0cc3b4a2c141123df216271992c1bf4869b1186fd1ca3a057741ddae",
  "args": [],
  "numDeployments": 1,
  "solcInputHash": "ff740727392c95dbe8f9b1b72db3819d",
  "bytecode": "0x608060405234801561001057600080fd5b50338061003757604051631e4fbdf760e01b81526000600482015260240160405180910390fd5b6100408161004a565b506001805561009a565b600080546001600160a01b038381166001600160a01b0319831681178455604051919092169283917f8be0079c531659141344cd1fd0a4f28419497f9722a3daafe3b4186f6b6457e09190a35050565b610d86806100a96000396000f3fe6080604052600436106100955760003560e01c80638da5cb5b116100595780638da5cb5b146101d1578063b2118a8d146101f9578063b478fc0714610219578063b775af6314610239578063f2fde38b1461024c576100ee565b806307b18bde1461013857806311fa67141461015a57806344004cc11461017a578063715018a61461019a578063865fc501146101af576100ee565b366100ee57336001600160a01b03167f6d54ae56da3ca390cbb097f1726bcc05c7544f57e9aa323d981eeefc4c29c1dd346040516100e491815260406020820181905260009082015260600190565b60405180910390a2005b336001600160a01b03167f6d54ae56da3ca390cbb097f1726bcc05c7544f57e9aa323d981eeefc4c29c1dd346040516100e491815260406020820181905260009082015260600190565b34801561014457600080fd5b50610158610153366004610b3f565b61026c565b005b34801561016657600080fd5b50610158610175366004610bb4565b610436565b34801561018657600080fd5b50610158610195366004610c10565b610557565b3480156101a657600080fd5b50610158610682565b3480156101bb57600080fd5b50475b6040519081526020015b60405180910390f35b3480156101dd57600080fd5b506000546040516001600160a01b0390911681526020016101c8565b34801561020557600080fd5b50610158610214366004610c10565b610696565b34801561022557600080fd5b506101be610234366004610c51565b6106fc565b610158610247366004610c6e565b61076d565b34801561025857600080fd5b50610158610267366004610c51565b610813565b610274610851565b61027c61087e565b6001600160a01b0382166102d75760405162461bcd60e51b815260206004820181905260248201527f5061796d656e74476174657761793a20696e76616c696420726563656976657260448201526064015b60405180910390fd5b478111156103335760405162461bcd60e51b8152602060048201526024808201527f5061796d656e74476174657761793a20696e73756666696369656e742062616c604482015263616e636560e01b60648201526084016102ce565b6000826001600160a01b03168260405160006040518083038185875af1925050503d8060008114610380576040519150601f19603f3d011682016040523d82523d6000602084013e610385565b606091505b50509050806103e55760405162461bcd60e51b815260206004820152602660248201527f5061796d656e74476174657761793a206e6174697665207472616e736665722060448201526519985a5b195960d21b60648201526084016102ce565b826001600160a01b03167f7084f5476618d8e60b11ef0d7d3f06914655adb8793e28ff7f018d4c76d505d58360405161042091815260200190565b60405180910390a25061043260018055565b5050565b61043e61087e565b6000831161048e5760405162461bcd60e51b815260206004820152601b60248201527f5061796d656e74476174657761793a207a65726f20616d6f756e74000000000060448201526064016102ce565b6001600160a01b0384166104e45760405162461bcd60e51b815260206004820152601d60248201527f5061796d656e74476174657761793a20696e76616c696420746f6b656e00000060448201526064016102ce565b6104f96001600160a01b0385163330866108a8565b836001600160a01b0316336001600160a01b03167f17080f2035a31ed13201024f7852b6de38cb2a648a713e536919a975d01b19bd85858560405161054093929190610cb0565b60405180910390a361055160018055565b50505050565b61055f610851565b61056761087e565b6001600160a01b0382166105bd5760405162461bcd60e51b815260206004820181905260248201527f5061796d656e74476174657761793a20696e76616c696420726563656976657260448201526064016102ce565b6001600160a01b0383166106135760405162461bcd60e51b815260206004820152601d60248201527f5061796d656e74476174657761793a20696e76616c696420746f6b656e00000060448201526064016102ce565b6106276001600160a01b038416838361090f565b816001600160a01b0316836001600160a01b03167fbfed55bdcd242e3dd0f60ddd7d1e87c67f61c34cd9527b3e6455d841b10253628360405161066c91815260200190565b60405180910390a361067d60018055565b505050565b61068a610851565b6106946000610940565b565b61069e610851565b6106a661087e565b6001600160a01b0382166106135760405162461bcd60e51b815260206004820152601a60248201527f5061796d656e74476174657761793a20696e76616c696420746f00000000000060448201526064016102ce565b6040516370a0823160e01b81523060048201526000906001600160a01b038316906370a0823190602401602060405180830381865afa158015610743573d6000803e3d6000fd5b505050506040513d601f19601f820116820180604052508101906107679190610ce6565b92915050565b61077561087e565b600034116107c55760405162461bcd60e51b815260206004820152601c60248201527f5061796d656e74476174657761793a207a65726f207061796d656e740000000060448201526064016102ce565b336001600160a01b03167f6d54ae56da3ca390cbb097f1726bcc05c7544f57e9aa323d981eeefc4c29c1dd34848460405161080293929190610cb0565b60405180910390a261043260018055565b61081b610851565b6001600160a01b03811661084557604051631e4fbdf760e01b8152600060048201526024016102ce565b61084e81610940565b50565b6000546001600160a01b031633146106945760405163118cdaa760e01b81523360048201526024016102ce565b6002600154036108a157604051633ee5aeb560e01b815260040160405180910390fd5b6002600155565b6040516001600160a01b0384811660248301528381166044830152606482018390526105519186918216906323b872dd906084015b604051602081830303815290604052915060e01b6020820180516001600160e01b038381831617835250505050610990565b6040516001600160a01b0383811660248301526044820183905261067d91859182169063a9059cbb906064016108dd565b600080546001600160a01b038381166001600160a01b0319831681178455604051919092169283917f8be0079c531659141344cd1fd0a4f28419497f9722a3daafe3b4186f6b6457e09190a35050565b60006109a56001600160a01b038416836109f3565b905080516000141580156109ca5750808060200190518101906109c89190610cff565b155b1561067d57604051635274afe760e01b81526001600160a01b03841660048201526024016102ce565b6060610a0183836000610a08565b9392505050565b606081471015610a2d5760405163cd78605960e01b81523060048201526024016102ce565b600080856001600160a01b03168486604051610a499190610d21565b60006040518083038185875af1925050503d8060008114610a86576040519150601f19603f3d011682016040523d82523d6000602084013e610a8b565b606091505b5091509150610a9b868383610aa5565b9695505050505050565b606082610aba57610ab582610b01565b610a01565b8151158015610ad157506001600160a01b0384163b155b15610afa57604051639996b31560e01b81526001600160a01b03851660048201526024016102ce565b5080610a01565b805115610b115780518082602001fd5b604051630a12f52160e11b815260040160405180910390fd5b6001600160a01b038116811461084e57600080fd5b60008060408385031215610b5257600080fd5b8235610b5d81610b2a565b946020939093013593505050565b60008083601f840112610b7d57600080fd5b50813567ffffffffffffffff811115610b9557600080fd5b602083019150836020828501011115610bad57600080fd5b9250929050565b60008060008060608587031215610bca57600080fd5b8435610bd581610b2a565b935060208501359250604085013567ffffffffffffffff811115610bf857600080fd5b610c0487828801610b6b565b95989497509550505050565b600080600060608486031215610c2557600080fd5b8335610c3081610b2a565b92506020840135610c4081610b2a565b929592945050506040919091013590565b600060208284031215610c6357600080fd5b8135610a0181610b2a565b60008060208385031215610c8157600080fd5b823567ffffffffffffffff811115610c9857600080fd5b610ca485828601610b6b565b90969095509350505050565b83815260406020820152816040820152818360608301376000818301606090810191909152601f909201601f1916010192915050565b600060208284031215610cf857600080fd5b5051919050565b600060208284031215610d1157600080fd5b81518015158114610a0157600080fd5b6000825160005b81811015610d425760208186018101518583015201610d28565b50600092019182525091905056fea264697066735822122093f96ee3a4e0da55f8f48fc26f79b66ee200132542024693c5255d03e4ccea3d64736f6c63430008170033",
  "devdoc": {
    "errors": {
      "AddressEmptyCode(address)": [
        {
          "details": "There's no code at `target` (it is not a contract)."
        }
      ],
      "AddressInsufficientBalance(address)": [
        {
          "details": "The ETH balance of the account is not enough to perform the operation."
        }
      ],
      "FailedInnerCall()": [
        {
          "details": "A call to an address target failed. The target may have reverted."
        }
      ],
      "OwnableInvalidOwner(address)": [
        {
          "details": "The owner is not a valid owner account. (eg. `address(0)`)"
        }
      ],
      "OwnableUnauthorizedAccount(address)": [
        {
          "details": "The caller account is not authorized to perform an operation."
        }
      ],
      "ReentrancyGuardReentrantCall()": [
        {
          "details": "Unauthorized reentrant call."
        }
      ],
      "SafeERC20FailedOperation(address)": [
        {
          "details": "An operation with an ERC20 token failed."
        }
      ]
    },
    "kind": "dev",
    "methods": {
      "erc20Balance(address)": {
        "details": "Get ERC20 balance of contract"
      },
      "nativeBalance()": {
        "details": "Get contract native balance"
      },
      "owner()": {
        "details": "Returns the address of the current owner."
      },
      "payERC20(address,uint256,bytes)": {
        "details": "Pay with ERC20 token. Caller must approve this contract beforehand."
      },
      "payNative(bytes)": {
        "details": "Pay with native token and attach optional metadata (ABI-encoded bytes)"
      },
      "renounceOwnership()": {
        "details": "Leaves the contract without owner. It will not be possible to call `onlyOwner` functions. Can only be called by the current owner. NOTE: Renouncing ownership will leave the contract without an owner, thereby disabling any functionality that is only available to the owner."
      },
      "rescueERC20(address,address,uint256)": {
        "details": "Emergency rescue for accidentally sent tokens (owner only)"
      },
      "transferOwnership(address)": {
        "details": "Transfers ownership of the contract to a new account (`newOwner`). Can only be called by the current owner."
      },
      "withdrawERC20(address,address,uint256)": {
        "details": "Owner withdraw ERC20 token balance to a receiver"
      },
      "withdrawNative(address,uint256)": {
        "details": "Owner withdraw native balance to a receiver"
      }
    },
    "version": 1
  },
  "userdoc": {
    "kind": "user",
    "methods": {},
    "version": 1
  },
  "storageLayout": {
    "storage": [
      {
        "astId": 387,
        "contract": "contracts/PaymentGateway.sol:PaymentGateway",
        "label": "_owner",
        "offset": 0,
        "slot": "0",
        "type": "t_address"
      },
      {
        "astId": 5134,
        "contract": "contracts/PaymentGateway.sol:PaymentGateway",
        "label": "_status",
        "offset": 0,
        "slot": "1",
        "type": "t_uint256"
      }
    ],
    "types": {
      "t_address": {
        "encoding": "inplace",
        "label": "address",
        "numberOfBytes": "20"
      },
      "t_uint256": {
        "encoding": "inplace",
        "label": "uint256",
        "numberOfBytes": "32"
      }
    }
  }
}