{
  "address": "0x15Eba07D1e0F18dceCa02367Fa9cD6138563F857",
  "abi": [
    {
      "inputs": [],
      "stateMutability": "nonpayable",
      "type": "constructor"
    },
    {
      "inputs": [
        {
          "internalType": "address",
          "name": "owner",
          "type": "address"
        }
      ],
      "name": "OwnableInvalidOwner",
      "type": "error"
    },
    {
      "inputs": [
        {
          "internalType": "address",
          "name": "account",
          "type": "address"
        }
      ],
      "name": "OwnableUnauthorizedAccount",
      "type": "error"
    },
    {
      "inputs": [],
      "name": "ReentrancyGuardReentrantCall",
      "type": "error"
    },
    {
      "anonymous": false,
      "inputs": [
        {
          "indexed": true,
          "internalType": "address",
          "name": "distributor",
          "type": "address"
        },
        {
          "indexed": false,
          "internalType": "bool",
          "name": "authorized",
          "type": "bool"
        }
      ],
      "name": "DistributorUpdated",
      "type": "event"
    },
    {
      "anonymous": false,
      "inputs": [
        {
          "indexed": true,
          "internalType": "address",
          "name": "from",
          "type": "address"
        },
        {
          "indexed": false,
          "internalType": "uint256",
          "name": "amount",
          "type": "uint256"
        }
      ],
      "name": "FundsDeposited",
      "type": "event"
    },
    {
      "anonymous": false,
      "inputs": [
        {
          "indexed": true,
          "internalType": "address",
          "name": "previousOwner",
          "type": "address"
        },
        {
          "indexed": true,
          "internalType": "address",
          "name": "newOwner",
          "type": "address"
        }
      ],
      "name": "OwnershipTransferred",
      "type": "event"
    },
    {
      "anonymous": false,
      "inputs": [
        {
          "indexed": true,
          "internalType": "address",
          "name": "to",
          "type": "address"
        },
        {
          "indexed": false,
          "internalType": "uint256",
          "name": "amount",
          "type": "uint256"
        },
        {
          "indexed": true,
          "internalType": "address",
          "name": "distributor",
          "type": "address"
        }
      ],
      "name": "RewardDistributed",
      "type": "event"
    },
    {
      "inputs": [
        {
          "internalType": "address",
          "name": "",
          "type": "address"
        }
      ],
      "name": "authorizedDistributors",
      "outputs": [
        {
          "internalType": "bool",
          "name": "",
          "type": "bool"
        }
      ],
      "stateMutability": "view",
      "type": "function"
    },
    {
      "inputs": [],
      "name": "deposit",
      "outputs": [],
      "stateMutability": "payable",
      "type": "function"
    },
    {
      "inputs": [
        {
          "internalType": "address",
          "name": "to",
          "type": "address"
        },
        {
          "internalType": "uint256",
          "name": "amount",
          "type": "uint256"
        }
      ],
      "name": "distributeReward",
      "outputs": [],
      "stateMutability": "nonpayable",
      "type": "function"
    },
    {
      "inputs": [],
      "name": "emergencyWithdraw",
      "outputs": [],
      "stateMutability": "nonpayable",
      "type": "function"
    },
    {
      "inputs": [],
      "name": "getPoolBalance",
      "outputs": [
        {
          "internalType": "uint256",
          "name": "",
          "type": "uint256"
        }
      ],
      "stateMutability": "view",
      "type": "function"
    },
    {
      "inputs": [],
      "name": "owner",
      "outputs": [
        {
          "internalType": "address",
          "name": "",
          "type": "address"
        }
      ],
      "stateMutability": "view",
      "type": "function"
    },
    {
      "inputs": [],
      "name": "renounceOwnership",
      "outputs": [],
      "stateMutability": "nonpayable",
      "type": "function"
    },
    {
      "inputs": [
        {
          "internalType": "address",
          "name": "distributor",
          "type": "address"
        },
        {
          "internalType": "bool",
          "name": "authorized",
          "type": "bool"
        }
      ],
      "name": "setDistributor",
      "outputs": [],
      "stateMutability": "nonpayable",
      "type": "function"
    },
    {
      "inputs": [],
      "name": "totalDistributed",
      "outputs": [
        {
          "internalType": "uint256",
          "name": "",
          "type": "uint256"
        }
      ],
      "stateMutability": "view",
      "type": "function"
    },
    {
      "inputs": [
        {
          "internalType": "address",
          "name": "newOwner",
          "type": "address"
        }
      ],
      "name": "transferOwnership",
      "outputs": [],
      "stateMutability": "nonpayable",
      "type": "function"
    },
    {
      "stateMutability": "payable",
      "type": "receive"
    }
  ],
  "transactionHash": "0x7993f3e2d0bd703585cc4b766b0fdde1cdfe8957222e436a1af031c71eadea9f",
  "args": [],
  "numDeployments": 1,
  "solcInputHash": "d2bfb95f4d103a4e67fb06a6293fdeaa",
  "bytecode": "0x608060405234801561001057600080fd5b50338061003757604051631e4fbdf760e01b81526000600482015260240160405180910390fd5b6100408161004a565b506001805561009a565b600080546001600160a01b038381166001600160a01b0319831681178455604051919092169283917f8be0079c531659141344cd1fd0a4f28419497f9722a3daafe3b4186f6b6457e09190a35050565b610814806100a96000396000f3fe6080604052600436106100955760003560e01c8063d0e30db011610059578063d0e30db014610197578063d59ba0df1461019f578063db2e21bc146101bf578063efca2eed146101d4578063f2fde38b146101ea57600080fd5b80631ec8bb8c146100d6578063715018a6146100f85780638d1696c91461010d5780638da5cb5b14610152578063abd70aa21461017a57600080fd5b366100d15760405134815233907f543ba50a5eec5e6178218e364b1d0f396157b3c8fa278522c2cb7fd99407d4749060200160405180910390a2005b600080fd5b3480156100e257600080fd5b506100f66100f136600461072f565b61020a565b005b34801561010457600080fd5b506100f6610458565b34801561011957600080fd5b5061013d610128366004610759565b60026020526000908152604090205460ff1681565b60405190151581526020015b60405180910390f35b34801561015e57600080fd5b506000546040516001600160a01b039091168152602001610149565b34801561018657600080fd5b50475b604051908152602001610149565b6100f661046c565b3480156101ab57600080fd5b506100f66101ba36600461077b565b6104e3565b3480156101cb57600080fd5b506100f661054a565b3480156101e057600080fd5b5061018960035481565b3480156101f657600080fd5b506100f6610205366004610759565b61062e565b3360009081526002602052604090205460ff1661026e5760405162461bcd60e51b815260206004820152601a60248201527f4e6f7420617574686f72697a6564206469737472696275746f7200000000000060448201526064015b60405180910390fd5b61027661066c565b6001600160a01b0382166102c05760405162461bcd60e51b8152602060048201526011602482015270125b9d985b1a59081c9958da5c1a595b9d607a1b6044820152606401610265565b600081116103105760405162461bcd60e51b815260206004820152601d60248201527f416d6f756e74206d7573742062652067726561746572207468616e20300000006044820152606401610265565b804710156103605760405162461bcd60e51b815260206004820152601960248201527f496e73756666696369656e7420706f6f6c2062616c616e6365000000000000006044820152606401610265565b806003600082825461037291906107b7565b90915550506040516000906001600160a01b0384169083908381818185875af1925050503d80600081146103c2576040519150601f19603f3d011682016040523d82523d6000602084013e6103c7565b606091505b505090508061040a5760405162461bcd60e51b815260206004820152600f60248201526e151c985b9cd9995c8819985a5b1959608a1b6044820152606401610265565b60405182815233906001600160a01b038516907ff1eed3d591352eb08c0dc172ef5a4d787195741a1cd3bea8fe04e701940964ab9060200160405180910390a35061045460018055565b5050565b610460610696565b61046a60006106c3565b565b600034116104ac5760405162461bcd60e51b815260206004820152600d60248201526c09aeae6e840e6cadcc8408aa89609b1b6044820152606401610265565b60405134815233907f543ba50a5eec5e6178218e364b1d0f396157b3c8fa278522c2cb7fd99407d4749060200160405180910390a2565b6104eb610696565b6001600160a01b038216600081815260026020908152604091829020805460ff191685151590811790915591519182527f19e1fee2e38695e60ad3ef8c81759c22d6d7ee56f9b8805363820a50da468a18910160405180910390a25050565b610552610696565b47806105975760405162461bcd60e51b81526020600482015260146024820152734e6f2066756e647320746f20776974686472617760601b6044820152606401610265565b600080546040516001600160a01b039091169083908381818185875af1925050503d80600081146105e4576040519150601f19603f3d011682016040523d82523d6000602084013e6105e9565b606091505b50509050806104545760405162461bcd60e51b815260206004820152601160248201527015da5d1a191c985dd85b0819985a5b1959607a1b6044820152606401610265565b610636610696565b6001600160a01b03811661066057604051631e4fbdf760e01b815260006004820152602401610265565b610669816106c3565b50565b60026001540361068f57604051633ee5aeb560e01b815260040160405180910390fd5b6002600155565b6000546001600160a01b0316331461046a5760405163118cdaa760e01b8152336004820152602401610265565b600080546001600160a01b038381166001600160a01b0319831681178455604051919092169283917f8be0079c531659141344cd1fd0a4f28419497f9722a3daafe3b4186f6b6457e09190a35050565b80356001600160a01b038116811461072a57600080fd5b919050565b6000806040838503121561074257600080fd5b61074b83610713565b946020939093013593505050565b60006020828403121561076b57600080fd5b61077482610713565b9392505050565b6000806040838503121561078e57600080fd5b61079783610713565b9150602083013580151581146107ac57600080fd5b809150509250929050565b808201808211156107d857634e487b7160e01b600052601160045260246000fd5b9291505056fea26469706673582212204bfe02767a38123bd59f7c6bd989fdf79b70dba78aabf028c8d2af0889a83c0664736f6c63430008170033",
  "devdoc": {
    "errors": {
      "OwnableInvalidOwner(address)": [
        {
          "details": "The owner is not a valid owner account. (eg. `address(0)`)"
        }
      ],
      "OwnableUnauthorizedAccount(address)": [
        {
          "details": "The caller account is not authorized to perform an operation."
        }
      ],
      "ReentrancyGuardReentrantCall()": [
        {
          "details": "Unauthorized reentrant call."
        }
      ]
    },
    "kind": "dev",
    "methods": {
      "deposit()": {
        "details": "Deposit funds to the reward pool"
      },
      "distributeReward(address,uint256)": {
        "details": "Distribute reward to player"
      },
      "emergencyWithdraw()": {
        "details": "Emergency withdraw"
      },
      "getPoolBalance()": {
        "details": "Get current pool balance"
      },
      "owner()": {
        "details": "Returns the address of the current owner."
      },
      "renounceOwnership()": {
        "details": "Leaves the contract without owner. It will not be possible to call `onlyOwner` functions. Can only be called by the current owner. NOTE: Renouncing ownership will leave the contract without an owner, thereby disabling any functionality that is only available to the owner."
      },
      "setDistributor(address,bool)": {
        "details": "Set authorized distributor"
      },
      "transferOwnership(address)": {
        "details": "Transfers ownership of the contract to a new account (`newOwner`). Can only be called by the current owner."
      }
    },
    "version": 1
  },
  "userdoc": {
    "kind": "user",
    "methods": {},
    "notice": "==================== REWARD POOL CONTRACT ====================",
    "version": 1
  },
  "storageLayout": {
    "storage": [
      {
        "astId": 387,
        "contract": "contracts/RewardPool.sol:RewardPool",
        "label": "_owner",
        "offset": 0,
        "slot": "0",
        "type": "t_address"
      },
      {
        "astId": 5134,
        "contract": "contracts/RewardPool.sol:RewardPool",
        "label": "_status",
        "offset": 0,
        "slot": "1",
        "type": "t_uint256"
      },
      {
        "astId": 15030,
        "contract": "contracts/RewardPool.sol:RewardPool",
        "label": "authorizedDistributors",
        "offset": 0,
        "slot": "2",
        "type": "t_mapping(t_address,t_bool)"
      },
      {
        "astId": 15032,
        "contract": "contracts/RewardPool.sol:RewardPool",
        "label": "totalDistributed",
        "offset": 0,
        "slot": "3",
        "type": "t_uint256"
      }
    ],
    "types": {
      "t_address": {
        "encoding": "inplace",
        "label": "address",
        "numberOfBytes": "20"
      },
      "t_bool": {
        "encoding": "inplace",
        "label": "bool",
        "numberOfBytes": "1"
      },
      "t_mapping(t_address,t_bool)": {
        "encoding": "mapping",
        "key": "t_address",
        "label": "mapping(address => bool)",
        "numberOfBytes": "32",
        "value": "t_bool"
      },
      "t_uint256": {
        "encoding": "inplace",
        "label": "uint256",
        "numberOfBytes": "32"
      }
    }
  }
}